:400000000080002011000000E1050000E105000008B5044B1A6803F53F5302331A6000F0FFFA00BFFA46004010B5054C237833B9044B13B10448AFF300800123237010BDB2
:400040005081FF1F0000000060190000084B10B51BB108490848AFF300800848036803B910BD074B002BFBD0BDE81040184700BF000000005481FF1F60190000C880FF1F00
:4000800000000000094B1B683BB9084A5268062A03DC0132054B5A607047044A5268062A02DD0133014A1360704700BF6C81FF1F08B500F04BFF08BD38B501221A4B1A721F
:4000C0001A4B1B78DBB213F01E0F05D0164803F01E02417A0A43427203F0200303F0FF04F3B1134B1B78DBB2124A13700E4A527AB2B9114A13700021084600F0BDFC0F4D5B
:400100000C4B1A780E49284601F006F80D4800F04BFC0021084600F0AFFC284600F044FC002CCDD138BD00BF6C81FF1F6C64004048650040CC80FF1F4B650040A481FF1FCB
:400140006419000070190000013903290ED8DFE801F00205080BC0F3C00307E0C0F3800304E0C0F3400301E000F0010318467047053907291CD8DFE801F004070A0D1013A5
:400180001619C0F3C01313E0C0F3801310E0C0F340130DE0C0F300130AE0C0F3C00307E0C0F3800304E0C0F3400301E000F001031846704707291CD8DFE801F004070A0D69
:4001C00010131619C0F3C01313E0C0F3801310E0C0F340130DE0C0F300130AE0C0F3C00307E0C0F3800304E0C0F3400301E000F001031846704700BF38B5504800F0D4FC00
:4002000062B662B600F002FF4D4800F027FF00F08FFA00F023FC00F0FFFA00F06BFD00F0DBFD00F04BFE00F097FC464800F0E4FC522000F009FD292000F00CFD162000F077
:4002400075FD0B2000F078FD1A2000F0E1FD0D2000F0E4FD0021084600F00EFC3A4800F0A3FB0021084600F007FC384800F09CFB00252C46364B5B7A13B10022344B5A7276
:40028000334B19680D2947D8DFE801F0070E0E0E0E1414141414141414192D4B5968FF20FFF788FF044637E02A4B1878FFF74CFF044631E00120FFF75BFF04462CE0244B2D
:4002C00000221A725A600135042D00D11546214A13785B00137000F041FA00F0F3FB002000F098FC142000F011FE002000F0F4FD174B1B7A002BFBD0012000F08BFC142095
:4003000000F004FE012000F0E7FD0022104B1A6000F082FA00F020FC012C06D1162000F02BFA0B2000F02EFAA4E7002CA2D11A2000F022FA0D2000F025FA9BE7B9000000EE
:40034000B10000008500000080190000981900006C81FF1FCC80FF1FFEE700BFF0B40022174611E050F82760F3B226F0FF0608E001EB420511F812406D78A5550132013B7D
:40038000DBB2002BF4D101371F2FEBD9F0BC7047064B1B78DBB203F00701054A11701B09013213704422034B1A707047CF0100496E5800407658004008B50A46002100F0BD
:4003C000A2FE08BD08B500F093FE08BD38B51722314B1A80182331490B7002310A8002310B7002310A8002310B7002310A802C4A13701925023215800232137045F6BF5194
:400400000232118002321370042226492648FFF7D9FF0222254B1A7008224FF040231A70032103F500731970214B1B78DBB221490B70214B1A8041F25122023B1A800024CB
:400440000CE01E4B1B7803F0010343EA440404F003044FF4F07000F00FFE013D0DB1032CEFD115B90320FFF777FF154B4FF480721A8007221A70002212490A7048200231D1
:4004800008701A700222033B1A700F4A137843F03F03137038BD00BF80400040824000408E40004048080048004100400043004008010049A146004022420040254200404E
:4004C0000440004006400040A243004038B572B600240CE0324D630019194A0011462A44084691882858FFF767FF0134E4B2082CF0D900240BE02A49A30018194200881842
:400500008022C16B806BFFF75DFF0134E4B2002CF1D024494FF09040FFF720FF224A137843F0020313701032137843F0020313701E4C237843F040032370A2F58632513A45
:40054000137843F010031370082219491948FFF739FF0A2218491948FFF734FF082218491848FFF72FFF082217491848FFF72AFF174A137843F008031370164D61232B70AE
:40058000FFF724FF81232B700122134B1A70FFF7FFFE0E2221461148FFF714FF38BD00BFA01900008000004803500140A043004024080048025100402C080048C05100402C
:4005C00038080048125100404008004822510040224300400048004004000840B043004008B500F059FD03680C2B00D1FEE7FEE708B5094B1A681044084BC31AB3F5407F23
:4006000002DC054B186005E000F046FD0C2303604FF0FF32104608BDD480FF1FC081FF1F08B5104E104D16E029686B68AC68002204E051F8040B43F8040B0432A242F8D19D
:40064000E868002203E0002143F8041B04328242F9D11035013E002EE6D100F023FDFFF7CBFDFEE7010000003C1A000008B5104A104B1A60104A136843F400731360002372
:400680000AE0032B03D80D4A52F8231000E00C490C4A42F8231001332F2BF2D90A4B1A780A4B1A70074A0A4B1A60FFF70FFF08BD0004FA050CED00E014ED00E000000000B6
:4006C000E10500000080FF1FBC760040C080FF1F08ED00E07222074B1A703E2204331A7006229E331A70472210331A7000224E331A7070478864004010B500F0C5FC0446B7
:400700000A4A137843F0200313700432137843F010031370FC32137843F01003137000F0E7FB204600F0B4FC10BD00BF9864004008B5054B1B7823B9FFF7CCFF0122024BA8
:400740001A70FFF7D9FF08BD7C81FF1F024A137843F08003137070477D640040024A137803F07F03137070477D640040014B1870704700BF0D640040014B1870704700BF6D
:400780004D640040014B1870704700BF2D640040014B1870704700BF8D640040014B1878704700BF6D640040014B1878704700BF5D64004008B501E0FFF7F6FFFFF7EEFF90
:4007C00010F0100FF8D108BD10B5114A137803F0C00343F0090313700E4C237843F001032370FF20FFF7C2FFFF20FFF7C5FF7F20FFF7C8FF0020FFF7CBFF00F045FC2378B3
:4008000043F01003237000F043FCFFF7D3FF10BD7D6400409D64004008B5054B1B7823B9FFF7D2FF0122024B1A70FFF78FFF08BD7E81FF1F10B50B4C237803F09F03237037
:40084000237803F0F00323702378184340F010002070012000F070FB237803F0EF03237010BD00BF2051004038B505460E4C237843F020032370237803F0BF0323700020B9
:4008800000F05AFB237803F0F003237023781D4345F010052570012000F04EFB237803F0EF03237038BD00BF2051004070B5354B1A7802F08002D2B21A7033490A7802F08A
:4008C000F00242F00F020A7001310A7802F0F0020A7001310A7802F0F0020A701A7802F0DF021A701A7842F040021A704FF4CA76002000F021FB234D2B7843F010032B7003
:40090000012000F019FB214B1C78E4B22B7803F0EF032B70002000F00FFB04F00804E4B22B7843F010032B70012000F005FB2B7803F0EF032B7014B90A2000F0FDFA013E54
:400940000CB1002ED4D10F4A137803F0BF031370137803F08003DBB213700232137803F0F00313700132137803F0F00343F00F0313700132137803F0F00343F00F031370BA
:4009800070BD00BF20510040225100402151004010B50446FFF78AFF2009FFF765FF04F00F00FFF761FF10BD38B505460078012404E0FFF7EDFF285D0134E4B20028F8D122
:4009C00038BD00BF10B50446FFF770FF2009FFF731FF04F00F00FFF72DFF10BD08B5282000F094FA0320FFF725FF052000F08EFA0320FFF71FFF0F2000F088FA0320FFF740
:400A000019FF012000F082FA0220FFF713FF052000F07CFA0620FFF7D5FF0E20FFF7D2FF2C20FFF7CFFF0820FFF7CCFF0120FFF7C9FF0C20FFF7C6FF0320FFF7C3FF0520B8
:400A400000F064FA08BD00BF08B50C20FFF7BAFF0122014B1A7008BD7F81FF1F08B5054B5B7823B9FFF7BAFF0122024B5A70FFF7EBFF08BD7F81FF1F08B5032819D8DFE828
:400A800000F002070D1381F08000FFF79BFF08BDA1F14000C0B2FFF795FF08BDA1F16C00C0B2FFF78FFF08BDA1F12C00C0B2FFF789FF08BD024A137843F080031370704751
:400AC00075650040024A137803F07F031370704775650040014B1870704700BF85650040014B1878704700BF65650040014B1880704700BF486A0040014B188880B270474B
:400B0000886A0040014B1880704700BF086A004008B501E0FFF7F0FFFFF7E2FF10F0080FF8D108BD08B540F2F310FFF7DFFF40F2F310FFF7E7FF00F0A7FA064A137843F002
:400B40001003137000F0A4FAFFF7E2FF0120FFF7C1FF08BD9565004008B5054B1B7823B9FFF7E0FF0122024B1A70FFF7A3FF08BD8181FF1F014B1B681864704708ED00E005
:400B80004001C0B2014B1870704700BF00E400E00122014B1A60704700E100E00122014B1A60704780E100E010B50446FFF7F6FF2046FFF7DFFF0720FFF7E2FFFFF7E8FF23
:400BC00010BD00BF014B1B685864704708ED00E04001C0B2014B1870704700BF01E400E00222014B1A60704700E100E00222014B1A60704780E100E010B50446FFF7F6FF52
:400C00002046FFF7DFFF0720FFF7E2FFFFF7E8FF10BD00BF044A137803F07F03C001C0B218431070704700BF10510040024A137843F080031370704773640040014B1880DE
:400C4000704700BF04680040014B1880704700BF84680040014B1880704700BF44680040014B1870704700BF83640040014B1878704700BF63640040014B188880B27047E7
:400C8000A468004008B501E0FFF7F6FFFFF7EEFF10F0100FF8D108BD10B5144A137803F0C00343F0090313701F32137843F0010313700F4C237843F0010323705220FFF7EB
:400CC000BDFF5220FFF7C0FF2920FFF7C3FF0020FFF7C6FF00F0D8F9237843F01003237000F0D6F9FFF7CEFF10BD00BF736400409364004008B5054B1B7823B9FFF7CCFF67
:400D00000122024B1A70FFF791FF08BD8281FF1F024A137843F08003137070477B640040014B1880704700BF14680040014B1880704700BF94680040014B1880704700BF61
:400D400054680040014B1870704700BF8B640040014B1878704700BF6B640040014B188880B27047B468004008B501E0FFF7F6FFFFF7EEFF10F0100FF8D108BD10B5144A30
:400D8000137803F0C00343F0090313701F32137843F0010313700F4C237843F0010323701620FFF7BDFF1620FFF7C0FF0B20FFF7C3FF0020FFF7C6FF00F066F9237843F02C
:400DC0001003237000F064F9FFF7CEFF10BD00BF7B6400409B64004008B5054B1B7823B9FFF7CCFF0122024B1A70FFF791FF08BD8381FF1F024A137843F0800313707047E8
:400E000079650040014B1880704700BF10680040014B1880704700BF90680040014B1880704700BF50680040014B1870704700BF89640040014B1878704700BF69640040C8
:400E4000014B188880B27047B068004008B501E0FFF7F6FFFFF7EEFF10F0100FF8D108BD10B5144A137803F0C00343F009031370E13A137843F0010313700F4C237843F07D
:400E8000010323701B20FFF7BDFF1B20FFF7C0FF0D20FFF7C3FF0020FFF7C6FF00F0F4F8237843F01003237000F0F2F8FFF7CEFF10BD00BF796500409964004008B5054B1D
:400EC0001B7823B9FFF7CCFF0122024B1A70FFF791FF08BD8481FF1F044A137803F07F03C001C0B218431070704700BF20510040054A137843F0100313701032137843F034
:400F000010031370704700BFA243004010B5044605E0084B186800F0AFF8A4F50044B4F5004FF6D8034B586800FB04F000F0A4F810BD00BFD880FF1F08B5034B1B7A00FB59
:400F400003F000F099F808BDD880FF1F0122014B1A70704784430040084A137843F0010313701032137843F00103137002F64D32137843F001031370704700BFA343004095
:400F8000014B1870704700BF034F0040014B1880704700BF044F0040014B1880704700BF064F004008B5164A137803F0010313700232137803F0FC031370124B1A7802F042
:400FC000CF021A701A7842F030021A701A7802F0F0021A701A7842F00F021A700A4A137843F0010313704FF6FF70FFF7CFFF4FF6FF70FFF7D1FF0020FFF7C2FF08BD00BFD1
:40100000004F00400B4F0040014F004008B5054B1B7823B9FFF7C6FF0122024B1A70FFF79BFF08BD8581FF1F014B1B689864704708ED00E04001C0B2014B1870704700BFF9
:4010400002E400E00422014B1A60704700E100E00422014B1A60704780E100E010B50446FFF7F6FF2046FFF7DFFF0720FFF7E2FFFFF7E8FF10BD00BF0230800803D000BF7B
:4010800001380046FCD17047EFF3108072B6704780F31088704700BF014B1868704700BF4881FF1F0E4B70B51E460E4C0025E41AA410A54204D056F8253098470135F8E7CD
:4010C00000F0AAFC084B094C1E46E41AA4100025A54204D056F8253098470135F8E770BD241A0000241A0000241A00002C1A000010B5431E0A44914204D011F8014B03F88D
:40110000014FF8E710BD03460244934202D003F8011BFAE7704700000EB400B54FF402719CB0ADF814106FF00041049107914FF6FF711DAB02900690084853F8042BADF8AB
:401140001610006802A9019300F064F8029B00221A701CB05DF804EB03B070474881FF1F2DE9F0478E6882469E420C46914698463ED88A8912F4906F3AD02568096902235E
:401180006F1A656905EB450595FBF3F57B1C43449D4238BF1D4653050FD5294600F040FB064698B13A462169FFF7A2FFA38923F4906343F08003A38113E02A4600F08EFBD7
:4011C000064670B92169504600F0DEFA0C23CAF80030A3894FF0FF3043F04003A381BDE8F08726613E44266046466561ED1BA560464528BF464649463246206800F0A8FA14
:40120000A36800209B1BA36023681E442660BDE8F08700002DE9F04F9DB003938B8980461C060D4616460DD50B695BB9402100F0F7FA2860286118B90C23C8F80030CDE0FE
:4012400040236B610023099320238DF82930DFF89CB130238DF82A3037463C4614F8013B1BB9B7EB060910D003E0252BF9D02746F3E74B46324629464046FFF771FF013085
:4012800000F0A780099B4B4409933B78002B00F0A08000234FF0FF3204930793059206938DF853301A930126052221784E4800F041FA671C049B38B14B4A3C46801A06FA4D
:4012C00000F018430490EFE7D90644BF20228DF853201A0744BF2B228DF8532022782A2A03D0079A00210A200BE0039A111D12680391002A10DA524243F002000792049039
:401300000BE027463B780134303B092B03D800FB02320121F5E701B107923B782E2B1ED17B782A2B0AD1039B02371A1D1B680392002BB8BF4FF0FF33059310E0002319461A
:401340000593781C0A2407463A780130303A092A03D804FB01210123F5E703B1059103223978224800F0E6F940B14023CBEB000003FA00F0049B013718430490397806225B
:401380001B487E1C8DF8281000F0D4F988B1194B33B9039B073323F007030833039314E003AB00932A46144B04A94046AFF3008007E003AB00932A460F4B04A9404600F0F9
:4013C00093F8B0F1FF3F824603D0099B5344099342E7AB895B0601D4099801E04FF0FF301DB0BDE8F08F00BFE4190000EA190000EE19000000000000611100002DE9F04718
:4014000091461F460A698B6806469342B8BF1346C9F8003091F843200C46DDF8208012B10133C9F800302368990642BFD9F800300233C9F80030256815F0060510D104F1C8
:40144000190A07E00123524639463046C04701301AD00135E368D9F800209B1A9D42F1DB94F843302268003318BF012392060FD5E118302081F843005A1C94F845102244C8
:40148000023382F8431003E04FF0FF30BDE8F08704F1430239463046C0470130F4D02268D9F80050E36802F00602042A08BF5D1B2269A3680CBF25EAE57500259342C4BFEE
:4014C0009B1AED184FF000091A344D4509D00123224639463046C0470130D5D009F10109F3E70020BDE8F0872DE9F04317460A7E85B06E2A984606460C460C9B01F1430E58
:4015000000F0AE8011D8632A22D009D8002A00F0BB80582A40F0CA8081F84520834955E0642A1ED0692A1CD0C0E0732A00F0B08009D86F2A2ED0702A40F0B8800A6842F09E
:4015400020020A603EE0752A24D0782A3AD0ADE01A6801F14205111D1960136884F84230A8E021681A6811F0800F02D0111D196008E011F0400F02F10401196002D0B2F968
:40158000003000E01368002B3CDA2D225B4284F8432037E021681A6811F0800F02D0111D196007E011F0400F02F10401196001D0138800E01368227E5C496F2A14BF0A221D
:4015C00008221BE078225A4984F845202268186812F0800F00F104051D6003D1550601D5038800E00368D00744BF42F0200222601BB9226822F0200222601022002084F829
:40160000430001E049490A226568002DA56008DB206820F0040020602BB9002D7DD175460CE0002B79D07546B3FBF2F002FB1033CB5C05F8013D03460028F5D1082A0BD11E
:401640002368DA0708D5236962689A42DEBF302305F8013C05F1FF35C5EB0E0323612EE008681A6810F0800F496903D0101D1860136808E010F0400F02F104001860136801
:4016800001D0198000E0196000232361754616E01A68111D1960156800216268284600F049F808B1401B6060636804E004F1420584F8422001232361002384F84330CDF8C3
:4016C00000803B4603AA21463046FFF797FE013002D14FF0FF3026E023692A4639463046C0470130F5D023689B0710D5002504F1190907E001234A4639463046C047013058
:40170000E7D00135E368039A9B1A9D42F2DBE068039B9842B8BF184605E00B7804F1420584F842308AE705B0BDE8F083F5190000061A000010B5C9B202449042034605D06A
:401740001C7801308C42F8D1184610BD002010BD884210B501EB020301D8421E0BE09842FBD28118D21AD34204D013F8014D01F8014DF8E710BD994204D011F8014B02F8F2
:40178000014FF8E710BD000038B50546002944D051F8043C0C1F002BB8BFE41800F0D4F81E4A1368114613B96360146030E0A3420DD92268A018834201BF18685B6812185E
:4017C000226063600C6023E0A24203D813465A68002AF9D118681918A1420BD12168014458188242196013D110685268014419605A600DE002D90C232B6009E02168601882
:40180000824201BF106852680918216062605C602846BDE8384000F098B838BD8C81FF1F70B5CD1C25F0030508350C2D38BF0C25002D064601DBA94202D90C23336046E01B
:4018400000F082F8234B1C681A462146A1B10B685B1B0ED40B2B03D90B60CC18CD501EE08C420BBF63684B681360636018BF0C4615E00C464968E9E7174C23681BB9304637
:4018800000F052F820602946304600F04DF8431C18D0C41C24F00304A0420DD12560304600F053F804F10B00231D20F00700C31A0ED05A42E25070BD211A304600F034F842
:4018C0000130EBD10C233360304600F03EF8002070BD00BF8C81FF1F8881FF1FF8B5074615460E4621B91146BDE8F840FFF798BF1AB9FFF749FF2846F8BD00F027F8854231
:401900000ED929463846FFF78BFF044650B131462A46FFF7EDFB31463846FFF735FF01E03046F8BD2046F8BD38B5064C0023054608462360FEF75CFE431C02D1236803B1BF
:401940002B6038BDBC81FF1F7047704751F8040C0028BEBF091851F8043CC018043870470000000043726162733A202564000000202020202020202020202020200000003D
:4019800020202020202020202020202020202020202020200000000048656C6C6F000000004F00400C00305100404000F0510040100000000140800A000B01400005001456
:4019C0000140000800400140000A004C014000020050014020000000800A0140A407004880004300232D302B2000686C4C0065666745464700303132333435363738394115
:401A0000424344454600303132333435363738396162636465660000F8B500BFF8BC08BC9E4670474D0000006D060000F8B500BFF8BC08BC9E46704729000000501A00009F
:401A4000C880FF1F880000007000000000000000000000000100000002000000C081FF1F0000E02EC05D00001800000000366E0100000000000000000000000000000000BE
:401A800000000000000000000000000000000000E219000000000000000000000000000000000000000000000000000000000000000000000000000000000000000000002B
:401AC00000000000000000000000000000000000E880FF1F000000000000000000000000000000000000000000000000000000000000000000000000000000000000000060
:401B000000000000000000000000000000000000000000000000000000000000000000000000000000000000000000000000000000000000000000000000000000000000A5
:401B40000000000000000000000000000000000000000000000000000000000000000000000000000000000000000000000000000000000000000000000000000000000065
:401B80000000000000000000000000000000000000000000000000000000000000000000000000000000000000000000000000000000000000000000000000000000000025
:401BC00000000000000000000000000000000000000000000000000000000000000000000000000000000000000000000000000000000000000000000000000000000000E5
:020000040003F7
:0200000480007A
:40000000024F00400552004006640040026500404302014021030140010501406208014044090140170A01403A0B01403B0C01402B0D0140361401401915014001170140A0
:4000400052180140411901405F1A0140421B01400340014007410140064201400443014003460140044701400348014003490140074C01400A4D014009500140015101403C
:4000800001800A2700040830096061806440830D8872890D8B0D8C388D0D850D880F16012E0134014060410249FF4AFF4BFF4DA04F04501858045A045C035D035F016040CB
:4000C00062C06440654066C068C06AC06CC06EC086028F019201A101A204AA02B004B202B401B701BE04C020C106C5D0C601C702C816C9FFCAFFCBFFCDAFCE0FCF04D01874
:40010000D280D405D804D904DA04DB04DC33DD33DF01E040E2C0E440E540E6C0E8C0EAC0ECC0EEC0000409020F20108012041580180419061B101F2022402902398040041A
:400140004604480849014F2050885140520459055A807102C004C228C48ACA01CE08D024D224D60BE602AB200203040F0508080309060B010C010D0810031104120C140FD1
:4001800015061701180219071C041F0120082102240C25062603280C29082D012F06300F3307350838083A023B083E044020410649FF4AFF4BFF4DA04F045018560257115A
:4001C000580459045A045B045C445D425F01604062C06440654066C068C06AC06CC06EC091019A019F03AA01B102B201B701BE04C020C106C5D0C601C702C816C9FFCAFF78
:40020000CBFFCDAFCE0FCF04D018D405D804D904DA04DB04DC20DD22DF01E040E2C0E440E540E6C0E8C0EAC0ECC0EEC0042005800680071009200C100D080E411208160832
:40024000170519041E401F0421022240240825082D182E482F4030803102348037153D403E244080412842A0452049014A084E085080520859055A805E206D506E04741005
:400280007508770188108A018B408C84940196409A409B149C809D8A9F01A418A620A704B001C0F0C2F2C472CAF0CCF9CE70D024D224D62B0B01230137014060410349FFC0
:4002C0004AFF4BFF4DA04F04501859045A045F01604062C06440654066C068C06AC06CC06EC00410050A07010C880D2214C01540162017101D421E081F0420022404252020
:400300002608271429402A402B802C482D88362837013B103C343D403E404220462048044B104F11562057805C405E085F01774088808B109040940197089D409F40A00425
:40034000A784B404C0F0C2F0C4F0CAF1CCE0CE74D042D224D6D002040E021A02220123012C0130013101340436023E4054185604580459045B045D405F01870188049201B4
:400380009301A607AF02B004B102B202B301B401BF04C040C106C5D1C702C813C9FFCAFFCBFFCDA0CF04D018D280D405D804D904DA04DB04DC11DD11DF01E040E2C0E4403E
:4003C000E540E6C0E8C0EAC0ECC0EEC000100540074009020F0810201501178018141A401C481F402102220427802A802D012F80310238083A403B80410248284901500C2A
:4004000059015A485C016640674872808740C092C248C494CA88CC01CE02D001D204D68BD8B01F0123013101405149FF4AFF4BFF4F01501859045A045C505D055F016040BF
:40044000624064406540668068806A806C806E809201AE01B001BE01C015C5ECC602C807C9FFCAFFCBFFCD83CE03CF01D018D280D401D804DA04DB04DD55DF01E040E240E8
:40048000E440E540E680E880EA80EC80EE800F8017401E8021022B8033404380474048014D044F8157C05D045E805F01740177408502C210C480CA01CC08D018D218D6D0D2
:4004C000EE0801C8033205380602080209380C020DC01004140417C019C01A021E021FC02001240425A0270C28042BC02D502F0D30023106320433383401350137C03E15D6
:400500003F01405641024204440145E0470C481249FF4AFF4BFF4C624DA04EF04F41500C5401580459045A045B045C405D445F016640670269106A306B106D106E106F1224
:40054000840488068C0693019A01A201A602B001B406B501B820BE10D280D804D904DB04DC22DD20DF010044012003080444052009200C280D080E420F8210A015011714AC
:40058000188019101EA821202421262027602C182D802F103101348037143D103E443F01464047504C044D024F8057045C105D015E88710183219008911092449421988069
:4005C0009A409B149C109D82A080A108A408A520A630A704AF04C0E7C2F2C47CCA70CC71CEF0D0B0D230D6F004E6050C061107030C600D010E8B0F0E11101480150116658F
:40060000170618A01B031E181F0820802202260128482A862F0C30073310350F36F83A023B203F044006454049FF4A074BFF4C404D204EF04F055008580459045A045C4416
:400640005D045F01604061A862406320822084018602870188288A108C0C8D018E10940C963098039C0C9E10A002A201A502A614A803A901B23CB303B403B908BA08C03284
:40068000C104C5EBC7C0C823C9FFCAFFCBFFCEF0CF44D00CD804D904DA04DC44DD04DF01E6C0EA40EB02004404400660070809080A010B040D080E040F0210A012081510C7
:4006C0001610170218401A031D081F182004232826082A402C202F0830A03108320138443C4444804528488049104D014F0450205120521057015CC0864889808A208B1260
:400700008F209110920494449501972099109D80A420A709A810AA01B440C0F5C2E7C47ECA68CC0FCE5AD0E0D20432243780CC705780862096089F80A620D440E6401280AD
:4007400096089F80AB80C410EE2071409F80AE84DC209A01B601EC0298409A01B040E8019F80AD40EE1087809F80E2405C016201644098409A01D601D803110179808901B5
:400780008D40B401C408DC01E408E601EC08001F08080C150E13103411011A201C141D01002F000000000100301C0002100800002007001800100100301F0C003800040477
:4007C0000000020000000803001802003C1C00010C04300004000100021F380002000028000014006003000000D021000EFFFFFF00AF0F04180080000500000004040404CF
:40080000440000014000C0004040C000C000C000C000C00000000000000000000000000000000000000404000400000080004080800080000000000000F3F3007000000091
:4008400000FFFF0000000000010014010000000000000000000000000000000000000000000000000000000000000000000000000000000000000000000000000000000064
:400880000000000000000000000000000000000000000000000000000000000000000000000000000000000000000000000000000000000000000000000000000000000038
:4008C00000000000000000000000000000000000000000000000000000000000000000000000000000000000000000000000000000000000000000000000000000000000F8
:4009000000000000000000000000000000000000000000000000000000000000000000000000000000000000000000000000000000000000000000000000000000000000B7
:400940000000000000000000000000000000000000000000000000000000000000000000000000000000000000000000000000000000000000000000000000000000000077
:0200000490006A
:0400000000004005B7
:0200000490105A
:04000000BC90ACAF55
:0200000490303A
:020000007B384B
:0200000490402A
:4000000000000000000000000000000000000000000000000000000000000000000000000000000000000000000000000000000000000000000000000000000000000000C0
:400040000000000000000000000000000000000000000000000000000000000000000000000000000000000000000000000000000000000000000000000000000000000080
:400080000000000000000000000000000000000000000000000000000000000000000000000000000000000000000000000000000000000000000000000000000000000040
:4000C0000000000000000000000000000000000000000000000000000000000000000000000000000000000000000000000000000000000000000000000000000000000000
:0200000490501A
:0C00000000012E16106900012E228BA1B9
:00000001FF