:4000000000800020110000006D0500006D05000008B5044B1A6803F53F5302331A6000F0ADFA00BFFA46004010B5054C237833B9044B13B10448AFF300800123237010BDEC
:400040004881FF1F00000000280E0000084B10B51BB108490848AFF300800848036803B910BD074B002BFBD0BDE81040184700BF000000004C81FF1F280E0000C880FF1F96
:4000800000000000024A136801331360704700BFCC80FF1F024A536801335360704700BFCC80FF1F024A936801339360704700BFCC80FF1F024AD3680133D360704700BF72
:4000C000CC80FF1F08B562B600F0FEFC00F01EFE00F02AFB00F03EFC8D4B187C00F05AFD8C4800F049FD8C4800F040FE8B4800F073FB8B4800F05EFC854B5A68894B83FB9B
:400100000231D317C3EB2113322101FB132363B97F4C207CC043C0B2207400F03BFD824A13780133137001236360794B1A687F4B83FB0231D317C3EBE1032B2101FB1323D7
:4001400063B9734C207CC043C0B2207400F022FD754A137801331370012323606C4BDA68734B83FB0231D317C3EB6103C3EBC301C3EBC1039A420CD1654C207CC043C0B285
:40018000207400F007FD684A5378013353700123E3605F4B9A68674882FB00011144D317C3EB611303EB4303C3EB03139A420CD1574C207CC043C0B2207400F0EBFC5A4A2E
:4001C0005378013353700123A360574B1B780B2B48D8DFE803F0060A0E12161E222A323A3E42FF22504B9A703CE0FF224E4B9A7038E0FF224C4B9A7034E0FF224A4B9A70E1
:4002000030E00022484B9A7000F086FC00F056FD28E00022444B9A7024E0FF22424B9A7000F074FD00F050FC1CE000223E4B9A7000F072FC00F042FD14E0FF223A4B9A703C
:4002400000F064FD00F040FC0CE0FF22364B9A7008E0FF22344B9A7004E0334BFF229A7000221A70304B5B780B2B48D8DFE803F0060A0E12161E222A323A3E42FF222A4B0E
:400280009A703CE0FF22284B9A7038E0FF22264B9A7034E0FF22244B9A7030E00022224B9A7000F069FA00F02DFB28E000221E4B9A7024E0FF221C4B9A7000F04BFB00F0AB
:4002C00033FA1CE00022184B9A7000F055FA00F019FB14E0FF22144B9A7000F03BFB00F023FA0CE0FF22104B9A7008E0FF220E4B9A7004E00C4BFF229A7000225A700A4CCC
:40030000A07800F053FCA07800F074FAF4E600BFCC80FF1F8500000095000000A5000000B50000001F85EB516481FF1F83BEA02F95204F09B7600BB6FEE700BFF0B4002237
:40034000174611E050F82760F3B226F0FF0608E001EB420511F812406D78A5550132013BDBB2002BF4D10137182FEBD9F0BC7047064B1B78DBB203F00701054A11701B0959
:40038000013213704422034B1A707047CF0100496E5800407658004008B50A46002100F03AFD08BD38B540F257322D4B1A8018232C4A13704FF46B710232118002321370C2
:4003C00040F21541023211800232137040F2524102321180023213700222234B1A7008224FF040231A70032103F5007319701F4B1B78DBB21E490B701E4B1A8041F2512219
:40040000023B1A80002419250CE01B4B1B7803F0010343EA440404F003044FF4F07000F0B3FC013D0DB1032CEFD115B90320FFF783FF124B4FF480721A8007221A700022A0
:400440000F490A704820023108701A700222033B1A700C4A137843F00F03137038BD00BF80400040824000400043004008010049A1460040224200402542004004400040F7
:4004800006400040A243004008B500F0B9FC08BD38B572B6284A137843F00403137000240CE0264D630019194A0011462A44084691882858FFF770FF0134E4B2072CF0D961
:4004C0001F494FF09040FFF739FF1E4A137843F0020313701032137843F0020313701A4C237843F040032370A2F58632513A137843F010031370082214491548FFF7C4FF4C
:40050000082214491448FFF7BFFF144A137843F008031370124D61232B70FFF743FF81232B7001220F4B1A70FFF722FF0E2221460D48FFF7A9FF38BDE84600402C0E000040
:400540006400004803500140A0430040F403004802510040FC03004812510040224300400048004004000840B043004008B500F01BFC03680C2B00D1FEE7FEE708B5104E94
:40058000104D16E029686B68AC68002204E051F8040B43F8040B0432A242F8D1E868002203E0002143F8041B04328242F9D11035013E002EE6D100F0FDFBFFF783FDFEE7A5
:4005C00001000000840E000008B5104A104B1A60104A136843F40073136000230AE0032B03D80D4A52F8231000E00C490C4A42F8231001332F2BF2D90A4B1A780A4B1A7089
:40060000074A0A4B1A60FFF743FF08BD0004FA050CED00E014ED00E0000000006D0500000080FF1FBC760040C080FF1F08ED00E0024A137843F0800313707047756400404B
:40064000024A137803F07F031370704775640040014B1880704700BF08680040024B1B78024B188880B2704714640040A8680040014B1880704700BF88680040014B1880A5
:40068000704700BF48680040014B1870704700BF85640040014B1878704700BF65640040014B1878704700BF75640040014B188880B27047A868004008B501E0FFF7F6FFED
:4006C000FFF7E8FF10F0100FF8D108BD10B5144A137803F0C00343F0090313701F32137843F0010313700F4C237843F001032370FF20FFF7ADFFFF20FFF7BAFF7F20FFF7D0
:40070000BDFF0020FFF7C0FF00F046FB237843F01003237000F044FBFFF7CEFF10BD00BF756400409564004008B5054B1B7823B9FFF7CCFF0122024B1A70FFF779FF08BD49
:400740006781FF1F014B188880B270478868004010B5FFF7F7FF064CA080FFF77FFF6080044B1B78A371FFF79BFFE07110BD00BF6881FF1F8564004008B5084B1B7813F0BE
:40078000800F03D00122064B1A7002E00022044B1A70FFF755FFFFF7DBFF08BD756400406881FF1F014B1B681864704708ED00E04001C0B2014B1870704700BF00E400E065
:4007C0000122014B1A60704700E100E00122014B1A60704780E100E010B50446FFF7F6FF2046FFF7DFFF0720FFF7E2FFFFF7E8FF10BD00BF044A137803F0F703C00000F0A6
:40080000080018431070704700510040024A137843F080031370704777640040024A137803F07F031370704777640040014B1880704700BF0C680040024B1B78024B18882F
:4008400080B2704716640040AC680040014B1880704700BF8C680040014B1880704700BF4C680040014B1870704700BF87640040014B1878704700BF67640040014B1878F7
:40088000704700BF77640040014B188880B27047AC68004008B501E0FFF7F6FFFFF7E8FF10F0100FF8D108BD10B5144A137803F0C00343F0090313701F32137843F0010332
:4008C00013700F4C237843F001032370FF20FFF7ADFFFF20FFF7BAFF7F20FFF7BDFF0020FFF7C0FF00F058FA237843F01003237000F056FAFFF7CEFF10BD00BF77640040A0
:400900009764004008B5054B1B7823B9FFF7CCFF0122024B1A70FFF779FF08BD7081FF1F014B188880B270478C68004010B5FFF7F7FF064CA080FFF77FFF6080044B1B78A1
:40094000A371FFF79BFFE07110BD00BF7481FF1F8764004008B5084B1B7813F0800F03D00122064B1A7002E00022044B1A70FFF755FFFFF7DBFF08BD776400407481FF1FC8
:40098000014B1B685864704708ED00E04001C0B2014B1870704700BF01E400E00222014B1A60704700E100E00222014B1A60704780E100E010B50446FFF7F6FF2046FFF7C4
:4009C000DFFF0720FFF7E2FFFFF7E8FF10BD00BF024A137843F080031370704775650040024A137803F07F031370704775650040014B1880704700BF086A0040024B1B7845
:400A0000024B188880B2704714650040A86A0040014B1880704700BF886A0040014B1880704700BF486A0040014B1870704700BF85650040014B1878704700BF656500402D
:400A4000014B1878704700BF75650040014B188880B27047A86A004008B501E0FFF7F6FFFFF7E8FF10F0100FF8D108BD10B5144A137803F0C00343F0090313701F321378CE
:400A800043F0010313700F4C237843F001032370FF20FFF7ADFFFF20FFF7BAFF7F20FFF7BDFF0020FFF7C0FF00F076F9237843F01003237000F074F9FFF7CEFF10BD00BF88
:400AC000756500409565004008B5054B1B7823B9FFF7CCFF0122024B1A70FFF779FF08BD7C81FF1F014B188880B27047886A004010B5FFF7F7FF064CA080FFF77FFF60809F
:400B0000044B1B78A371FFF79BFFE07110BD00BF8081FF1F8565004008B5084B1B7813F0800F03D00122064B1A7002E00022044B1A70FFF755FFFFF7DBFF08BD756500402D
:400B40008081FF1F014B1B689864704708ED00E04001C0B2014B1870704700BF02E400E00422014B1A60704700E100E00422014B1A60704780E100E010B50446FFF7F6FFFA
:400B80002046FFF7DFFF0720FFF7E2FFFFF7E8FF10BD00BF044A137803F0DF03400100F0200018431070704700510040044A137803F0FD03400000F00200184310707047E2
:400BC00000510040024A137843F080031370704777650040024A137803F07F031370704777650040014B1880704700BF0C6A0040024B1B78024B188880B27047166500405E
:400C0000AC6A0040014B1880704700BF8C6A0040014B1880704700BF4C6A0040014B1870704700BF87650040014B1878704700BF67650040014B1878704700BF776500403C
:400C4000014B188880B27047AC6A004008B501E0FFF7F6FFFFF7E8FF10F0100FF8D108BD10B5144A137803F0C00343F0090313701F32137843F0010313700F4C237843F051
:400C800001032370FF20FFF7ADFFFF20FFF7BAFF7F20FFF7BDFF0020FFF7C0FF00F07CF8237843F01003237000F07AF8FFF7CEFF10BD00BF776500409765004008B5054BFA
:400CC0001B7823B9FFF7CCFF0122024B1A70FFF779FF08BD8881FF1F014B188880B270478C6A004010B5FFF7F7FF064CA080FFF77FFF6080044B1B78A371FFF79BFFE07117
:400D000010BD00BF8C81FF1F8765004008B5084B1B7813F0800F03D00122064B1A7002E00022044B1A70FFF755FFFFF7DBFF08BD776500408C81FF1F014B1B68D864704705
:400D400008ED00E04001C0B2014B1870704700BF03E400E00822014B1A60704700E100E00822014B1A60704780E100E010B50446FFF7F6FF2046FFF7DFFF0720FFF7E2FF58
:400D8000FFF7E8FF10BD00BF0230800803D000BF01380046FCD17047EFF3108072B6704780F31088704700BF014B1868704700BF4081FF1F0E4B70B51E460E4C0025E41A29
:400DC000A410A54204D056F8253098470135F8E700F046F8084B094C1E46E41AA4100025A54204D056F8253098470135F8E770BD6C0E00006C0E00006C0E0000740E00006D
:400E000010B5431E0A44914204D011F8014B03F8014FF8E710BD03460244934202D003F8011BFAE77047000000000000205100405000C05100401000F05100401000000073
:400E40000140001000140140000800400140000A004C0140000200500140200043000000F8B500BFF8BC08BC9E4670474D000000C9050000F8B500BFF8BC08BC9E4670479D
:400E800029000000980E0000C880FF1F8000000050000000000000000000000001000000010000000100000001000000FF000000000000000000000000000000000000002A
:400EC000000000000000000000000000000000005C0E0000000000000000000000000000000000000000000000000000000000000000000000000000000000000000000088
:400F000000000000000000000000000000000000E080FF1F000000000000000000000000000000000000000000000000000000000000000000000000000000000000000033
:400F40000000000000000000000000000000000000000000000000000000000000000000000000000000000000000000000000000000000000000000000000000000000071
:400F80000000000000000000000000000000000000000000000000000000000000000000000000000000000000000000000000000000000000000000000000000000000031
:400FC00000000000000000000000000000000000000000000000000000000000000000000000000000000000000000000000000000000000000000000000000000000000F1
:4010000000000000000000000000000000000000000000000000000000000000000000000000000000000000000000000000000000000000000000000000000000000000B0
:020000040003F7
:0200000480007A
:400000000252004002640040026500400203014043040140230501403F060140210701400109014043140140251501404516014020170140011B01400540014009410140D9
:400040000642014002430140034701400248014004490140054C0140014D0140045001400151014008040944850D870D850D870D8A80E280030205020701170137033F408E
:400080004030410449FF4AFF4BFF4DA04F04501859045A045F01604062C06440654066C068C06AC06CC06EC087078A028B019904A202AE01B002B104B201B302B402B5013F
:4000C000BE10C030C104C5D1C602C807C9FFCAFFCBFFCDAFCE0FCF04D018D280D405D804D904DA04DB04DF01E040E2C0E440E540E6C0E8C0EAC0ECC0EEC004101680174002
:400100001C101D081E882001244027243304372039063C103F0840104280450846804F0956805C405E085F0177408A409114A680AD14C040C490CC22CE63D0C3D6D0E22028
:400140004030410649FF4AFF4BFF4DA04F0450185A045D025F01604062C06440654066C068C06AC06CC06EC0870688028F0197029B04A603B104B201B302B501B602B7027F
:40018000BF04C020C106C5D1C702C813C9FFCAFFCBFFCDAFCE0FCF04D018D280D405D804D904DA04DB04DC22DD22DF01E040E2C0E440E540E6C0E8C0EAC0ECC0EEC0001041
:4001C00010201810194020042101228423083020320838043B4040044708482049014A084E08520859415A08734091109502A680B401C002C404CC06CE0AD044D224D60BCE
:40020000EC100B01170133014030410649FF4AFF4BFF4DA04F04501859045A045C105D015F01604062C06440654066C068C06AC06CC06EC08A028B039902AA02AE01B002AC
:40024000B201B301B402B702BE10C030C102C5D0C610C702C81AC9FFCAFFCBFFCDAFCE0FCF04D018D280D405D804D904DA04DB04DC11DD11DF01E040E2C0E440E540E6C095
:40028000E8C0EAC0ECC0EEC00410160817401C901D081E08220826402720310837203A103F2040104508460848044F015404561857105E885F0177408440A608AB20B30160
:4002C000C040C4C0CC22CE24D062D204D6D0E801EA804060410249FF4AFF4BFF4DA04F0450185A045D035F01604062C06440654066C068C06AC06CC06EC0850289088B0491
:40030000920197049A069B03A308A604AA02B002B102B202B30CB401B501B604BE04BF04C020C106C5D1C702C813C9FFCAFFCBFFCDAFCE0FCF04D018D280D405D804D9049A
:40034000DA04DB04DC33DD33DF01E040E2C0E440E540E6C0E8C0EAC0ECC0EEC00A441020120419041A041B91200423A02B80302032083804391042044604482849014F208F
:400380005008520459055B8072409110C20AC406CA01CC06CE06D024D224D60BE8013010310835083610CCF003800B208A109C109D08A508A610C010C21088109C109D0809
:4003C000A508AF90EC509D08A508A108B508EC089D08A5088508A508B108E2405F206108A108D604D802AB2000050A05100A1A0A00FF0000112E2E0000000000004F4F0056
:400400004400000000000000000000000000000000000000000000000000000000000000000000000000000000000000000000000000000000000000000000000000000078
:40044000000000000000000000000000000000000000000000000000000000000000000000000000000000000000000000000000000000000000000000000000000000007C
:40048000000000000000000000000000000000000000000000000000000000000000000000000000000000000000000000000000000000000000000000000000000000003C
:4004C00000000000000000000000000000000000000000000000000000000000000000000000000000000000000000000000000000000000000000000000000000000000FC
:4005000000000000000000000000000000000000000000000000000000000000000000000000000000000000000000000000000000000000000000000000000000000000BB
:0200000490006A
:0400000000004005B7
:0200000490105A
:04000000BC90ACAF55
:0200000490303A
:0200000012FDEF
:0200000490402A
:4000000000000000000000000000000000000000000000000000000000000000000000000000000000000000000000000000000000000000000000000000000000000000C0
:400040000000000000000000000000000000000000000000000000000000000000000000000000000000000000000000000000000000000000000000000000000000000080
:400080000000000000000000000000000000000000000000000000000000000000000000000000000000000000000000000000000000000000000000000000000000000040
:4000C0000000000000000000000000000000000000000000000000000000000000000000000000000000000000000000000000000000000000000000000000000000000000
:0200000490501A
:0C00000000012E16106900012E1D236661
:00000001FF