:400000000080002011000000F5060000F506000008B5044B1A6803F53F5302331A6000F089FB00BFFA46004010B5054C237833B9044B13B10448AFF300800123237010BDFD
:400040004881FF1F00000000BC2C0000084B10B51BB108490848AFF300800848036803B910BD074B002BFBD0BDE81040184700BF000000004C81FF1FBC2C0000C880FF1F32
:400080000000000008B5012002F01EF9042001F053FA002002F018F901F08EFA08BD00BF10B4421000F0010002F00101002304E0521002F0010461400133062BF8DD8142DE
:4000C00001D1012000E0002010BC704730B583B02E4B1B78012B09D1012000F061FE2C4800F050FE0022294B1A704DE0274B5B78012B1FD1254C65882846FFF7D1FFC3B289
:4001000023716A08628004F10805B3FA83F35B092049284602F0AEF9012000F041FE0021084600F0A1FE284600F02CFE00232375637029E0154B5B7D012B11D100210120E9
:4001400000F092FE144B93E8030000908DF80410684600F017FE0D4B00221A755A7513E00A4B9B7D012B0FD10021012000F07CFE02A80A4B40F8083D00F004FEC82001F00F
:40018000DBF90022014B9A7503B030BD6481FF1FC02C0000D02C0000E02C00006261640008B500F07FFE01F0BBFF00F00FFD00F033FC00F095FB00F009FF01F0E7FE01F001
:4001C0005BFB002002F08CF808BD00BF08B501F0F3FE01F0ADFE01F05BFC00F06FFE01F0B3FF00F009FD00F027FC00F08DFB08BD08B500F021FE01F043FF00F0ABFC00F040
:40020000E1FB00F057FB01F093FE064802F08EF8054801F0DDFF054801F0F4FE012002F05FF808BD45030000C90200008500000008B50021084600F017FE024800F0A2FD3D
:4002400008BD00BF7C81FF1F08B562B6FFF7D0FF194C2546194E0FCE0FC533682B70FFF7E7FF4FF4FA7001F067F90321012001F083F9134D0FCD0FC42B682380FFF7D8FF89
:4002800002F00EF8FFF78CFF4FF40061002001F025FD0C4B93F82430012BFAD10024094B83F8244001F0FCFFFFF77AFF4FF40061204601F013FDECE77C81FF1FE82C000002
:4002C000FC2C00006481FF1F38B501F075F901F0F5FFFFF77BFF00F0FBFA88B101F0AAFF012000F05DFD094C094D0FCD0FC42B682380FFF79DFF00F04BFE02F025F838BDB0
:400300000122044B83F8242038BD00BF7C81FF1FFC2C00006481FF1F08B5884208DB084B012083F825000022DA8400F0F7FA08BD034B002083F82500188500F0EFFA08BDA5
:400340006481FF1F08B5494B5A8D01325A85DA6A0132DA6200F0BCFA20B1444AD38C0133D38403E0414A138D013313853F4B5B8D642B64D13D4B1B7D4BB93C4B93F83030E8
:400380002BB95A21394BD88CFFF7C6FF04E04621364BD88CFFF7C0FF344B93F831200132D2B283F8312000215985598E490089B293F8250001435986CBB2FF2B0FD12B4B3E
:4003C0001B7D63B9294B93F8303043B9274B002283F831205A8601221A751A7010E0234B1B7D012B0CD1082A0AD9204B598000225A8683F831201A7001225A7083F830200A
:400400001A4B93F83030012B19D1184B93F83130072B14D9154B5B8E012B03D10122134B5A7502E00122114B9A75104B002283F830201A7593F83420013283F83420FFF731
:4004400045FE0A4B93F83430022B05D8074BDA6A41F6A9739A4207DD044B002283F83420DA62012283F8242008BD00BF6481FF1FFEE700BFF0B40022174611E050F82760D6
:40048000F3B226F0FF0608E001EB420511F812406D78A5550132013BDBB2002BF4D10137222FEBD9F0BC70470C4B1B78DBB203F007010B4A11701B09013213700122094BF2
:4004C0001A70102203F6B3131A70202203331A704422A3F24D231A70704700BFCF0100496E5800400D51004008B50A46002101F0B8FF08BD38B54FF49C722A4B1A801823AA
:40050000294A137040F65F11023211800232137043F67F6102321180023213700222234B1A7008224FF040231A70002403F500731C701F4B1B78DBB21E4A13704FF4427215
:400540001D4B1A8041F25122023B1A8019250CE01A4B1B7803F0010343EA440404F003044FF4F07001F0F8FE013D0DB1032CEFD115B90320FFF77CFF114B4FF480721A8071
:4005800007221A7000220F490A704820023108701A700222033B1A700B4A137843F00703137038BD8040004082400040004300400A010049A146004022420040254200402B
:4005C0000440004006400040A243004008B501F03DFF08BD38B572B6334A137843F00403137000240CE0314D630019194A0011462A44084691882858FFF776FF0134E4B2F4
:40060000062CF0D92A494FF09040FFF733FF0322284B1A8002F1804202F5A832137843F0020313701032137843F002031370224C237843F040032370A2F58632513A137818
:4006400043F01003137008221C491D48FFF7BEFF0A221C491C48FFF7B9FF08221B491C48FFF7B4FF08221B491B48FFF7AFFF08221A491B48FFF7AAFF1A4A137843F008037B
:400680001370194D61232B70FFF734FF81232B700122164B1A70FFF707FF0E2221461448FFF794FF38BD00BFE8460040102D00008C00004848580040A043004018080048A6
:4006C0000251004020080048C05100402C0800481251004034080048225100403C08004832510040224300400048004004000840B043004008B501F07DFE03680C2B00D1B9
:40070000FEE7FEE708B5094B1A681044084BC31A802B02DC054B186005E001F06BFE0C2303604FF0FF32104608BD00BFCC80FF1F3082FF1F08B5104E104D16E029686B6860
:40074000AC68002204E051F8040B43F8040B0432A242F8D1E868002203E0002143F8041B04328242F9D11035013E002EE6D101F047FEFFF769FDFEE701000000A42D000094
:4007800008B5104A104B1A60104A136843F40073136000230AE0032B03D80D4A52F8231000E00C490C4A42F8231001332F2BF2D90A4B1A780A4B1A70074A0A4B1A60FFF744
:4007C00009FF08BD0004FA050CED00E014ED00E000000000F50600000080FF1FBC760040C080FF1F08ED00E0054A137843F0010313701032137843F001031370704700BFA0
:40080000A7430040054A137803F0FE0313701032137803F0FE031370704700BFA74300400F490B7803F0FC0200F0030313430B7001280AD10B4B1B78DBB20B4A13700B4B1E
:400840001B78DBB2013213707047094B1B78DBB2054A1370074B1B78DBB201321370704740580040100100493046004014010049AD010049B501004908B50220FFF7D0FFE6
:400880000B4B1A7802F0DF021A701A7802F0FB021A701A7842F008021A7003F287231A7802F0E7021A701A7842F010021A7008BD4058004008B5054B1B7823B9FFF7DCFFB0
:4008C0000122024B1A70FFF78FFF08BD9F81FF1F024B187800F00100704700BF965B004008B5074B1B7813F0010F03D00122054B1A7002E00022034B1A70FFF783FF08BD64
:40090000A7430040A081FF1F08B5034B1B78012B01D1FFF769FF08BDA081FF1F044A137803F0EF03000100F010001843107070470051004008B501F017FD044A137843F0A0
:400940001003137001F014FD08BD00BF9564004008B5044A137843F001031370FFF7EAFF08BD00BF7364004008B501F0FDFC044A137803F0EF03137001F0FAFC08BD00BF05
:400980009564004008B5044A137803F0FE031370FFF7EAFF08BD00BF73640040054B1A7802F0F8021A701A7800F0070010431870704700BF8564004008B50020FFF7EEFF5C
:4009C00008BD00BF08B5054B1B7823B9FFF7F4FF0122024B1A70FFF7BBFF08BDA181FF1F034B1A68034B5A60034A12689A60704702640040A481FF1F12640040034B596861
:400A0000034A11609A68034B1A607047A481FF1F026400401264004008B5054B1B7803F00103044A1370FFF7ADFFFFF7D9FF08BD73640040A481FF1F08B5FFF7DFFF034B02
:400A40001B780BB1FFF784FF08BD00BFA481FF1F024A137843F080031370704776640040024A137803F07F031370704776640040014B1880704700BF0C680040024B1B7878
:400A8000024B188880B2704716640040AC680040014B1880704700BF8C680040014B1880704700BF4C680040014B1870704700BF87640040014B1878704700BF67640040A4
:400AC000014B1878704700BF76640040014B1870704700BF76640040014B188880B27047AC68004008B501E0FFF7F6FFFFF7E2FF10F0100FF8D108BD10B5144A137803F04F
:400B0000C00343F0090313702032137843F0010313700F4C237843F001032370FF20FFF7A7FFFF20FFF7B4FF7F20FFF7B7FF0020FFF7BAFF01F018FC237843F010032370C3
:400B400001F016FCFFF7CEFF10BD00BF766400409764004008B5054B1B7823B9FFF7CCFF0122024B1A70FFF773FF08BDB081FF1F014B188880B270478C68004010B5FFF757
:400B8000F7FF064CA080FFF779FF6080044B1B78A371FFF795FFE07110BD00BFB481FF1F8764004010B5074CA088FFF771FF6088FFF75EFFA279044B1A70E079FFF786FFFB
:400BC00010BD00BFB481FF1F8764004008B5084B1B7813F0800F03D00122064B1A7002E00022044B1A70FFF73BFFFFF7C7FF08BD76640040B481FF1F08B5FFF7D3FF034B17
:400C00001B780BB1FFF724FF08BD00BFB481FF1F10B50B4C237803F09F032370237803F0F00323702378184340F010002070012000F098FC237803F0EF03237010BD00BF78
:400C40002051004038B505460E4C237843F020032370237803F0BF032370002000F082FC237803F0F003237023781D4345F010052570012000F076FC237803F0EF032370B8
:400C800038BD00BF2051004070B5354B1A7802F08002D2B21A7033490A7802F0F00242F00F020A7001310A7802F0F0020A7001310A7802F0F0020A701A7802F0DF021A7064
:400CC0001A7842F040021A704FF4CA76002000F049FC234D2B7843F010032B70012000F041FC214B1C78E4B22B7803F0EF032B70002000F037FC04F00804E4B22B7843F0E2
:400D000010032B70012000F02DFC2B7803F0EF032B7014B90A2000F025FC013E0CB1002ED4D10F4A137803F0BF031370137803F08003DBB213700232137803F0F00313707C
:400D40000132137803F0F00343F00F0313700132137803F0F00343F00F03137070BD00BF20510040225100402151004010B50446FFF78AFF2009FFF765FF04F00F00FFF78F
:400D800061FF10BD38B505460078012404E0FFF7EDFF285D0134E4B20028F8D138BD00BF10B50446FFF770FF2009FFF731FF04F00F00FFF72DFF10BD08B5282000F0BCFB15
:400DC0000320FFF725FF052000F0B6FB0320FFF71FFF0F2000F0B0FB0320FFF719FF012000F0AAFB0220FFF713FF052000F0A4FB0620FFF7D5FF0E20FFF7D2FF2C20FFF703
:400E0000CFFF0820FFF7CCFF0120FFF7C9FF0C20FFF7C6FF0320FFF7C3FF052000F08CFB08BD00BF08B50C20FFF7BAFF0122014B1A7008BDBC81FF1F08B5054B5B7823B9CD
:400E4000FFF7BAFF0122024B5A70FFF7EBFF08BDBC81FF1F08B50820FFF7A2FF0022014B1A7008BDBC81FF1F08B5032819D8DFE800F002070D1381F08000FFF791FF08BD00
:400E8000A1F14000C0B2FFF78BFF08BDA1F16C00C0B2FFF785FF08BDA1F12C00C0B2FFF77FFF08BD08B5034B1A78034B1A70FFF7D1FF08BDBC81FF1FC081FF1F08B5034BCC
:400EC0001B78012B01D1FFF7ADFF08BDC081FF1F024A137843F080031370704778640040024A137803F07F031370704778640040014B1870704700BF89640040014B1878C3
:400F0000704700BF69640040014B1878704700BF78640040014B1880704700BF50680040014B188880B2704790680040014B1880704700BF10680040024B1B78024B188882
:400F400080B27047086400409068004008B501E0FFF7E6FFFFF7D2FF10F0080FF8D108BD08B53120FFF7D6FF3120FFF7DFFF01F0FBF9064A137843F01003137001F0F8F956
:400F8000FFF7E4FF0120FFF7B3FF08BD9964004008B5054B1B7823B9FFF7E2FF0122024B1A70FFF795FF08BDC181FF1F10B5FFF7C3FF044C6080044B1B782371FFF7A4FFD5
:400FC000607110BDC481FF1F8964004008B5084B1B7813F0800F03D00122064B1A7002E00022044B1A70FFF77BFFFFF7DFFF08BD78640040C481FF1F0E4B1B7813F0070F53
:4010000004D10D4B1B7813F0010F0CD1094B1B7803F00703012B08D1084B1B7813F0010F05D10020704701207047002070470120704700BF93430040A5430040B5430040B5
:401040000C4A137803F0F003137000220A4B1A700A4A137843F080031370C2B2084B1A70000A01331870074A137843F001031370704700BF1440004010400040084000403E
:401080000240004001400040024A137803F0FE031370704720420040054A137803F0EF0313701032137803F0EF031370704700BFA0430040024A137843F01003137070471F
:4010C00000420040024A137803F0EF031370704700420040044A137803F0FC0300F0030018431070704700BF05400040014B1870704700BF0440004070B5054601F034F906
:401100000646164B1A78013B1B7843EA022305B1EBB9134B1C78E4B2062C02D80720FFF7E5FF45B90F4A137843F0400313702846FFF786FF07E02846FFF782FF094A1378F2
:4011400003F0BF0313702046FFF7D0FF02E02846FFF776FF304601F00BF970BD074000400440004008400040024A137843F004031370704700430040024A137803F0FB0390
:401180001370704700430040F8B5194A137843F00103137048B3174B1C7804F00404E4B280331F78FFB202331E78F6B2182000F027FE09E0104B1B7813F0010F04D00E4BC8
:4011C0001B7813F0010F07D1012000F001FE10F0010FEFD0102500E000250CB9FFF7CCFF064B1F7002331E7000E000252846F8BD2042004000430040254200408043004038
:40120000144A137843F0100313701032137843F010031370E0B170B50F4B1C7804F00404E4B280331E78F6B202331D78EDB2002000F0E6FD012000F0CBFD10F0010FF9D031
:401240000CB9FFF799FF054B1E7002331D7070BD704700BFA04300400043004080430040F0B583B08DF80700254A137843F001031370002840D0234B1E78F6B280331D78EB
:40128000EDB202331C78E4B2182000F0B9FD21E01B4B1B7804238DF806300BE0012000F097FD10F0010FF9D09DF80630013BDBB28DF806309DF8063013F0FF0FEED1104BC8
:4012C0001B7813F0800F0CD09DF80730013BDBB28DF807309DF8073013F0FF0FD8D1102700E0002716F0040F01D1FFF745FF064B1D7002331C7000E00027384603B0F0BD2F
:40130000104200400043004080430040024A137803F0FE03137070471042004001BE704710B50446FFF768FE012804D1254A137803F0FD031370082C3FD8DFE804F0050B99
:4013400011171D23293E2F001F4B1B78DBB21F4A137010BD1E4B1B78DBB21C4A137010BD1C4B1B78DBB2194A137010BD1A4B1B78DBB2164A137010BD184B1B78DBB2134A9E
:40138000137010BD164B1B78DBB2104A137010BD144B1B78DBB20D4A137010BD124B1B78DBB20A4A137001280AD102F5CB520832137843F00203137010BD0020FFF7AEFF10
:4013C00010BD00BF0960004008010049A1460040090100490A0100490B010049890100490C0100490D0100490F01004970B506463A4B1C7804F00704082801D1032500E0D7
:401400000546062C0BD8DFE804F0040D06080D0D0D00022406E0032404E0002402E00020FFF77CFFAC4202D83046FFF779FF082E44D8DFE806F0050D151B232B33433B00A1
:40144000264A137803F0B80343F00303137038E0224A137803F0B80343F00103137030E01E4A137803F0B80313702AE01B4A137803F0B80343F00203137022E0174A13780B
:4014800003F0B80343F0040313701AE0134A137803F0B80343F00503137012E00F4A137803F0B80343F0060313700AE00B4A137803F0B80343F04203137002E00020FFF7C5
:4014C0002DFF082E02D1FFF7F5FD01E0FFF7FAFDAC4202D93046FFF723FF70BD0042004008B501280FD0D8B102281FD14FF04022137803F0BF03137002F50072137843F008
:401500002003137008BD4FF04022137843F04003137002F50072137843F02003137008BD044A137803F0DF03137008BD0020FFF7F5FE08BD0042004010B5044605E0084BFC
:40154000186800F009FFA4F50044B4F5004FF6D8034B586800FB04F000F0FEFE10BD00BFD080FF1F08B5034B1B7A00FB03F000F0F3FE08BDD080FF1F0E4B1A7802F0FC02F0
:4015800000F00300104318701A7842F080021A701A7802F07F021A7049011A7801F0600102F09F02114319701A7842F010021A70704700BF834300400122014B1A707047D4
:4015C000844300402DE9F04FDFF8BCA19AF80020554B9A72DFF8B49199F80020DA72534A12781A73524A12785A73524A12789A73514A1278DA73514A12781A74504A1278C1
:401600005A74504A12789A744F4A1278DA744F4A12781A754E4A12785A754E4A12789A754D4A1278DA754D4A12781A764C4A12785A764C4A12789A76DFF854B19BF8002095
:40164000DA76DFF8508198F800201A77DFF848C19CF800205A77DFF844E19EF800209A77414F3A78DA77414E327883F82020404D2A7883F821203F4C227883F822203E482F
:40168000027883F823203D490A7883F824203C4A127883F8252000238AF8003089F80030224A137001321370023213700232137002321370063213700232137001321370E3
:4016C000013213700232137002321370023213700632137002321370013213708BF8003088F800308CF800308EF800303B7033702B70237003700B7017321370214B1B78E5
:4017000013F0080F0AD00122074B83F82F201D4A137803F0F7031370BDE8F08F0022024B83F82F20BDE8F08FCC81FF1F035A0040045A0040065A0040085A00400A5A004007
:40174000105A0040125A0040135A0040145A0040165A0040185A00401A5A0040205A0040225A0040235A0040305A0040325A0040335A0040345A0040365A0040385A00409C
:401780003A5A004022430040005A0040025A0040245A0040265A0040285A00402A5A0040334B997A334A1170D97A02321170197B01321170597B01321170997B0232117046
:4017C000D97B02321170197C02321170597C06321170997C02321170D97C01321170197D01321170597D02321170997D02321170D97D02321170197E06321170597E02322F
:401800001170997E01321170D97E01321170197F02321170597F02321170997F02321170D97F0632117093F820100232117093F821100132117093F822100132117093F8BD
:4018400023100232117093F824100232117093F825100232117093F82F30012B06D1A2F5B852183A137843F008031370704700BFCC81FF1F005A004010B5784A1378784C1A
:4018800003F00F0384F83030764B197884F83110117801F0F00111701A7800221A7003F25E431B7803F0C00384F83530372000F063FD6D4B1A7802F0070284F833201A7801
:4018C00002F0400284F834201B7813F0100F03D0012284F8392003E00022614B83F83920624B1B7803F003035D4A82F83230012B19D14FF040231B7803F00303012B07D0DC
:4019000013B1022B08D00BE00020FFF7E3FB0AE00220FFF7DFFB06E00320FFF7DBFB02E00020FFF7FBFC524B1B7813F0010F06D001224B4B83F83E20FFF7A6FB03E0002218
:40194000474B83F83E200420FFF750FD494B1B7813F0100F04D00122414B83F8362008E000203F4B83F83600FFF74AFC0620FFF7F9FD3D4B1B7813F0200F0FD04FF0402399
:401980001B7813F0400F01D1022200E00122344B83F837200020FFF7A3FD03E00022304B83F837204FF040231B7803F030032C4A82F838302BB14FF04022137803F0CF0370
:4019C0001370294B1B7813F0100F01D0FFF77AFB294B1B78DBB2224A82F83A3013B10020FFF784FB1E4B93F8323013B10020FFF771FB224B1B781B02194A938720490978A2
:401A00000B43938713B10020FFF776FB164B1B7803F007031B4AD05C00F0AEFC1A4B1B7813F0010F06D001220D4B83F83F20FFF76DFC03E000220A4B83F83F20134B1B781D
:401A400013F0040F04D00122054B83F8402010BD0022034B83F8402010BD00BFA1430040CC81FF1FA2430040004200400540004020420040A04300400440004007400040FF
:401A8000064000403C2D0000104200400B40004010B582B0854B53F8080F00909A889B79ADF804208DF80630814B93F84030012B10D1804B1B7803F007037C4AD05C00EB9B
:401AC0008000C0EB001000F047FC7B4A137843F004031370764B93F83F30012B1AD10020FFF7BEFB754B1B78052411E0714B1B7803F007036D4AD35CC82000FB03F000F065
:401B00002BFC6E4B1B7813F0800F03D0013CA4B2002CEBD1372000F02FFC654B93F83230023BDBB2012B0ED8654B1B78DBB2604A92F83A00834201D0FFF7D8FA5C4B93F899
:401B40003200FFF7C7FA5A4B93F8343013F0400F0CD0574B93F8333002AA134413F8083C032B03D10820FFF741FC18E0504C94F8333002AA134413F8080CFFF737FC94F821
:401B8000343013F0400F05D04A4A137843F04003137004E0474A137803F0BF031370444B93F83630012B07D1464B1B7813F0100F02D10020FFF724FB3D4C94F83700FFF736
:401BC0008FFC94F83930012B01D1FFF773FA384B93F838304FF04022127802F030029A4206D04FF040210A7802F0CF0213430B702F4B93F83E30012B1AD10020FFF7C4FA79
:401C00005020FFF7AFFC304B1B78AB240EE00120FFF7A8FC2C4B1B7813F0010F04D02A4B1B7813F0010F03D1013CA4B2002CEED11F4B93F83230012B0ED8214B1B78DBB2BA
:401C40001B4A92F83A00834201D0FFF74FFA184B93F83200FFF73EFA154B93F8363033B9184B1B7813F0100F01D0FFF715FA174B1A78013B1B7843EA02230D4A908F83429D
:401C800001D0FFF739FA12480278094B93F8351002F03F020A43027093F830100D4A117093F831200C4B1A7002B010BD3C2D0000CC81FF1F004200400B40004010420040EE
:401CC00004400040A0430040254200400740004000480040A1430040A243004070B506460C4600F041FB0546334B1B7813F0080F06D1324A137803F01F03137036B102E09A
:401D000000F036FB70BD0020FFF708FBFFF75AFC2B4A11782B4B1971C4F30711117001321178597104F00F011170013211789971C4F300341470244B1B7813F0070F04D172
:401D40000122204B83F82E200DE01E49002381F82E301D4B1A7802F0070281F82D201A7802F0F8021A70144A137803F0F80343F003031370137800BF00BF30BF114B93F889
:401D80002E30012B08D010490B780E4A92F82D2003F0F80313430B70FFF702FD094B1979074A11705979013211709A79074B1A70284600F0DDFA70BD934300408346004054
:401DC00098430040CC81FF1F004200409A43004038B5054600F0C8FA074B1978074A92F842300B4303F0070423EA050382F8423000F0BEFA204638BD90430040CC81FF1FD6
:401E000038B50546134C237803F0FD032370FFF7ABF9237813F0010F0FD00F4B1B78DBB2AB4216D0227802F0FE0222700A4A1570227842F00102227038BD074B1B78DBB2B7
:401E40009D4201D0044B1D70024A137843F00103137038BD8243004080430040024A137843F080031370704775650040024A137803F07F031370704775650040014B1870F3
:401E8000704700BF87650040014B1878704700BF67650040014B1878704700BF75650040014B1870704700BF75650040014B1860704700BF24650040014B1868704700BF0D
:401EC00044650040014B1860704700BF04650040024B1B78024B1868704700BF046500404465004008B501E0FFF7E6FFFFF7CCFF10F0080FF8D108BD10B50B4C2046FFF70A
:401F0000D5FF2046FFF7DEFF00F02EFA074A137843F01003137000F02BFAFFF7E3FF0020FFF7ACFF10BD00BF292C0A009765004008B5054B1B7823B9FFF7DEFF0122024B43
:401F40001A70FFF78BFF08BD0F82FF1F10B5FFF7BFFF044C6060044B1B782372FFF79AFF607210BD1082FF1F8765004010B5054C6068FFF7A7FF227A034B1A70607AFFF71B
:401F80008FFF10BD1082FF1F8765004008B5084B1B7813F0800F03D00122064B1A7002E00022044B1A70FFF761FFFFF7CFFF08BD756500401082FF1F08B5FFF7D7FF034B87
:401FC0001B78012B01D1FFF749FF08BD1082FF1F014B1B68D864704708ED00E04001C0B2014B1870704700BF03E400E00822014B1A60704700E100E00822014B1A60704733
:4020000080E100E010B50446FFF7F6FF2046FFF7DFFF0120FFF7E2FFFFF7E8FF10BD00BF7222074B1A700023064A13700621623A117047211032117050321370704700BF7A
:40204000896500408A65004010B500F08DF904460A4A137843F0200313700132137843F010031370023A137843F01003137000F079F8204600F07CF910BD00BF99650040B9
:4020800008B5054B1B7823B9FFF7CAFF0122024B1A70FFF7D9FF08BD1C82FF1F10B500F063F904460A4A137803F0DF03137000F067F8084A137803F0EF031370023A1378AF
:4020C00003F0EF031370204600F052F910BD00BF996500409A65004008B500F045F9064B1A7842F001021A701A7802F0FE021A7000F03EF908BD00BF9A65004008B500F09C
:4021000033F9064B1A7842F001021A701A7802F0FE021A7000F02CF908BD00BF9B65004008B5074B1B7813F0100F03D00122054B1A7002E00022034B1A70FFF7AFFF08BD11
:402140009A6500402082FF1F08B5FFF7C5FFFFF7D5FF034B1B780BB1FFF776FF08BD00BF2082FF1F054A137843F0010313701032137843F001031370704700BFA24300401D
:40218000054A137803F0FE0313701032137803F0FE031370704700BFA2430040014B1B685864704708ED00E04001C0B2014B1870704700BF01E400E00222014B1A60704775
:4021C00000E100E00222014B1A60704780E100E010B50446FFF7F6FF2046FFF7DFFF0720FFF7E2FFFFF7E8FF10BD00BF08B50F4B1B7813F0020F0ED100F0B6F80B4A137886
:4022000043F0020313708232137843F00403137000F0AEF808BD00F0A7F8054A137843F00403137000F0A4F808BD00BF004300408243004008B500F097F8044A137803F0C6
:40224000FB03137000F094F808BD00BF8243004008B500F089F8044A137843F00803137000F086F808BD00BF82430040064B1B7813F0040F07D1054A137803F0F00300F097
:402280000F00184310707047824300408143004008B50320FFF7EAFFFFF7DAFF08BD00BF08B5054B1B7823B9FFF7F2FF0122024B1A70FFF79BFF08BD2182FF1F08B5022010
:4022C000FFF786FD08BD00BF044A137803F0BF03800100F0400018431070704710510040044A137803F0F703C00000F0080018431070704700510040014B1B6818647047CC
:4023000008ED00E04001C0B2014B1870704700BF00E400E00122014B1A60704700E100E00122014B1A60704780E100E010B50446FFF7F6FF2046FFF7DFFF0720FFF7E2FF93
:40234000FFF7E8FF10BD00BF0122014B1A60704700E200E0000000000230800803D000BF01380046FCD17047EFF3108072B6704780F31088704700BF38B50446FFF7F4FF51
:4023800005460F2C07D81A4A137803F01F0343F04003137028E0202C07D8154A137803F01F0343F0800313701EE0312C07D8104A137803F01F0343F0C003137014E0422C41
:4023C00005D80B4A137803F01F0313700CE0532C07D8074A137803F01F0343F02003137002E00020FEF79AFF2846FFF7C1FF38BD00480040014B1868704700BF4081FF1F22
:402400000E4B70B51E460E4C0025E41AA410A54204D056F8253098470135F8E700F0B0FC084B094C1E46E41AA4100025A54204D056F8253098470135F8E770BD8C2D000080
:402440008C2D00008C2D0000942D000010B5431E0A44914204D011F8014B03F8014FF8E710BD03460244934202D003F8011BFAE7704700000EB400B54FF402719CB0ADF8BF
:4024800014106FF00041049107914FF6FF711DAB02900690084853F8042BADF81610006802A9019300F064F8029B00221A701CB05DF804EB03B070474081FF1F2DE9F0470F
:4024C0008E6882469E420C46914698463ED88A8912F4906F3AD02568096902236F1A656905EB450595FBF3F57B1C43449D4238BF1D4653050FD5294600F040FB064698B110
:402500003A462169FFF7A2FFA38923F4906343F08003A38113E02A4600F08EFB064670B92169504600F0DEFA0C23CAF80030A3894FF0FF3043F04003A381BDE8F0872661B9
:402540003E44266046466561ED1BA560464528BF464649463246206800F0A8FAA36800209B1BA36023681E442660BDE8F08700002DE9F04F9DB003938B8980461C060D46DB
:4025800016460DD50B695BB9402100F0F7FA2860286118B90C23C8F80030CDE040236B610023099320238DF82930DFF89CB130238DF82A3037463C4614F8013B1BB9B7EB43
:4025C000060910D003E0252BF9D02746F3E74B46324629464046FFF771FF013000F0A780099B4B4409933B78002B00F0A08000234FF0FF3204930793059206938DF8533044
:402600001A930126052221784E4800F041FA671C049B38B14B4A3C46801A06FA00F018430490EFE7D90644BF20228DF853201A0744BF2B228DF8532022782A2A03D0079AED
:4026400000210A200BE0039A111D12680391002A10DA524243F00200079204900BE027463B780134303B092B03D800FB02320121F5E701B107923B782E2B1ED17B782A2BCC
:402680000AD1039B02371A1D1B680392002BB8BF4FF0FF33059310E0002319460593781C0A2407463A780130303A092A03D804FB01210123F5E703B105910322397822484F
:4026C00000F0E6F940B14023CBEB000003FA00F0049B013718430490397806221B487E1C8DF8281000F0D4F988B1194B33B9039B073323F007030833039314E003AB00937A
:402700002A46144B04A94046AFF3008007E003AB00932A460F4B04A9404600F093F8B0F1FF3F824603D0099B5344099342E7AB895B0601D4099801E04FF0FF301DB0BDE88F
:40274000F08F00BF4D2D0000532D0000572D000000000000BD2400002DE9F04791461F460A698B6806469342B8BF1346C9F8003091F843200C46DDF8208012B10133C9F880
:4027800000302368990642BFD9F800300233C9F80030256815F0060510D104F1190A07E00123524639463046C04701301AD00135E368D9F800209B1A9D42F1DB94F8433076
:4027C0002268003318BF012392060FD5E118302081F843005A1C94F845102244023382F8431003E04FF0FF30BDE8F08704F1430239463046C0470130F4D02268D9F800509E
:40280000E36802F00602042A08BF5D1B2269A3680CBF25EAE57500259342C4BF9B1AED184FF000091A344D4509D00123224639463046C0470130D5D009F10109F3E7002088
:40284000BDE8F0872DE9F04317460A7E85B06E2A984606460C460C9B01F1430E00F0AE8011D8632A22D009D8002A00F0BB80582A40F0CA8081F84520834955E0642A1ED0C8
:40288000692A1CD0C0E0732A00F0B08009D86F2A2ED0702A40F0B8800A6842F020020A603EE0752A24D0782A3AD0ADE01A6801F14205111D1960136884F84230A8E02168CC
:4028C0001A6811F0800F02D0111D196008E011F0400F02F10401196002D0B2F9003000E01368002B3CDA2D225B4284F8432037E021681A6811F0800F02D0111D196007E07E
:4029000011F0400F02F10401196001D0138800E01368227E5C496F2A14BF0A2208221BE078225A4984F845202268186812F0800F00F104051D6003D1550601D5038800E06D
:402940000368D00744BF42F0200222601BB9226822F0200222601022002084F8430001E049490A226568002DA56008DB206820F0040020602BB9002D7DD175460CE0002B49
:4029800079D07546B3FBF2F002FB1033CB5C05F8013D03460028F5D1082A0BD12368DA0708D5236962689A42DEBF302305F8013C05F1FF35C5EB0E0323612EE008681A6888
:4029C00010F0800F496903D0101D1860136808E010F0400F02F104001860136801D0198000E0196000232361754616E01A68111D1960156800216268284600F049F808B17E
:402A0000401B6060636804E004F1420584F8422001232361002384F84330CDF800803B4603AA21463046FFF797FE013002D14FF0FF3026E023692A4639463046C04701307C
:402A4000F5D023689B0710D5002504F1190907E001234A4639463046C0470130E7D00135E368039A9B1A9D42F2DBE068039B9842B8BF184605E00B7804F1420584F842301E
:402A80008AE705B0BDE8F0835E2D00006F2D000010B5C9B202449042034605D01C7801308C42F8D1184610BD002010BD884210B501EB020301D8421E0BE09842FBD28118E3
:402AC000D21AD34204D013F8014D01F8014DF8E710BD994204D011F8014B02F8014FF8E710BD000038B50546002944D051F8043C0C1F002BB8BFE41800F0D4F81E4A136855
:402B0000114613B96360146030E0A3420DD92268A018834201BF18685B681218226063600C6023E0A24203D813465A68002AF9D118681918A1420BD1216801445818824238
:402B4000196013D110685268014419605A600DE002D90C232B6009E021686018824201BF106852680918216062605C602846BDE8384000F098B838BD2882FF1F70B5CD1C76
:402B800025F0030508350C2D38BF0C25002D064601DBA94202D90C23336046E000F082F8234B1C681A462146A1B10B685B1B0ED40B2B03D90B60CC18CD501EE08C420BBF03
:402BC00063684B681360636018BF0C4615E00C464968E9E7174C23681BB9304600F052F820602946304600F04DF8431C18D0C41C24F00304A0420DD12560304600F053F8EC
:402C000004F10B00231D20F00700C31A0ED05A42E25070BD211A304600F034F80130EBD10C233360304600F03EF8002070BD00BF2882FF1F2482FF1FF8B5074615460E462E
:402C400021B91146BDE8F840FFF798BF1AB9FFF749FF2846F8BD00F027F885420ED929463846FFF78BFF044650B131462A46FFF7EDFB31463846FFF735FF01E03046F8BD60
:402C80002046F8BD38B5064C0023054608462360FDF738FD431C02D1236803B12B6038BD2C82FF1F7047704751F8040C0028BEBF091851F8043CC0180438704700000000B4
:402CC00030784646207072652D6669780000000043726162733A2569204572723A256900676F6F64000000005374617274696E67204D6F64756C652100000000636F756EB0
:402D000074696E672063726162732E2E2E000000405100403000F0510040100000000140001000140140000800400140000A004C0140000200500140200000000C061803F4
:402D4000303E4A00020103000405064300232D302B2000686C4C00656667454647003031323334353637383941424344454600303132333435363738396162636465660050
:402D8000F8B500BFF8BC08BC9E4670474D00000081070000F8B500BFF8BC08BC9E46704729000000B82D0000C880FF1F80000000E800000000000000000000003082FF1F94
:402DC0000000E02EC05D00001800000000366E0100000000000000000000000000000000000000000000000000000000000000004B2D000000000000000000000000000073
:402E0000000000000000000000000000000000000000000000000000000000000000000000000000000000000000000000000000E080FF1F00000000000000000000000014
:402E40000000000000000000000000000000000000000000000000000000000000000000000000000000000000000000000000000000000000000000000000000000000052
:402E80000000000000000000000000000000000000000000000000000000000000000000000000000000000000000000000000000000000000000000000000000000000012
:402EC00000000000000000000000000000000000000000000000000000000000000000000000000000000000000000000000000000000000000000000000000000000000D2
:402F00000000000000000000000000000000000000000000000000000000000000000000000000000000000000000000000000000000000000000000000000000000000091
:020000040003F7
:0200000480007A
:400000000752004002640040046500403E020140170301403A0401401E05014041060140240701406108014032090140010B0140020D01402D1401401015014032160140F1
:40004000141701404C180140431901405E1A01404B1B0140044001400D4101400742014007430140034401400245014001460140014701400848014010490140034C01406D
:40008000074D01400C500140015101400102080409041810195861806440870D890D870D880F89728A3818021A012401260230033E0141044403450B46B0480949FF4AFF87
:4000C0004BFF4CEF4D554E704F48501C560858045A045B045D925F0161086308650867086850690A6A406BA86CC06E406FA8C105C403C9FFCAFFCBFFCCEFCD55CE72CF48AD
:40010000D01CD201DA04DB04DD22DF01E108E308E508E708E850E90AEA40EBA8ECC0EE40EFA80F08142017081E804020470A48014F0857105F806401670268016B02831085
:40014000C240C420D0C2D208D610D810E604EA080F011B0135014105440249FF4AFF4BFF4CEF4D554E724F48501C590B5A045C905D025F0161086308650867086850690AD2
:400180006A406BA86CC06E406FA8C104C403C50DC60EC7CFC835C9FFCAFFCBFFCCEACD55CEF2CF48D01CDA04DB04DD22DF01E108E308E508E708E850E90AEA40EBA8ECC0F6
:4001C000EE40EFA821202308302038404120470A48014F04564857025E026648670478017A017B02930298019B029F08A001A240AF80CC04CE08D0C4D208D680D870DE0122
:40020000030131014010410649FF4AFF4BFF4DA04F045018528059085A085B085C905D995F01604062C06440654066C068C06AC06CC06EC08F0197019B02A502A601B20191
:40024000B301B702BF04C040C106C5D0C610C702C81AC9FFCAFFCBFFCDAFCE0FCF04D018D405D80BD90BDA0BDB0BDC99DD99DF01E040E2C0E440E540E6C0E8C0EAC0ECC01D
:40028000EEC01020190822442440278029083020320838403C024040478049014A084E085020520859015A88740178017F019302944098019B08A240A420C404CA02CC06FF
:4002C000CE88D011D224D60BDE1101010201050206010806100419011C062A022F01300131033406382039023E10404649FF4AFF4BFF4F0150185280580459045A045B0453
:400300005C015D115F016040624064406540668068806A806C806E80841C8622870888278A188B018C048D07903F9106930195069623980899029D049E04A010A101A306D6
:40034000A818A907AC1CAE21AF08B107B41FB638B708BAA2BF40C046C5ECC702C813C9FFCAFFCBFFCD83CE03CF01D018D401D804D904DA04DB04DD11DF01E040E240E4401E
:40038000E540E680E880EA80EC80EE8001400328040805100640081009800B900E4110891604188019A01A081B201D201F01208022402740288029202A402E4030B935108A
:4003C00038883B903D083E014280464049054A084C045004520859055A8076C09702C077C29FC44BCA1DCC2FCECED081D224D60B97028301EA08404549FF4AFF4BFF4F01F5
:4004000050185A045D095F016040624064406540668068806A806C806E808F01AF01B301C045C9FFCAFFCBFFCD83CE03CF01D018D280D904DA04DB04DC90DD99DF01E04018
:40044000E240E440E540E680E880EA80EC80EE8027202C023E804280468048024C02768083209E80A002CA10CE10D081D218E602404549FF4AFF4BFF4D834E034F0150183F
:400480005A045D095F016040624064406540668068806A806C806E809301AF01B701BF40C045C5ECC720C823C9FFCAFFCBFFCD83CE03CF01D018D401D904DA04DB04DD995F
:4004C000DF01E040E240E440E540E680E880EA80EC80EE8022402A80300242804680480249054C02500259055A80B240B308CA08CC01D081D218D60BEA20EE8004180660E7
:4005000008580A250C160E611C581D011E2326022A692E063040343C350136073AA03E013F104002464049FF4A074BFF4C404D204EF04F0550085401580459045A045B04C5
:400540005F01604061A86240632085028633882289028C118D05903F9102940C95049633970198339A0C9C33A008A404A80CA905AC0FAD04AE30AF01B030B302B40FB504B0
:40058000B701B980BA20BF10D602D711D804D904DB04DF01000801400208044005180608072008040A060B800E0110A91624174019211A041D101E8122102311270828019E
:4005C00029A02B082C402E01300632043680388039943B80452048044B10550456245A205D015E805F286802691470A89080920895409641971099809B409C819D109E048A
:40060000A040A120A4A8A584A708C0E7C28FC4EFCA0CCC13CE0ED020D6F4012203D1056709670A010E0111011202130E1544173122023107336034023518360137803E503C
:400640003F104036410142044402450C460E480549FF4AFF4BFF4C624DA04EF04F41500C54185604580459045A045B045F016640670269106A306B106D106E106F1281140B
:40068000821885108610870C88028A0C8C188E06910993109703A002A10CA21CA311A401A910AA06AD1CAF02B01EB51FB601BA02BE40C023C104C5ECC7B0C823C9FFCAFF0B
:4006C000CBFFCEF0CF44D00CD804D904DA04DF01E6C0EA40EB0200A0030104400502062807400B801301144016041708180419401C401E422198220927082C402E60310848
:40070000320135023708380239143E083F024150430944404504460848104B104D094E80534057015901600461406340820187408C018D409194931194409541964298407F
:4007400099019A2C9B409D08A040A104A308A580A688B080B120C0F3C208C478CAB0CCC3CEC7D0EFD204D601D80DE401311033083784CCF00A0458108110834093109D107B
:400780009F84A708AF10C240D480E6A0EA1093109B409C109F84A708AE04E840278093109B409C109F84A708C88029202A20CA089920AE2099209920931098109B409F04EA
:4007C000A208A708B010B20852085B406310641083048708931098109B409F04A208A708D4A0D8C0E280E6405D209920D6041280700480048E80C408DC01E2020007010140
:40080000080409010A040B010C03100111011B011C011D0100FB0000403A3A0002000100800040808000800000000000004F4F0004000000007F7F0000000000005C5C00B5
:400840005C0000000000000000000000000000000000000000000000000000000000000000000000000000000000000000000000000000000000000000000000000000001C
:400880000000000000000000000000000000000000000000000000000000000000000000000000000000000000000000000000000000000000000000000000000000000038
:4008C00000000000000000000000000000000000000000000000000000000000000000000000000000000000000000000000000000000000000000000000000000000000F8
:4009000000000000000000000000000000000000000000000000000000000000000000000000000000000000000000000000000000000000000000000000000000000000B7
:400940000000000000000000000000000000000000000000000000000000000000000000000000000000000000000000000000000000000000000000000000000000000077
:0200000490006A
:0400000000004005B7
:0200000490105A
:04000000BC90ACAF55
:0200000490303A
:02000000E11607
:0200000490402A
:4000000000000000000000000000000000000000000000000000000000000000000000000000000000000000000000000000000000000000000000000000000000000000C0
:400040000000000000000000000000000000000000000000000000000000000000000000000000000000000000000000000000000000000000000000000000000000000080
:400080000000000000000000000000000000000000000000000000000000000000000000000000000000000000000000000000000000000000000000000000000000000040
:4000C0000000000000000000000000000000000000000000000000000000000000000000000000000000000000000000000000000000000000000000000000000000000000
:0200000490501A
:0C00000000012E16106900012E29F17F6E
:00000001FF