:4000000000800020110000007D0600007D06000008B5044B1A6803F53F5302331A6000F04DFB00BFFA46004010B5054C237833B9044B13B10448AFF300800123237010BD29
:400040005081FF1F00000000442B0000084B10B51BB108490848AFF300800848036803B910BD074B002BFBD0BDE81040184700BF000000005481FF1F442B0000C880FF1F14
:40008000000000000C4B1A6801321A605B68012B06D1094B002119609A6801329A605960054B1B68082B05D1034B00221A609A6801329A60704700BF6C81FF1F08B501F0FA
:4000C00079FA08BD38B5012002F044F8234B1B78DBB213F01E0F05D0214803F01E02017B0A43027303F0200303F0FF046BB31C4D01236B7300F0A6FBC0B21A4B18702B7B14
:40010000BBB9194B18700021084600F0F1FD174D144B1A781649284602F0F0F8154800F075FD0021084600F0E3FD284600F06EFD0BE000F0F1FE0D4D094B1A7B0E4928467D
:4001400002F0DCF8284600F061FD002CBED100F0E9FE002001F0FEFF38BD00BF696400406C81FF1FCC80FF1F456500401482FF1F482B0000542B0000642B000008B501F05A
:40018000BBFF01F017FA054A136901331361052B02DD0022014B1A6108BD00BF6C81FF1F08B501F073FC00F08FFB00F011FB054800F0A4FE02F00CF801F0ECFF00F0ACFEAB
:4001C00008BD00BFC500000007291CD8DFE801F004070A0D10131619C0F3C01313E0C0F3801310E0C0F340130DE0C0F300130AE0C0F3C00307E0C0F3800304E0C0F34003A7
:4002000001E000F001031846704700BF064B1A7802F00100002304E0520802F0010148400133072BF8DD7047CC80FF1F08B500F089FD01F0BFFE00F023FC00F039FE00F0FF
:40024000F3FD08BD08B500F071FD00F003FC00F019FE01F099FE00F023FB01F0DFFE00F08FFE00F05FFE01F005FB08BDF8B55F4800F044FE62B60021032001F07BF901F09C
:4002800055FE5B4801F0BCFE00F0A2FA00F018FD00F0A4FB00F0C8FD564800F063FE564801F04AFF0021084600F022FD534800F0ADFC0021084600F01BFD514800F0A6FCAD
:4002C00000252C464F4B1B7B13B100224D4B1A734C4B9B68032B20D8DFE803F002091118484B1968FF20FFF76FFF044666E0454B1968454B1878FFF767FF04465EE001221F
:40030000404B5A60FFF782FF044657E03D4B19680120FFF759FF044650E03A4B5A6901325A6100225A730135082D00D1154600F0E1FA00F019FD002000F028FE142001F0A6
:40034000F9F8002000F02EFE2E4B5B69022B08DD01F0C4FEFFF776FF4FF40061002001F0BBFC284B5B69022B13DD284801F018FF0022244B5A6101E001F01CF9214B5B7B36
:40038000002BF9D001F01AFF01F072FEFFF74EFF03E04FF47A7001F0CDF8012000F0F6FD142001F0C7F8012000F0FCFD154E0027376000F013FB00F037FDB760012C0BD180
:4003C000012000F0EFFD00F009FB162000F0AAFA0B2000F0ADFA75E7002C7FF473AF00F089FA002000F0DEFD6CE700BFC5000000BD000000850000007D010000682B0000DB
:40040000802B00006C81FF1FCC80FF1FA1010000FEE700BFF0B40022174611E050F82760F3B226F0FF0608E001EB420511F812406D78A5550132013BDBB2002BF4D101373A
:40044000222FEBD9F0BC7047064B1B78DBB203F00701054A11701B09013213704422034B1A707047CF0100496E5800407658004008B50A46002101F038FF08BD08B501F003
:4004800029FF08BD38B51722324B1A80182332490B7002310A8002310B7002310A8002310B7002310A802D4A13704FF49C71023211800232137045F6BF5102321180023244
:4004C0001370042226492748FFF7D8FF0222264B1A7008224FF040231A70032103F500731970224B1B78DBB221490B70214B1A8041F25122023B1A80002419250CE01E4B6F
:400500001B7803F0010343EA440404F003044FF4F07001F065FE013D0DB1032CEFD115B90320FFF775FF154B4FF480721A8007221A70002212490A704820023108701A700E
:400540000222033B1A700F4A137843F03F03137038BD00BF80400040824000408E40004048090048004100400043004008010049A14600402242004025420040044000400A
:4005800006400040A243004038B572B600240CE02A4D630019194A0011462A44084691882858FFF765FF0134E4B2062CF0D924494FF09040FFF72EFF224A137843F002037B
:4005C00013701032137843F0020313701E4C237843F040032370A2F58632513A137843F010031370082219491948FFF747FF0A2218491948FFF742FF082218491848FFF785
:400600003DFF082217491848FFF738FF174A137843F008031370164D61232B70FFF732FF81232B700122134B1A70FFF70DFF0E2221461148FFF722FF38BD00BF882B000057
:400640008C00004803500140A043004024090048025100402C090048C051004038090048125100404009004822510040224300400048004004000840B043004008B501F04F
:40068000FDFD03680C2B00D1FEE7FEE708B5094B1A681044084BC31AB3F5407F02DC054B186005E001F0EAFD0C2303604FF0FF32104608BDD480FF1F3082FF1F08B5104EA8
:4006C000104D16E029686B68AC68002204E051F8040B43F8040B0432A242F8D1E868002203E0002143F8041B04328242F9D11035013E002EE6D101F0C7FDFFF7B7FDFEE763
:40070000010000001C2C000008B5104A104B1A60104A136843F40073136000230AE0032B03D80D4A52F8231000E00C490C4A42F8231001332F2BF2D90A4B1A780A4B1A7091
:40074000074A0A4B1A60FFF71FFF08BD0004FA050CED00E014ED00E0000000007D0600000080FF1FBC760040C080FF1F08ED00E07222084B1A703E22A3F580731A700622EF
:400780009D331A70472210331A7002224F331A70704700BF8965004010B501F029FD04460A4A137843F020031370A2F58072137843F010031370FC32137843F01003137098
:4007C00000F0FCFB204601F017FD10BD9965004008B5054B1B7823B9FFF7CAFF0122024B1A70FFF7D9FF08BD8881FF1F10B501F0FFFC04460A4A137803F0DF03137000F08B
:40080000EBFB084A137803F0EF031370FC32137803F0EF031370204601F0EEFC10BD00BF9965004099640040014B1878704700BF49640040024B187800F07F00704700BF23
:400840006964004010B5FFF7F5FF0402FFF7ECFF204380B210BD00BF08B501F0C9FC064B1A7842F001021A701A7802F0FE021A7001F0C2FC08BD00BF9964004008B501F073
:40088000B7FC064B1A7842F001021A701A7802F0FE021A7001F0B0FC08BD00BF9565004008B5074B1B7813F0100F03D00122054B1A7002E00022034B1A70FFF797FF08BDB9
:4008C000996400408C81FF1F08B5FFF7C5FFFFF7D5FF034B1B780BB1FFF75EFF08BD00BF8C81FF1F024A137843F080031370704774650040024A137803F07F03137070474A
:4009000074650040014B1870704700BF07650040024B1B78024B1878704700BF1765004057650040014B1870704700BF47650040014B1870704700BF27650040014B18709D
:40094000704700BF87650040014B1878704700BF67650040014B1878704700BF74650040014B1870704700BF74650040014B1878704700BF5765004008B501E0FFF7F6FFD2
:40098000FFF7E2FF10F0100FF8D108BD10B5114A137803F0C00343F0090313700E4C237843F001032370FF20FFF7ACFFFF20FFF7B9FF7F20FFF7BCFF0020FFF7BFFF01F02F
:4009C00017FC237843F01003237001F015FCFFF7D3FF10BD746500409765004008B5054B1B7823B9FFF7D2FF0122024B1A70FFF779FF08BD8D81FF1F014B1878704700BF96
:400A00004765004010B5FFF7F7FF064CA070FFF77FFF6070044B1B78E370FFF79BFF207110BD00BF9081FF1F8765004010B5074CA078FFF777FF6078FFF764FFE278044BC0
:400A40001A702079FFF78CFF10BD00BF9081FF1F8765004008B5084B1B7813F0800F03D00122064B1A7002E00022044B1A70FFF741FFFFF7C7FF08BD746500409081FF1F09
:400A800008B5FFF7D3FF034B1B780BB1FFF72AFF08BD00BF9081FF1F10B50B4C237803F09F032370237803F0F00323702378184340F010002070012000F052FD237803F09B
:400AC000EF03237010BD00BF2051004038B505460E4C237843F020032370237803F0BF032370002000F03CFD237803F0F003237023781D4345F010052570012000F030FDC6
:400B0000237803F0EF03237038BD00BF2051004070B5354B1A7802F08002D2B21A7033490A7802F0F00242F00F020A7001310A7802F0F0020A7001310A7802F0F0020A70C1
:400B40001A7802F0DF021A701A7842F040021A704FF4CA76002000F003FD234D2B7843F010032B70012000F0FBFC214B1C78E4B22B7803F0EF032B70002000F0F1FC04F0BD
:400B80000804E4B22B7843F010032B70012000F0E7FC2B7803F0EF032B7014B90A2000F0DFFC013E0CB1002ED4D10F4A137803F0BF031370137803F08003DBB21370023206
:400BC000137803F0F00313700132137803F0F00343F00F0313700132137803F0F00343F00F03137070BD00BF20510040225100402151004010B50446FFF78AFF2009FFF77A
:400C000065FF04F00F00FFF761FF10BD38B505460078012404E0FFF7EDFF285D0134E4B20028F8D138BD00BF10B50446FFF770FF2009FFF731FF04F00F00FFF72DFF10BDE5
:400C400008B5282000F076FC0320FFF725FF052000F070FC0320FFF71FFF0F2000F06AFC0320FFF719FF012000F064FC0220FFF713FF052000F05EFC0620FFF7D5FF0E203A
:400C8000FFF7D2FF2C20FFF7CFFF0820FFF7CCFF0120FFF7C9FF0C20FFF7C6FF0320FFF7C3FF052000F046FC08BD00BF08B50C20FFF7BAFF0122014B1A7008BD9581FF1F6E
:400CC00008B5054B5B7823B9FFF7BAFF0122024B5A70FFF7EBFF08BD9581FF1F08B50820FFF7A2FF0022014B1A7008BD9581FF1F08B5032819D8DFE800F002070D1381F0DF
:400D00008000FFF791FF08BDA1F14000C0B2FFF78BFF08BDA1F16C00C0B2FFF785FF08BDA1F12C00C0B2FFF77FFF08BD08B5034B1A78034B1A70FFF7D1FF08BD9581FF1F13
:400D40009881FF1F08B5034B1B78012B01D1FFF7ADFF08BD9881FF1F024A137843F080031370704777640040024A137803F07F031370704777640040014B1870704700BF35
:400D800087640040014B1878704700BF67640040014B1878704700BF77640040014B1870704700BF77640040014B1880704700BF4C680040014B188880B270478C68004082
:400DC000014B1880704700BF0C680040024B1B78024B188880B27047066400408C68004008B501E0FFF7E6FFFFF7CCFF10F0080FF8D108BD08B540F2F310FFF7D5FF40F284
:400E0000F310FFF7DDFF01F0F3F9064A137843F01003137001F0F0F9FFF7E2FF0120FFF7ABFF08BD9764004008B5054B1B7823B9FFF7E0FF0122024B1A70FFF78DFF08BD58
:400E40009981FF1F10B5FFF7C1FF044C6080044B1B782371FFF79CFF607110BD9C81FF1F8764004010B5054C6088FFF7A9FF2279034B1A706079FFF791FF10BD9C81FF1F0E
:400E80008764004008B5084B1B7813F0800F03D00122064B1A7002E00022044B1A70FFF763FFFFF7CFFF08BD776400409C81FF1F08B5FFF7D7FF034B1B78012B01D1FFF78F
:400EC0004BFF08BD9C81FF1F014B1B689864704708ED00E04001C0B2014B1870704700BF02E400E00422014B1A60704700E100E00422014B1A60704780E100E010B5044637
:400F0000FFF7F6FF2046FFF7DFFF0720FFF7E2FFFFF7E8FF10BD00BF0422014B1A60704700E200E00422014B1A60704780E200E0014B1B68D864704708ED00E04001C0B291
:400F4000014B1870704700BF03E400E00822014B1A60704700E100E00822014B1A60704780E100E010B50446FFF7F6FF2046FFF7DFFF0720FFF7E2FFFFF7E8FF10BD00BF75
:400F80000822014B1A60704780E200E0044A137803F07F03C001C0B218431070704700BF10510040044A137803F0FE0300F0010018431070704700BF00510040054A13785B
:400FC00043F0100313701032137843F010031370704700BFA2430040054A137803F0EF0313701032137803F0EF031370704700BFA24300400E4B1B7813F0070F04D10D4BB3
:401000001B7813F0010F0CD1094B1B7803F00703012B08D1084B1B7813F0010F05D10020704701207047002070470120704700BF93430040A5430040B54300400C4A137801
:4010400003F0F003137000220A4B1A700A4A137843F080031370C2B2084B1A70000A01331870074A137843F001031370704700BF144000401040004008400040024000409D
:4010800001400040024A137803F0FE031370704720420040054A137803F0EF0313701032137803F0EF031370704700BFA0430040024A137843F0100313707047004200401F
:4010C000024A137803F0EF031370704700420040044A137803F0FC0300F0030018431070704700BF05400040014B1870704700BF0440004070B5054601F07AF80646164B96
:401100001A78013B1B7843EA022305B1EBB9134B1C78E4B2062C02D80720FFF7E5FF45B90F4A137843F0400313702846FFF786FF07E02846FFF782FF094A137803F0BF03EA
:4011400013702046FFF7D0FF02E02846FFF776FF304601F051F870BD074000400440004008400040024A137843F004031370704700430040024A137803F0FB0313707047C6
:4011800000430040F8B5194A137843F00103137048B3174B1C7804F00404E4B280331F78FFB202331E78F6B2182000F027FE09E0104B1B7813F0010F04D00E4B1B7813F06C
:4011C000010F07D1012000F001FE10F0010FEFD0102500E000250CB9FFF7CCFF064B1F7002331E7000E000252846F8BD20420040004300402542004080430040144A1378E5
:4012000043F0100313701032137843F010031370E0B170B50F4B1C7804F00404E4B280331E78F6B202331D78EDB2002000F0E6FD012000F0CBFD10F0010FF9D00CB9FFF75F
:4012400099FF054B1E7002331D7070BD704700BFA04300400043004080430040F0B583B08DF80700254A137843F001031370002840D0234B1E78F6B280331D78EDB20233D2
:401280001C78E4B2182000F0B9FD21E01B4B1B7804238DF806300BE0012000F097FD10F0010FF9D09DF80630013BDBB28DF806309DF8063013F0FF0FEED1104B1B7813F006
:4012C000800F0CD09DF80730013BDBB28DF807309DF8073013F0FF0FD8D1102700E0002716F0040F01D1FFF745FF064B1D7002331C7000E00027384603B0F0BD1042004033
:401300000043004080430040024A137803F0FE03137070471042004001BE704710B50446FFF768FE012804D1254A137803F0FD031370082C3FD8DFE804F0050B11171D23C3
:40134000293E2F001F4B1B78DBB21F4A137010BD1E4B1B78DBB21C4A137010BD1C4B1B78DBB2194A137010BD1A4B1B78DBB2164A137010BD184B1B78DBB2134A137010BDB6
:40138000164B1B78DBB2104A137010BD144B1B78DBB20D4A137010BD124B1B78DBB20A4A137001280AD102F5CB520832137843F00203137010BD0020FFF7AEFF10BD00BFD4
:4013C0000960004008010049A1460040090100490A0100490B010049890100490C0100490D0100490F01004970B506463A4B1C7804F00704082801D1032500E00546062CE6
:401400000BD8DFE804F0040D06080D0D0D00022406E0032404E0002402E00020FFF77CFFAC4202D83046FFF779FF082E44D8DFE806F0050D151B232B33433B00264A137823
:4014400003F0B80343F00303137038E0224A137803F0B80343F00103137030E01E4A137803F0B80313702AE01B4A137803F0B80343F00203137022E0174A137803F0B80358
:4014800043F0040313701AE0134A137803F0B80343F00503137012E00F4A137803F0B80343F0060313700AE00B4A137803F0B80343F04203137002E00020FFF72DFF082E11
:4014C00002D1FFF7F5FD01E0FFF7FAFDAC4202D93046FFF723FF70BD0042004008B501280FD0D8B102281FD14FF04022137803F0BF03137002F50072137843F020031370C4
:4015000008BD4FF04022137843F04003137002F50072137843F02003137008BD044A137803F0DF03137008BD0020FFF7F5FE08BD0042004010B5044605E0084B186800F032
:401540004FFEA4F50044B4F5004FF6D8034B586800FB04F000F044FE10BD00BFD880FF1F08B5034B1B7A00FB03F000F039FE08BDD880FF1F0E4B1A7802F0FC0200F003008C
:40158000104318701A7842F080021A701A7802F07F021A7049011A7801F0600102F09F02114319701A7842F010021A70704700BF834300400122014B1A70704784430040C0
:4015C0002DE9F04FDFF8BCA19AF80020554B9A72DFF8B49199F80020DA72534A12781A73524A12785A73524A12789A73514A1278DA73514A12781A74504A12785A74504A60
:4016000012789A744F4A1278DA744F4A12781A754E4A12785A754E4A12789A754D4A1278DA754D4A12781A764C4A12785A764C4A12789A76DFF854B19BF80020DA76DFF8D6
:40164000508198F800201A77DFF848C19CF800205A77DFF844E19EF800209A77414F3A78DA77414E327883F82020404D2A7883F821203F4C227883F822203E48027883F861
:4016800023203D490A7883F824203C4A127883F8252000238AF8003089F80030224A1370013213700232137002321370023213700632137002321370013213700132137022
:4016C0000232137002321370023213700632137002321370013213708BF8003088F800308CF800308EF800303B7033702B70237003700B7017321370214B1B7813F0080F81
:401700000AD00122074B83F82F201D4A137803F0F7031370BDE8F08F0022024B83F82F20BDE8F08FA481FF1F035A0040045A0040065A0040085A00400A5A0040105A00409F
:40174000125A0040135A0040145A0040165A0040185A00401A5A0040205A0040225A0040235A0040305A0040325A0040335A0040345A0040365A0040385A00403A5A004072
:4017800022430040005A0040025A0040245A0040265A0040285A00402A5A0040334B997A334A1170D97A02321170197B01321170597B01321170997B02321170D97B023292
:4017C0001170197C02321170597C06321170997C02321170D97C01321170197D01321170597D02321170997D02321170D97D02321170197E06321170597E02321170997E1F
:4018000001321170D97E01321170197F02321170597F02321170997F02321170D97F0632117093F820100232117093F821100132117093F822100132117093F823100232EE
:40184000117093F824100232117093F825100232117093F82F30012B06D1A2F5B852183A137843F008031370704700BFA481FF1F005A004010B5784A1378784C03F00F03A4
:4018800084F83030764B197884F83110117801F0F00111701A7800221A7003F25E431B7803F0C00384F83530372000F0A9FC6D4B1A7802F0070284F833201A7802F040028D
:4018C00084F834201B7813F0100F03D0012284F8392003E00022614B83F83920624B1B7803F003035D4A82F83230012B19D14FF040231B7803F00303012B07D013B1022B1F
:4019000008D00BE00020FFF7E3FB0AE00220FFF7DFFB06E00320FFF7DBFB02E00020FFF7FBFC524B1B7813F0010F06D001224B4B83F83E20FFF7A6FB03E00022474B83F8FC
:401940003E200420FFF750FD494B1B7813F0100F04D00122414B83F8362008E000203F4B83F83600FFF74AFC0620FFF7F9FD3D4B1B7813F0200F0FD04FF040231B7813F010
:40198000400F01D1022200E00122344B83F837200020FFF7A3FD03E00022304B83F837204FF040231B7803F030032C4A82F838302BB14FF04022137803F0CF031370294B0F
:4019C0001B7813F0100F01D0FFF77AFB294B1B78DBB2224A82F83A3013B10020FFF784FB1E4B93F8323013B10020FFF771FB224B1B781B02194A9387204909780B43938731
:401A000013B10020FFF776FB164B1B7803F007031B4AD05C00F0F4FB1A4B1B7813F0010F06D001220D4B83F83F20FFF76DFC03E000220A4B83F83F20134B1B7813F0040F2A
:401A400004D00122054B83F8402010BD0022034B83F8402010BD00BFA1430040A481FF1FA2430040004200400540004020420040A0430040044000400740004006400040B7
:401A8000B42B0000104200400B40004010B582B0854B53F8080F00909A889B79ADF804208DF80630814B93F84030012B10D1804B1B7803F007037C4AD05C00EB8000C0EB80
:401AC000001000F08DFB7B4A137843F004031370764B93F83F30012B1AD10020FFF7BEFB754B1B78052411E0714B1B7803F007036D4AD35CC82000FB03F000F071FB6E4B26
:401B00001B7813F0800F03D0013CA4B2002CEBD1372000F075FB654B93F83230023BDBB2012B0ED8654B1B78DBB2604A92F83A00834201D0FFF7D8FA5C4B93F83200FFF70C
:401B4000C7FA5A4B93F8343013F0400F0CD0574B93F8333002AA134413F8083C032B03D10820FFF741FC18E0504C94F8333002AA134413F8080CFFF737FC94F8343013F0E2
:401B8000400F05D04A4A137843F04003137004E0474A137803F0BF031370444B93F83630012B07D1464B1B7813F0100F02D10020FFF724FB3D4C94F83700FFF78FFC94F886
:401BC0003930012B01D1FFF773FA384B93F838304FF04022127802F030029A4206D04FF040210A7802F0CF0213430B702F4B93F83E30012B1AD10020FFF7C4FA5020FFF72A
:401C0000AFFC304B1B78AB240EE00120FFF7A8FC2C4B1B7813F0010F04D02A4B1B7813F0010F03D1013CA4B2002CEED11F4B93F83230012B0ED8214B1B78DBB21B4A92F831
:401C40003A00834201D0FFF74FFA184B93F83200FFF73EFA154B93F8363033B9184B1B7813F0100F01D0FFF715FA174B1A78013B1B7843EA02230D4A908F834201D0FFF7C5
:401C800039FA12480278094B93F8351002F03F020A43027093F830100D4A117093F831200C4B1A7002B010BDB42B0000A481FF1F004200400B4000401042004004400040E3
:401CC000A0430040254200400740004000480040A1430040A243004070B506460C4600F087FA0546334B1B7813F0080F06D1324A137803F01F03137036B102E000F07CFA73
:401D000070BD0020FFF708FBFFF75AFC2B4A11782B4B1971C4F30711117001321178597104F00F011170013211789971C4F300341470244B1B7813F0070F04D10122204B05
:401D400083F82E200DE01E49002381F82E301D4B1A7802F0070281F82D201A7802F0F8021A70144A137803F0F80343F003031370137800BF00BF30BF114B93F82E30012B8D
:401D800008D010490B780E4A92F82D2003F0F80313430B70FFF702FD094B1979074A11705979013211709A79074B1A70284600F023FA70BD9343004083460040984300407D
:401DC000A481FF1F004200409A43004038B5054600F00EFA074B1978074A92F842300B4303F0070423EA050382F8423000F004FA204638BD90430040A481FF1F38B505467D
:401E0000134C237803F0FD032370FFF7ABF9237813F0010F0FD00F4B1B78DBB2AB4216D0227802F0FE0222700A4A1570227842F00102227038BD074B1B78DBB29D4201D03F
:401E4000044B1D70024A137843F00103137038BD8243004080430040024A137843F080031370704778650040024A137803F07F031370704778650040014B1870704700BF27
:401E80008B650040014B1878704700BF6B650040014B1878704700BF78650040014B1870704700BF78650040014B1860704700BF28650040014B1868704700BF4865004084
:401EC000014B1860704700BF08650040024B1B78024B1868704700BF086500404865004008B501E0FFF7E6FFFFF7CCFF10F0080FF8D108BD10B50B4C2046FFF7D5FF2046AD
:401F0000FFF7DEFF00F074F9074A137843F01003137000F071F9FFF7E3FF0120FFF7ACFF10BD00BF54A0FC019B65004008B5054B1B7823B9FFF7DEFF0122024B1A70FFF7DC
:401F40008BFF08BDE781FF1F10B5FFF7BFFF044C6060044B1B782372FFF79AFF607210BDE881FF1F8B65004010B5054C6068FFF7A7FF227A034B1A70607AFFF78FFF10BD8E
:401F8000E881FF1F8B65004008B5084B1B7813F0800F03D00122064B1A7002E00022044B1A70FFF761FFFFF7CFFF08BD78650040E881FF1F08B5FFF7D7FF034B1B78012B6E
:401FC00001D1FFF749FF08BDE881FF1F014B1B681865704708ED00E04001C0B2014B1870704700BF04E400E01022014B1A60704700E100E01022014B1A60704780E100E088
:4020000010B50446FFF7F6FF2046FFF7DFFF0720FFF7E2FFFFF7E8FF10BD00BF1022014B1A60704780E200E008B50F4B1B7813F0020F0ED100F0DCF80B4A137843F002039B
:4020400013708232137843F00403137000F0D4F808BD00F0CDF8054A137843F00403137000F0CAF808BD00BF004300408243004008B500F0BDF8044A137803F0FB031370A7
:4020800000F0BAF808BD00BF8243004008B500F0AFF8044A137843F00803137000F0ACF808BD00BF82430040064B1B7813F0040F07D1054A137803F0F00300F00F001843FE
:4020C00010707047824300408143004008B50A20FFF7EAFFFFF7DAFF08BD00BF08B5054B1B7823B9FFF7F2FF0122024B1A70FFF79BFF08BDF481FF1F08B50220FFF766FE09
:4021000008BD00BF014B1B685864704708ED00E04001C0B2014B1870704700BF01E400E00222014B1A60704700E100E00222014B1A60704780E100E010B50446FFF7F6FF04
:402140002046FFF7DFFF0720FFF7E2FFFFF7E8FF10BD00BF044A137803F0FD03400000F0020018431070704700510040014B1B681864704708ED00E04001C0B2014B18703F
:40218000704700BF00E400E00122014B1A60704700E100E00122014B1A60704780E100E010B50446FFF7F6FF2046FFF7DFFF0720FFF7E2FFFFF7E8FF10BD00BF08B5FFF755
:4021C000E9FF0248FFF7D2FF08BD00BF7D0600000122014B1A60704780E200E0000000000230800803D000BF01380046FCD17047EFF3108072B6704780F31088704700BFDC
:4022000038B50446FFF7F4FF05460F2C07D81A4A137803F01F0343F04003137028E0202C07D8154A137803F01F0343F0800313701EE0312C07D8104A137803F01F0343F04A
:40224000C003137014E0422C05D80B4A137803F01F0313700CE0532C07D8074A137803F01F0343F02003137002E00020FFF754F82846FFF7C1FF38BD00480040014B18689C
:40228000704700BF4881FF1F0E4B70B51E460E4C0025E41AA410A54204D056F8253098470135F8E700F0A8FC084B094C1E46E41AA4100025A54204D056F825309847013572
:4022C000F8E770BD042C0000042C0000042C00000C2C000010B5431E0A44914204D011F8014B03F8014FF8E710BD03460244934202D003F8011BFAE7704700000EB400B547
:402300004FF402719CB0ADF814106FF00041049107914FF6FF711DAB02900690084853F8042BADF81610006802A9019300F064F8029B00221A701CB05DF804EB03B0704715
:402340004881FF1F2DE9F0478E6882469E420C46914698463ED88A8912F4906F3AD02568096902236F1A656905EB450595FBF3F57B1C43449D4238BF1D4653050FD529461D
:4023800000F040FB064698B13A462169FFF7A2FFA38923F4906343F08003A38113E02A4600F08EFB064670B92169504600F0DEFA0C23CAF80030A3894FF0FF3043F0400342
:4023C000A381BDE8F08726613E44266046466561ED1BA560464528BF464649463246206800F0A8FAA36800209B1BA36023681E442660BDE8F08700002DE9F04F9DB00393E5
:402400008B8980461C060D4616460DD50B695BB9402100F0F7FA2860286118B90C23C8F80030CDE040236B610023099320238DF82930DFF89CB130238DF82A3037463C4633
:4024400014F8013B1BB9B7EB060910D003E0252BF9D02746F3E74B46324629464046FFF771FF013000F0A780099B4B4409933B78002B00F0A08000234FF0FF32049307933F
:40248000059206938DF853301A930126052221784E4800F041FA671C049B38B14B4A3C46801A06FA00F018430490EFE7D90644BF20228DF853201A0744BF2B228DF8532099
:4024C00022782A2A03D0079A00210A200BE0039A111D12680391002A10DA524243F00200079204900BE027463B780134303B092B03D800FB02320121F5E701B107923B787C
:402500002E2B1ED17B782A2B0AD1039B02371A1D1B680392002BB8BF4FF0FF33059310E0002319460593781C0A2407463A780130303A092A03D804FB01210123F5E703B116
:40254000059103223978224800F0E6F940B14023CBEB000003FA00F0049B013718430490397806221B487E1C8DF8281000F0D4F988B1194B33B9039B073323F007030833F0
:40258000039314E003AB00932A46144B04A94046AFF3008007E003AB00932A460F4B04A9404600F093F8B0F1FF3F824603D0099B5344099342E7AB895B0601D4099801E026
:4025C0004FF0FF301DB0BDE8F08F00BFC52B0000CB2B0000CF2B000000000000452300002DE9F04791461F460A698B6806469342B8BF1346C9F8003091F843200C46DDF891
:40260000208012B10133C9F800302368990642BFD9F800300233C9F80030256815F0060510D104F1190A07E00123524639463046C04701301AD00135E368D9F800209B1A49
:402640009D42F1DB94F843302268003318BF012392060FD5E118302081F843005A1C94F845102244023382F8431003E04FF0FF30BDE8F08704F1430239463046C0470130E4
:40268000F4D02268D9F80050E36802F00602042A08BF5D1B2269A3680CBF25EAE57500259342C4BF9B1AED184FF000091A344D4509D00123224639463046C0470130D5D099
:4026C00009F10109F3E70020BDE8F0872DE9F04317460A7E85B06E2A984606460C460C9B01F1430E00F0AE8011D8632A22D009D8002A00F0BB80582A40F0CA8081F84520C9
:40270000834955E0642A1ED0692A1CD0C0E0732A00F0B08009D86F2A2ED0702A40F0B8800A6842F020020A603EE0752A24D0782A3AD0ADE01A6801F14205111D19601368CF
:4027400084F84230A8E021681A6811F0800F02D0111D196008E011F0400F02F10401196002D0B2F9003000E01368002B3CDA2D225B4284F8432037E021681A6811F0800F60
:4027800002D0111D196007E011F0400F02F10401196001D0138800E01368227E5C496F2A14BF0A2208221BE078225A4984F845202268186812F0800F00F104051D6003D12B
:4027C000550601D5038800E00368D00744BF42F0200222601BB9226822F0200222601022002084F8430001E049490A226568002DA56008DB206820F0040020602BB9002D4F
:402800007DD175460CE0002B79D07546B3FBF2F002FB1033CB5C05F8013D03460028F5D1082A0BD12368DA0708D5236962689A42DEBF302305F8013C05F1FF35C5EB0E036D
:4028400023612EE008681A6810F0800F496903D0101D1860136808E010F0400F02F104001860136801D0198000E0196000232361754616E01A68111D1960156800216268D3
:40288000284600F049F808B1401B6060636804E004F1420584F8422001232361002384F84330CDF800803B4603AA21463046FFF797FE013002D14FF0FF3026E023692A46D3
:4028C00039463046C0470130F5D023689B0710D5002504F1190907E001234A4639463046C0470130E7D00135E368039A9B1A9D42F2DBE068039B9842B8BF184605E00B789D
:4029000004F1420584F842308AE705B0BDE8F083D62B0000E72B000010B5C9B202449042034605D01C7801308C42F8D1184610BD002010BD884210B501EB020301D8421E79
:402940000BE09842FBD28118D21AD34204D013F8014D01F8014DF8E710BD994204D011F8014B02F8014FF8E710BD000038B50546002944D051F8043C0C1F002BB8BFE4184A
:4029800000F0D4F81E4A1368114613B96360146030E0A3420DD92268A018834201BF18685B681218226063600C6023E0A24203D813465A68002AF9D118681918A1420BD11D
:4029C0002168014458188242196013D110685268014419605A600DE002D90C232B6009E021686018824201BF106852680918216062605C602846BDE8384000F098B838BDCC
:402A0000FC81FF1F70B5CD1C25F0030508350C2D38BF0C25002D064601DBA94202D90C23336046E000F082F8234B1C681A462146A1B10B685B1B0ED40B2B03D90B60CC188E
:402A4000CD501EE08C420BBF63684B681360636018BF0C4615E00C464968E9E7174C23681BB9304600F052F820602946304600F04DF8431C18D0C41C24F00304A0420DD1F0
:402A80002560304600F053F804F10B00231D20F00700C31A0ED05A42E25070BD211A304600F034F80130EBD10C233360304600F03EF8002070BD00BFFC81FF1FF881FF1F7D
:402AC000F8B5074615460E4621B91146BDE8F840FFF798BF1AB9FFF749FF2846F8BD00F027F885420ED929463846FFF78BFF044650B131462A46FFF7EDFB31463846FFF779
:402B000035FF01E03046F8BD2046F8BD38B5064C0023054608462360FDF7B8FD431C02D1236803B12B6038BD2C82FF1F7047704751F8040C0028BEBF091851F8043CC01868
:402B4000043870470000000043726162733A2025640000002020202020202020202020202000000025640000202020202020202020202020202020202020202000000000EB
:402B800048656C6C6F000000305100404000F0510040100000000140001000140140000800400140000A004C0140000200500140200000000C061803303E4A00020103002B
:402BC0000405064300232D302B2000686C4C006566674546470030313233343536373839414243444546003031323334353637383961626364656600F8B500BFF8BC08BCAC
:402C00009E4670474D00000009070000F8B500BFF8BC08BC9E46704729000000302C0000C880FF1F88000000E0000000000000000000000001000000020000003082FF1FF7
:402C40000000E02EC05D00001800000000366E010000000000000000000000000000000000000000000000000000000000000000C32B00000000000000000000000000007E
:402C8000000000000000000000000000000000000000000000000000000000000000000000000000000000000000000000000000E880FF1F0000000000000000000000008E
:402CC00000000000000000000000000000000000000000000000000000000000000000000000000000000000000000000000000000000000000000000000000000000000D4
:402D00000000000000000000000000000000000000000000000000000000000000000000000000000000000000000000000000000000000000000000000000000000000093
:402D40000000000000000000000000000000000000000000000000000000000000000000000000000000000000000000000000000000000000000000000000000000000053
:402D80000000000000000000000000000000000000000000000000000000000000000000000000000000000000000000000000000000000000000000000000000000000013
:020000040003F7
:0200000480007A
:400000000452004005640040046500404D060140280701403C08014029090140430A01401F0B01403F0C01401E0D01403F0E0140200F01403B140140321501404D16014031
:4000400034170140521801402D190140581A01403B1B0140064001400441014004420140094301400144014003450140024601400347014003480140034901400A4C014084
:40008000094D01400C500140025101400860092061806440870D89388B0D8D0D8F0D850F870D89728B0D010C020203030A060F081203130319011B061E012A052B0C2C0629
:4000C0002D012E012F0E3007310F3A023B02401449FF4AFF4BFF4F015018580459045A045C445D055F016040624064406540668068806A806C806E80820192019301AF019F
:40010000B601B701BF40C041C5ECC602C807C9FFCAFFCBFFCD83CE03CF01D018D280D401D804D904DA04DB04DC05DD55DF01E040E240E440E540E680E880EA80EC80EE80A7
:4001400002400520068009020E4217501A021EC02240250127402A402D202E402F083102360137103D823E8041424640478049055140524059055A8071027380C058C2980C
:40018000C4C0CA38CCA1CE90D099D60BE210E60281078506860189028A048C028F1094029501970699079A049D069E029F01A201A308A602A701AB10AD04B001B118B202C8
:4001C000B404B507B808BE11BF01C032C104C206C405C5CEC803C9FFCAFFCBFFCC62CDA0CEF0CF41D00CD418D604D804D904DA04DB04DC44DD44DF01E640E702E910EA3077
:40020000EB10ED10EE10EF1200180301084009080B08109018141B012008220229602BA030503108324038683902411D432148844A024B08590160046342850287408D2026
:400240009902C007C207C40CCA0FCC0ECE0FD007D20CD601D80DE210E4080A0226022E01300232014030410249FF4AFF4BFF4DA04F045018528058045A045B045C035D33CC
:400280005F01604062C06440654066C068C06AC06CC06EC08B019A01A702AB01AC01B001B102B501BF10C020C103C5D1C620C80BC9FFCAFFCBFFCDAFCE0FCF04D018D405B4
:4002C000D804D904DA04DB04DC33DD33DF01E040E2C0E440E540E6C0E8C0EAC0ECC0EEC000100C2010221780181019021B081E8027882C242F083E20401041204404462030
:400300004C204D01552056205D015E805F087002C002C240C485CA60CE20D066D6D04060410249FF4AFF4BFF4DA04F0450185A045D025F01604062C06440654066C068C026
:400340006AC06CC06EC08602870292019B01A101A606AB02B004B302B401B602B701BF04C020C106C5D1C702C813C9FFCAFFCBFFCDAFCE0FCF04D018D280D405D804D90439
:40038000DA04DB04DC22DD22DF01E040E2C0E440E540E6C0E8C0EAC0ECC0EEC0000409021020180419221B902244292230203A0440044604482849014F2050085204590107
:4003C0005A8871028B80C004C208C404CA05CC04CE02D024D224D60B16012A0136014030410249FF4AFF4BFF4DA04F04501858045A045F01604062C06440654066C068C0EB
:400400006AC06CC06EC08A029604A602AB01AD01AE01B004B201B402B701BE10C030C102C5D0C620C701C81AC9FFCAFFCBFFCDAFCE0FCF04D018D280D405D804D904DA04B5
:40044000DB04DF01E040E2C0E440E540E6C0E8C0EAC0ECC0EEC0041009080C081008162017401B801C101D081E081F0226402C082F024010412045284D01540855205620D1
:400480005D015E8877408380C040C224C4A2CA30D066D6D0E40401012E01300131013F015280580459045B045C015D105F01801C81018242841088208B018C4C8E11920396
:4004C0009409961099019C809F01A014A850AA0CAF01B01FB101B2C0B420B808BE10BF01C025C104C6CBC70EC81CC9FFCAFFCBFFCEF0CF44D00CD401D804D904DA04DB04F5
:40050000DC04DD44DF01E6C0EA40EB02061407410E600F0210021640171019021E681F09220227802D802F0237503B023C103D023F20450347114D80566457105C105E082D
:400540005F817002820483018E029A109B509D029E20A102A303A708AB08C0F0C2B0C451CA10CC30CEA1D0A0D210D6F0E602E8040002030509030B0410031103130419030B
:400580001B0C1E0128032B082D0A2F04330F340338203B083E104002460449FF4A074BFF4C404D204EF04F055008580459045A045C405D045F01604061A8624063208702AE
:4005C00088029B01A303A603B201B302B501B602BF04C010C106C5D1C702C813C9FFCAFFCBFFCDA0CF04D018D405D804D904DA04DB04DC11DD11DF01E040E2C0E440E54084
:40060000E6C0E8C0EAC0ECC0EEC00010068007400C010D020E820F0210201710181019801D2022042308271029022A022E802F0830203401371038083E203F024202452061
:4006400048284901500C5540570359815A08854086109B409F10A240A540A601A708AE01C012C290C444CA31CCA4CEA2D028D204D60B404349FF4AFF4BFF4F0150185280EA
:400680005A045B045D995F016040624064406540668068806A806C806E808064810F821885108660882989108A868C608D109260950C9A609B029C609D0D9F02A052A10397
:4006C000A205A30CA41FA50DA702A81FA904AD08B060B280B301B403B510B61CB70EBB80BF04C043C9FFCAFFCBFFCD83CE03CF01D018D602D712D804D904DA04DB04DC44C8
:40070000DD49DF01E040E240E440E540E680E880EA80EC80EE80000401200201038008500A801114128019011A101BA0200421102254285029462A103108325039563A0162
:4007400042A046A05A0869547014714876808C408E808F209468952A96809C109D61A780C00FC20BC40ECA0FCC0ECE0FD0C3D6020007021806030703080409040D0F101C36
:4007800011031201130C150C160419021C1C1D0F1E02201021032408250C2703281829012C1F2D08321F330F3A083B0A404349FF4AFF4BFF4D834E034F015018580459044A
:4007C0005A045C445D095F016040624064406540668068806A806C806E8086018B01A201AF01B201B701BF40C043C5ECC620C80BC9FFCAFFCBFFCD83CE03CF01D018D401D2
:40080000D804D904DA04DB04DC09DD99DF01E040E240E440E540E680E880EA80EC80EE8000040122062009800A9012581340168019041F08210522042340264029642A4057
:400840002B802E80300231083248332038243A103B403E2042A046A04D044F0156205D045E805F0181848502860487088802892490249290950A99409A809D269E30A1086C
:40088000A3A0C02EC20DC41FCA1FCC0FCE2ED0C3D6D0E410E8043240330837823B40CCF0CE10968097409F82A708968097409F82A708278087088E40968097409F82A708C6
:4008C000C880E64081108B019910E0019910A30187049910A3019740AF02EE4087409740E64053045F086302651093089910A301D404D603D8011010798088108D40AB0809
:40090000C408DC01E204E408003D01010A300C180D010E05101211011A121B011C101D0100FB0103000303000000000080004080800080000000000000F7F7007400000011
:40094000007F7F0000000000010014010000000000000000000000000000000000000000000000000000000000000000000000000000000000000000000000000000000063
:400980000000000000000000000000000000000000000000000000000000000000000000000000000000000000000000000000000000000000000000000000000000000037
:4009C00000000000000000000000000000000000000000000000000000000000000000000000000000000000000000000000000000000000000000000000000000000000F7
:400A000000000000000000000000000000000000000000000000000000000000000000000000000000000000000000000000000000000000000000000000000000000000B6
:400A40000000000000000000000000000000000000000000000000000000000000000000000000000000000000000000000000000000000000000000000000000000000076
:0200000490006A
:0400000000004005B7
:0200000490105A
:04000000BC90ACAF55
:0200000490303A
:02000000C41921
:0200000490402A
:4000000000000000000000000000000000000000000000000000000000000000000000000000000000000000000000000000000000000000000000000000000000000000C0
:400040000000000000000000000000000000000000000000000000000000000000000000000000000000000000000000000000000000000000000000000000000000000080
:400080000000000000000000000000000000000000000000000000000000000000000000000000000000000000000000000000000000000000000000000000000000000040
:4000C0000000000000000000000000000000000000000000000000000000000000000000000000000000000000000000000000000000000000000000000000000000000000
:0200000490501A
:0C00000000012E16106900012E29D48288
:00000001FF