:400000000080002011000000490500004905000008B5044B1A6803F53F5302331A6000F0B3FA00BFFA46004010B5054C237833B9044B13B10448AFF300800123237010BD2E
:400040005081FF1F0000000050170000084B10B51BB108490848AFF300800848036803B910BD074B002BFBD0BDE81040184700BF000000005481FF1F50170000C880FF1F24
:40008000000000000C4B1A6801321A605B68012B06D1094B002119609A6801329A605960054B1B68082B05D1034B00221A609A6801329A60704700BF6C81FF1F07291CD884
:4000C000DFE801F004070A0D10131619C0F3C01313E0C0F3801310E0C0F340130DE0C0F300130AE0C0F3C00307E0C0F3800304E0C0F3400301E000F001031846704700BF6C
:40010000064B1A7802F00100002304E0520802F0010148400133072BF8DD7047CC80FF1FF8B562B600F0B8FA00F04CFC00F028FB00F06CFD00F0DCFD00F04CFE00F0C0FCF6
:400140005B4800F0E5FC522000F00AFD292000F00DFD162000F076FD0B2000F079FD1A2000F0E2FD0D2000F0E5FD0021084600F037FC504800F0CCFB0021084600F030FCC1
:400180004D4800F0C5FB00252C464C4B1B7B13B100224A4B1A73494B9B68032B20D8DFE803F002091118454B1968FF20FFF786FF044665E0414B1968414B1878FFF77EFFAD
:4001C00004465DE001223D4B5A60FFF799FF044656E03A4B19680120FFF770FF04464FE0364A13690133136100211175022B0ADD324B1961324A13785B00137001354FF44C
:40020000FA6000F00FFE062D03DD01222C4B1A7000250021084600F0E3FB2A4E284B1A782949304600F070FE284800F071FB0021084600F0D5FB304600F06AFB00F042FA19
:4002400000F0F4FB002000F071FC142000F0EAFD002000F0CDFD4FF47A7000F0E3FD012000F064FC142000F0DDFD012000F0C0FD124E0027376000F083FA00F021FCB76054
:40028000012C0BD1012000F0B3FD00F079FA162000F026FA0B2000F029FA76E7002C7FF474AF00F00FFA002000F0A2FD6DE700BF85000000541700006C1700006C81FF1F35
:4002C000CC80FF1FB081FF1F7417000080170000FEE700BFF0B40022174611E050F82760F3B226F0FF0608E001EB420511F812406D78A5550132013BDBB2002BF4D1013763
:400300001C2FEBD9F0BC7047064B1B78DBB203F00701054A11701B09013213704422034B1A707047CF0100496E5800407658004008B50A46002100F0DEFD08BD08B500F0A8
:40034000CFFD08BD38B51722314B1A80182331490B7002310A8002310B7002310A8002310B7002310A802C4A13701925023215800232137045F6BF5102321180023213706F
:40038000042226492648FFF7D9FF0222254B1A7008224FF040231A70032103F500731970214B1B78DBB221490B70214B1A8041F25122023B1A8000240CE01E4B1B7803F0ED
:4003C000010343EA440404F003044FF4F07000F04BFD013D0DB1032CEFD115B90320FFF777FF154B4FF480721A8007221A70002212490A704820023108701A700222033B8E
:400400001A700F4A137843F03F03137038BD00BF80400040824000408E400040EC070048004100400043004008010049A14600402242004025420040044000400640004085
:40044000A243004038B572B600240CE02C4D630019194A0011462A44084691882858FFF767FF0134E4B2062CF0D926494FF09040FFF730FF244A137843F002031370103273
:40048000137843F002031370204C237843F040032370A2F58632513A137843F01003137008221B491B48FFF749FF0A221A491B48FFF744FF08221A491A48FFF73FFF082211
:4004C00019491A48FFF73AFF082219491948FFF735FF194A137843F008031370174D61232B70FFF72FFF81232B700122144B1A70FFF70AFF0E2221461248FFF71FFF38BD58
:40050000901700007400004803500140A0430040C007004802510040C8070048C0510040D407004812510040DC07004822510040E4070048325100402243004000480040D0
:4005400004000840B043004008B500F09DFC03680C2B00D1FEE7FEE708B5094B1A681044084BC31AB3F5407F02DC054B186005E000F08AFC0C2303604FF0FF32104608BDDD
:40058000D480FF1FD081FF1F08B5104E104D16E029686B68AC68002204E051F8040B43F8040B0432A242F8D1E868002203E0002143F8041B04328242F9D11035013E002EA3
:4005C000E6D100F067FCFFF7ABFDFEE7010000001418000008B5104A104B1A60104A136843F40073136000230AE0032B03D80D4A52F8231000E00C490C4A42F8231001334D
:400600002F2BF2D90A4B1A780A4B1A70074A0A4B1A60FFF717FF08BD0004FA050CED00E014ED00E000000000490500000080FF1FBC760040C080FF1F08ED00E07222074BAA
:400640001A703E2203331A7006229F331A70472210331A7000224F331A7070478864004010B500F009FC04460A4A137843F0200313700332137843F010031370FE32137805
:4006800043F01003137000F0BFFB204600F0F8FB10BD00BF9864004008B5054B1B7823B9FFF7CCFF0122024B1A70FFF7D9FF08BD8881FF1F024A137843F0800313707047FE
:4006C0007E640040024A137803F07F03137070477E640040014B1870704700BF0D640040014B1870704700BF4D640040014B1870704700BF2D640040014B1870704700BF95
:400700008D640040014B1878704700BF6D640040014B1878704700BF5D64004008B501E0FFF7F6FFFFF7EEFF10F0100FF8D108BD10B5114A137803F0C00343F00903137096
:400740000E4C237843F001032370FF20FFF7C2FFFF20FFF7C5FF7F20FFF7C8FF0020FFF7CBFF00F089FB237843F01003237000F087FBFFF7D3FF10BD7E6400409D6400407D
:4007800008B5054B1B7823B9FFF7D2FF0122024B1A70FFF78FFF08BD8A81FF1F10B50B4C237803F09F032370237803F0F00323702378184340F010002070012000F048FB7D
:4007C000237803F0EF03237010BD00BF3051004038B505460E4C237843F020032370237803F0BF032370002000F032FB237803F0F003237023781D4345F010052570012054
:4008000000F026FB237803F0EF03237038BD00BF3051004070B5354B1A7802F08002D2B21A7033490A7802F0F00242F00F020A7001310A7802F0F0020A7001310A7802F00F
:40084000F0020A701A7802F0DF021A701A7842F040021A704FF4CA76002000F0F9FA234D2B7843F010032B70012000F0F1FA214B1C78E4B22B7803F0EF032B70002000F04E
:40088000E7FA04F00804E4B22B7843F010032B70012000F0DDFA2B7803F0EF032B7014B90A2000F0D5FA013E0CB1002ED4D10F4A137803F0BF031370137803F08003DBB203
:4008C00013700232137803F0F00313700132137803F0F00343F00F0313700132137803F0F00343F00F03137070BD00BF30510040325100403151004010B50446FFF78AFFB5
:400900002009FFF765FF04F00F00FFF761FF10BD38B505460078012404E0FFF7EDFF285D0134E4B20028F8D138BD00BF10B50446FFF770FF2009FFF731FF04F00F00FFF7C2
:400940002DFF10BD08B5282000F06CFA0320FFF725FF052000F066FA0320FFF71FFF0F2000F060FA0320FFF719FF012000F05AFA0220FFF713FF052000F054FA0620FFF782
:40098000D5FF0E20FFF7D2FF2C20FFF7CFFF0820FFF7CCFF0120FFF7C9FF0C20FFF7C6FF0320FFF7C3FF052000F03CFA08BD00BF08B50C20FFF7BAFF0122014B1A7008BDAF
:4009C0008B81FF1F08B5054B5B7823B9FFF7BAFF0122024B5A70FFF7EBFF08BD8B81FF1F08B5032819D8DFE800F002070D1381F08000FFF79BFF08BDA1F14000C0B2FFF720
:400A000095FF08BDA1F16C00C0B2FFF78FFF08BDA1F12C00C0B2FFF789FF08BD024A137843F08003137070477A640040024A137803F07F03137070477A640040014B1870D4
:400A4000704700BF89640040014B1878704700BF69640040014B1880704700BF50680040014B188880B2704790680040014B1880704700BF1068004008B501E0FFF7F0FF80
:400A8000FFF7E2FF10F0080FF8D108BD08B540F2F310FFF7DFFF40F2F310FFF7E7FF00F0EBF9064A137843F01003137000F0E8F9FFF7E2FF0120FFF7C1FF08BD99640040EA
:400AC00008B5054B1B7823B9FFF7E0FF0122024B1A70FFF7A3FF08BD8D81FF1F014B1B685864704708ED00E04001C0B2014B1870704700BF01E400E00222014B1A607047A8
:400B000000E100E00222014B1A60704780E100E010B50446FFF7F6FF2046FFF7DFFF0720FFF7E2FFFFF7E8FF10BD00BF044A137803F07F03C001C0B218431070704700BFA5
:400B400010510040024A137843F080031370704772640040014B1880704700BF04680040014B1880704700BF84680040014B1880704700BF44680040014B1870704700BFDB
:400B800083640040014B1878704700BF63640040014B188880B27047A468004008B501E0FFF7F6FFFFF7EEFF10F0100FF8D108BD10B5144A137803F0C00343F00903137055
:400BC0002032137843F0010313700F4C237843F0010323705220FFF7BDFF5220FFF7C0FF2920FFF7C3FF0020FFF7C6FF00F044F9237843F01003237000F042F9FFF7CEFFE8
:400C000010BD00BF726400409364004008B5054B1B7823B9FFF7CCFF0122024B1A70FFF791FF08BD8E81FF1F024A137843F08003137070477F640040014B1880704700BFE8
:400C40001C680040014B1880704700BF9C680040014B1880704700BF5C680040014B1870704700BF8F640040014B1878704700BF6F640040014B188880B27047BC68004099
:400C800008B501E0FFF7F6FFFFF7EEFF10F0100FF8D108BD10B5144A137803F0C00343F0090313701F32137843F0010313700F4C237843F0010323701620FFF7BDFF162081
:400CC000FFF7C0FF0B20FFF7C3FF0020FFF7C6FF00F0D2F8237843F01003237000F0D0F8FFF7CEFF10BD00BF7F6400409F64004008B5054B1B7823B9FFF7CCFF0122024B39
:400D00001A70FFF791FF08BD8F81FF1F024A137843F08003137070477C640040014B1880704700BF14680040014B1880704700BF94680040014B1880704700BF54680040C7
:400D4000014B1870704700BF8C640040014B1878704700BF6C640040014B188880B27047B468004008B501E0FFF7F6FFFFF7EEFF10F0100FF8D108BD08B5144A137803F0B4
:400D8000C00343F0090313701E32137843F0010313700132137843F0010313701B20FFF7BDFF1B20FFF7C0FF0D20FFF7C3FF0020FFF7C6FF00F060F8054A137843F010039C
:400DC000137000F05DF8FFF7CDFF08BD7C6400409C64004008B5054B1B7823B9FFF7CCFF0122024B1A70FFF791FF08BD9081FF1F044A137803F0BF03800100F040001843F9
:400E00001070704720510040054A137843F0100313701032137843F010031370704700BFA243004010B5044605E0084B186800F01BF8A4F50044B4F5004FF6D8034B58687B
:400E400000FB04F000F010F810BD00BFD880FF1F08B5034B1B7A00FB03F000F005F808BDD880FF1F000000000230800803D000BF01380046FCD17047EFF3108072B6704733
:400E800080F31088704700BF014B1868704700BF4881FF1F0E4B70B51E460E4C0025E41AA410A54204D056F8253098470135F8E700F09EFC084B094C1E46E41AA4100025B6
:400EC000A54204D056F8253098470135F8E770BDFC170000FC170000FC1700000418000010B5431E0A44914204D011F8014B03F8014FF8E710BD03460244934202D003F886
:400F0000011BFAE7704700000EB400B54FF402719CB0ADF814106FF00041049107914FF6FF711DAB02900690084853F8042BADF81610006802A9019300F064F8029B002202
:400F40001A701CB05DF804EB03B070474881FF1F2DE9F0478E6882469E420C46914698463ED88A8912F4906F3AD02568096902236F1A656905EB450595FBF3F57B1C434411
:400F80009D4238BF1D4653050FD5294600F040FB064698B13A462169FFF7A2FFA38923F4906343F08003A38113E02A4600F08EFB064670B92169504600F0DEFA0C23CAF8B2
:400FC0000030A3894FF0FF3043F04003A381BDE8F08726613E44266046466561ED1BA560464528BF464649463246206800F0A8FAA36800209B1BA36023681E442660BDE868
:40100000F08700002DE9F04F9DB003938B8980461C060D4616460DD50B695BB9402100F0F7FA2860286118B90C23C8F80030CDE040236B610023099320238DF82930DFF816
:401040009CB130238DF82A3037463C4614F8013B1BB9B7EB060910D003E0252BF9D02746F3E74B46324629464046FFF771FF013000F0A780099B4B4409933B78002B00F0B9
:40108000A08000234FF0FF3204930793059206938DF853301A930126052221784E4800F041FA671C049B38B14B4A3C46801A06FA00F018430490EFE7D90644BF20228DF8A5
:4010C00053201A0744BF2B228DF8532022782A2A03D0079A00210A200BE0039A111D12680391002A10DA524243F00200079204900BE027463B780134303B092B03D800FBE4
:4011000002320121F5E701B107923B782E2B1ED17B782A2B0AD1039B02371A1D1B680392002BB8BF4FF0FF33059310E0002319460593781C0A2407463A780130303A092AAA
:4011400003D804FB01210123F5E703B1059103223978224800F0E6F940B14023CBEB000003FA00F0049B013718430490397806221B487E1C8DF8281000F0D4F988B1194B70
:4011800033B9039B073323F007030833039314E003AB00932A46144B04A94046AFF3008007E003AB00932A460F4B04A9404600F093F8B0F1FF3F824603D0099B5344099333
:4011C00042E7AB895B0601D4099801E04FF0FF301DB0BDE8F08F00BFBC170000C2170000C617000000000000510F00002DE9F04791461F460A698B6806469342B8BF1346F3
:40120000C9F8003091F843200C46DDF8208012B10133C9F800302368990642BFD9F800300233C9F80030256815F0060510D104F1190A07E00123524639463046C04701306A
:401240001AD00135E368D9F800209B1A9D42F1DB94F843302268003318BF012392060FD5E118302081F843005A1C94F845102244023382F8431003E04FF0FF30BDE8F0874E
:4012800004F1430239463046C0470130F4D02268D9F80050E36802F00602042A08BF5D1B2269A3680CBF25EAE57500259342C4BF9B1AED184FF000091A344D4509D0012380
:4012C000224639463046C0470130D5D009F10109F3E70020BDE8F0872DE9F04317460A7E85B06E2A984606460C460C9B01F1430E00F0AE8011D8632A22D009D8002A00F0B8
:40130000BB80582A40F0CA8081F84520834955E0642A1ED0692A1CD0C0E0732A00F0B08009D86F2A2ED0702A40F0B8800A6842F020020A603EE0752A24D0782A3AD0ADE0AB
:401340001A6801F14205111D1960136884F84230A8E021681A6811F0800F02D0111D196008E011F0400F02F10401196002D0B2F9003000E01368002B3CDA2D225B4284F8AC
:40138000432037E021681A6811F0800F02D0111D196007E011F0400F02F10401196001D0138800E01368227E5C496F2A14BF0A2208221BE078225A4984F845202268186806
:4013C00012F0800F00F104051D6003D1550601D5038800E00368D00744BF42F0200222601BB9226822F0200222601022002084F8430001E049490A226568002DA56008DBB4
:40140000206820F0040020602BB9002D7DD175460CE0002B79D07546B3FBF2F002FB1033CB5C05F8013D03460028F5D1082A0BD12368DA0708D5236962689A42DEBF302379
:4014400005F8013C05F1FF35C5EB0E0323612EE008681A6810F0800F496903D0101D1860136808E010F0400F02F104001860136801D0198000E0196000232361754616E053
:401480001A68111D1960156800216268284600F049F808B1401B6060636804E004F1420584F8422001232361002384F84330CDF800803B4603AA21463046FFF797FE013099
:4014C00002D14FF0FF3026E023692A4639463046C0470130F5D023689B0710D5002504F1190907E001234A4639463046C0470130E7D00135E368039A9B1A9D42F2DBE06823
:40150000039B9842B8BF184605E00B7804F1420584F842308AE705B0BDE8F083CD170000DE17000010B5C9B202449042034605D01C7801308C42F8D1184610BD002010BDCB
:40154000884210B501EB020301D8421E0BE09842FBD28118D21AD34204D013F8014D01F8014DF8E710BD994204D011F8014B02F8014FF8E710BD000038B50546002944D0F7
:4015800051F8043C0C1F002BB8BFE41800F0D4F81E4A1368114613B96360146030E0A3420DD92268A018834201BF18685B681218226063600C6023E0A24203D813465A6843
:4015C000002AF9D118681918A1420BD12168014458188242196013D110685268014419605A600DE002D90C232B6009E021686018824201BF106852680918216062605C603C
:401600002846BDE8384000F098B838BD9881FF1F70B5CD1C25F0030508350C2D38BF0C25002D064601DBA94202D90C23336046E000F082F8234B1C681A462146A1B10B68FF
:401640005B1B0ED40B2B03D90B60CC18CD501EE08C420BBF63684B681360636018BF0C4615E00C464968E9E7174C23681BB9304600F052F820602946304600F04DF8431CEE
:4016800018D0C41C24F00304A0420DD12560304600F053F804F10B00231D20F00700C31A0ED05A42E25070BD211A304600F034F80130EBD10C233360304600F03EF800200C
:4016C00070BD00BF9881FF1F9481FF1FF8B5074615460E4621B91146BDE8F840FFF798BF1AB9FFF749FF2846F8BD00F027F885420ED929463846FFF78BFF044650B1314670
:401700002A46FFF7EDFB31463846FFF735FF01E03046F8BD2046F8BD38B5064C0023054608462360FEF718FF431C02D1236803B12B6038BDC881FF1F7047704751F8040C6C
:401740000028BEBF091851F8043CC018043870470000000020202020202020202020202020202020202020200000000048656C6C6F00000043726162733A2025640000000D
:4017800020202020202020202020202020000000405100403000F0510040100000000140001000140140000800400140000A004C014000020050014020004300232D302B90
:4017C0002000686C4C00656667454647003031323334353637383941424344454600303132333435363738396162636465660000F8B500BFF8BC08BC9E4670474D000000D5
:40180000D5050000F8B500BFF8BC08BC9E4670472900000028180000C880FF1F880000008000000000000000000000000100000002000000D081FF1F0000E02EC05D0000DB
:401840001800000000366E010000000000000000000000000000000000000000000000000000000000000000BA1700000000000000000000000000000000000000000000DA
:4018800000000000000000000000000000000000000000000000000000000000000000000000000000000000E880FF1F0000000000000000000000000000000000000000A2
:4018C00000000000000000000000000000000000000000000000000000000000000000000000000000000000000000000000000000000000000000000000000000000000E8
:4019000000000000000000000000000000000000000000000000000000000000000000000000000000000000000000000000000000000000000000000000000000000000A7
:401940000000000000000000000000000000000000000000000000000000000000000000000000000000000000000000000000000000000000000000000000000000000067
:401980000000000000000000000000000000000000000000000000000000000000000000000000000000000000000000000000000000000000000000000000000000000027
:020000040003F7
:0200000480007A
:4000000005520040076400400165004047020140220301400107014056080140390901404E0A01402E0B01403A0C01402C0D0140450E01401F0F0140491801403819014032
:40004000661A0140441B014003400140074101400142014002430140024501400546014003470140084C0140074D0140085001400151014001040820094061806440830D88
:400080008872890D8B388C0D8D0D8F0D890F03012A012E0131013301360137014010410649FF4AFF4BFF4DA04F0450185280580459045A045B045C335D335F01604062C0B0
:4000C0006440654066C068C06AC06CC06EC08F019E01A101A202AA01B002B201B701BE04C040C106C5D0C601C702C816C9FFCAFFCBFFCDAFCE0FCF04D018D405D804D9041B
:40010000DA04DB04DC33DD33DF01E040E2C0E440E540E6C0E8C0EAC0ECC0EEC00940108012081580172019061F8022402440254027A0290239803C024040478049014A0832
:400140004E0850805140520859055A8074018380C201C4CACA01CE88D011D224D60BE608EE08000C010E0202050406020802090C0A0C0C080D011102130C140C15011602A9
:400180001A011B021D0E1E01200E21082404250C2702280C29013001320E3301370E3A083E01405449FF4AFF4BFF4F01501856025711580459045A045B045C445D455F011C
:4001C0006040624064406540668068806A806C806E8082019201B001BE01C051C5ECC602C807C9FFCAFFCBFFCD83CE03CF01D018D401D804DA04DB04DD55DF01E040E2400D
:40020000E440E540E680E880EA80EC80EE8002400520060107500B400D800E200F08148017241A401E201F01258027102C802D143580360437523D823E284140464049251F
:400240004B604F405140524059055A405C106D906E0874807629772479047A108B129010934097269E40A101A611A708AF01C0F8C2E8C470CAE0CCF0CEF0D088D218D62BB5
:400280000201120113011701300131014030410649FF4AFF4BFF4DA04F0450185280580459045A045B045C255D525F01604062C06440654066C068C06AC06CC06EC0920216
:4002C000960199019A029D01A401A501A901AA01AC01B001B202B301B802BB02BE04BF04C030C106C5D0C712C832C9FFCAFFCBFFCDAFCE0FCF04D018D418D604D804D90424
:40030000DA04DB04DC44DD42DF01E040E2C0E440E540E6C0E8C0EAC0ECC0EEC002400B400EA00F04151417401B011E801F0423802410250127402D142F1831083302361039
:4003400037404108450848084C084F01540857065E026440670A73408B8097019C40A108A706AC10C008C278C4E0CA60CC33D042D224D680D8B0E808060212041A021D010D
:400380002E012F0130043101320134023E1052805405580459045B045C225D205F018A028B029703A101A602AA01B001B101B302B402BE10C030C102C5D2C701C813C9FF2A
:4003C000CAFFCBFFCDA0CF04D018D405D804D904DA04DB04DC11DD11DF01E040E2C0E440E540E6C0E8C0EAC0ECC0EEC0001005040E400F081028174019021A041D0C1E88C6
:4004000020202380244029022E402F0230283120364038104010412048204901500859015A045B805C405E085F01774084409010AE80C022C250C486CA11CC12CE04D006AC
:40044000D6DBEC08070117012E01320137014030410149FF4AFF4BFF4DA04F0450185280580459045A045B045C015D105F01604062C06440654066C068C06AC06CC06EC099
:40048000830287019A02A501AB02AE01B201B402B502B701BF10C030C104C5D1C720C823C9FFCAFFCBFFCDAFCE0FCF04D018D280D405D804D904DA04DB04DF01E040E2C01B
:4004C000E440E540E6C0E8C0EAC0ECC0EEC00F041002174018101D081F182280264027082F1831083B043E023F0441084202450A4F05550256025E805F0970027740C24098
:40050000C481CA60CC02CEC2D0CAD6D00003063308020C4C0E231240144F161018731A0C1C08207F2404280C2C41327C340F3A2858045C045F01840C850A861387048A0883
:400540008D038F0C920C9411960E97059C119E069F08A110A503A613A704A903AA10AB04B010B10FB310B40FBA20BB02BE01BF04C053C102C5E0C6B0C70CC81AC9FFCAFFAD
:40058000CBFFCEF0CF44D00CD401D804D904DA04DB04DC44DD44DF01E6C0EA40EB02000402080590075008080A820C800EA4102814801602172418041A401E041F18204079
:4005C0002207281829012A043108324038443B304008410849014A0250185204581059015A4889808B409114972499809B349C80A080A181A214A601A70CB748C0F6C2FD61
:40060000C4F6CA07CC0ACE0AD006D208D60F0416051C0601072209140C2012061303141815401603192C1B111C181D091E051F102130230C251026092A023018311F320772
:4006400034203760380239803A083E114004470449FF4A074BFF4C404D204EF04F055008580459045A045C445D045F01604061A86240632081018420850286C888828903DF
:400680008A31950398E39B039D03A703A8E3AB03AC41AE36B004B103B2E0B403B618BE40C062C104C205C401C50EC70CC811C9FFCAFFCBFFCC62CDA0CEF0CF41D00CD8048F
:4006C000D904DA04DC44DD04DF01E640E702E910EA30EB10ED10EE10EF1200040202051408480AA20E08102012081510160218401A201B201D941E842242260128402A044A
:400700002D042F083108325234803504371038243E063F10404044804581471048204F54520C57048020810C83608A029024911492029350968097049B109C889D109E0213
:400740009F40A101A204A308A420A508A649A704C065C24DC4C6CA63CC7FCEE6D0B1D230E40430403680CC305301830184409C40A680D480E630A680AE80EE109908AD0875
:400780008A0493109908AF10E4049204931099085A045D086310920493109908D603D8021040700180018840C408DC01E201003F08080C340E07101011011C101D01000F5E
:4007C000000404000400000080004080800080000000000000F3F300700000000040400000000000007F7F00000000000100140100000000000000000000000000000000C3
:4008000000000000000000000000000000000000000000000000000000000000000000000000000000000000000000000000000000000000000000000000000000000000B8
:400840000000000000000000000000000000000000000000000000000000000000000000000000000000000000000000000000000000000000000000000000000000000078
:400880000000000000000000000000000000000000000000000000000000000000000000000000000000000000000000000000000000000000000000000000000000000038
:4008C00000000000000000000000000000000000000000000000000000000000000000000000000000000000000000000000000000000000000000000000000000000000F8
:0200000490006A
:0400000000004005B7
:0200000490105A
:04000000BC90ACAF55
:0200000490303A
:02000000BFFC43
:0200000490402A
:4000000000000000000000000000000000000000000000000000000000000000000000000000000000000000000000000000000000000000000000000000000000000000C0
:400040000000000000000000000000000000000000000000000000000000000000000000000000000000000000000000000000000000000000000000000000000000000080
:400080000000000000000000000000000000000000000000000000000000000000000000000000000000000000000000000000000000000000000000000000000000000040
:4000C0000000000000000000000000000000000000000000000000000000000000000000000000000000000000000000000000000000000000000000000000000000000000
:0200000490501A
:0C00000000012E16106900012E21D065B1
:00000001FF