:400000000080002011000000590500005905000008B5044B1A6803F53F5302331A6000F0BBFA00BFFA46004010B5054C237833B9044B13B10448AFF300800123237010BD06
:400040005081FF1F0000000088180000084B10B51BB108490848AFF300800848036803B910BD074B002BFBD0BDE81040184700BF000000005481FF1F88180000C880FF1FB2
:40008000000000000C4B1A6801321A605B68012B06D1094B002119609A6801329A605960054B1B68082B05D1034B00221A609A6801329A60704700BF6C81FF1F08B500F0FB
:4000C000D9FE08BD07291CD8DFE801F004070A0D10131619C0F3C01313E0C0F3801310E0C0F340130DE0C0F300130AE0C0F3C00307E0C0F3800304E0C0F3400301E000F084
:4001000001031846704700BF064B1A7802F00100002304E0520802F0010148400133072BF8DD7047CC80FF1FF8B562B600F002FF664800F027FF00F0B7FA00F04BFC00F096
:4001400027FB00F06BFD00F0DBFD00F04BFE00F0BFFC5F4800F0E4FC522000F009FD292000F00CFD162000F075FD0B2000F078FD1A2000F0E1FD0D2000F0E4FD002108469B
:4001800000F036FC534800F0CBFB0021084600F02FFC514800F0C4FB00252C464F4B1B7B13B100224D4B1A734C4B9B68032B20D8DFE803F002091118484B1968FF20FFF751
:4001C00081FF04466AE0454B1968454B1878FFF779FF044662E00122404B5A60FFF794FF04465BE03D4B19680120FFF76BFF044654E03A4A13690133136100211175022BC6
:4002000007DD116136490B785B000B70013501239361062D03DD0122314B1A7000250021084600F0E5FB2F4E2D4B1A782E49304600F006FF2D4800F073FB0021084600F007
:40024000D7FB304600F06CFB00F044FA00F0F6FB002000F073FC142000F0ECFD002000F0CFFD1E4B9B69012B03D14FF4FA6000F0E1FD4FF47A7000F0DDFD012000F05EFC2E
:40028000142000F0D7FD012000F0BAFD134E0027376000F07DFA00F01BFCB760012C0BD1012000F0ADFD00F073FA162000F020FA0B2000F023FA71E7002C7FF46FAF00F03C
:4002C00009FA002000F09CFD68E700BFBD000000850000008C180000A41800006C81FF1FCC80FF1FB481FF1FAC180000B8180000FEE700BFF0B40022174611E050F82760BF
:40030000F3B226F0FF0608E001EB420511F812406D78A5550132013BDBB2002BF4D10137202FEBD9F0BC7047064B1B78DBB203F00701054A11701B09013213704422034B44
:400340001A707047CF0100496E5800407658004008B50A46002100F06AFE08BD08B500F05BFE08BD38B51722314B1A80182331490B7002310A8002310B7002310A80023132
:400380000B7002310A802C4A13701925023215800232137045F6BF510232118002321370042226492648FFF7D9FF0222254B1A7008224FF040231A70032103F5007319702A
:4003C000214B1B78DBB221490B70214B1A8041F25122023B1A8000240CE01E4B1B7803F0010343EA440404F003044FF4F07000F0D7FD013D0DB1032CEFD115B90320FFF75D
:4004000077FF154B4FF480721A8007221A70002212490A704820023108701A700222033B1A700F4A137843F03F03137038BD00BF80400040824000408E40004018080048DC
:40044000004100400043004008010049A146004022420040254200400440004006400040A243004038B572B600240CE02A4D630019194A0011462A44084691882858FFF768
:4004800067FF0134E4B2072CF0D924494FF09040FFF730FF224A137843F0020313701032137843F0020313701E4C237843F040032370A2F58632513A137843F010031370F8
:4004C000082219491948FFF749FF0A2218491948FFF744FF082218491848FFF73FFF082217491848FFF73AFF174A137843F008031370164D61232B70FFF734FF81232B70DB
:400500000122134B1A70FFF70FFF0E2221461148FFF724FF38BD00BFC81800008400004803500140A0430040F407004802510040FC070048C051004008080048125100401F
:400540001008004822510040224300400048004004000840B043004008B500F031FD03680C2B00D1FEE7FEE708B5094B1A681044084BC31AB3F5407F02DC054B186005E09B
:4005800000F01EFD0C2303604FF0FF32104608BDD480FF1FD081FF1F08B5104E104D16E029686B68AC68002204E051F8040B43F8040B0432A242F8D1E868002203E000214B
:4005C00043F8041B04328242F9D11035013E002EE6D100F0FBFCFFF7A7FDFEE7010000005419000008B5104A104B1A60104A136843F40073136000230AE0032B03D80D4A55
:4006000052F8231000E00C490C4A42F8231001332F2BF2D90A4B1A780A4B1A70074A0A4B1A60FFF71FFF08BD0004FA050CED00E014ED00E000000000590500000080FF1F74
:40064000BC760040C080FF1F08ED00E07222074B1A703E2201331A7006225F3B1A70472210331A70002252331A7070478864004010B500F09DFC04460A4A137843F02003E4
:4006800013700132137843F0100313700332137843F01003137000F0BFFB204600F08CFC10BD00BF9864004008B5054B1B7823B9FFF7CCFF0122024B1A70FFF7D9FF08BD8D
:4006C0008C81FF1F024A137843F08003137070477A650040024A137803F07F03137070477A650040014B1870704700BF0A650040014B1870704700BF4A650040014B18703E
:40070000704700BF2A650040014B1870704700BF8A650040014B1878704700BF6A650040014B1878704700BF5A65004008B501E0FFF7F6FFFFF7EEFF10F0100FF8D108BD30
:4007400010B5114A137803F0C00343F0090313700E4C237843F001032370FF20FFF7C2FFFF20FFF7C5FF7F20FFF7C8FF0020FFF7CBFF00F01DFC237843F01003237000F03F
:400780001BFCFFF7D3FF10BD7A6500409A65004008B5054B1B7823B9FFF7D2FF0122024B1A70FFF78FFF08BD8E81FF1F10B50B4C237803F09F032370237803F0F003237089
:4007C0002378184340F010002070012000F048FB237803F0EF03237010BD00BF2051004038B505460E4C237843F020032370237803F0BF032370002000F032FB237803F0CB
:40080000F003237023781D4345F010052570012000F026FB237803F0EF03237038BD00BF2051004070B5354B1A7802F08002D2B21A7033490A7802F0F00242F00F020A7056
:4008400001310A7802F0F0020A7001310A7802F0F0020A701A7802F0DF021A701A7842F040021A704FF4CA76002000F0F9FA234D2B7843F010032B70012000F0F1FA214BF3
:400880001C78E4B22B7803F0EF032B70002000F0E7FA04F00804E4B22B7843F010032B70012000F0DDFA2B7803F0EF032B7014B90A2000F0D5FA013E0CB1002ED4D10F4AF7
:4008C000137803F0BF031370137803F08003DBB213700232137803F0F00313700132137803F0F00343F00F0313700132137803F0F00343F00F03137070BD00BF2051004087
:40090000225100402151004010B50446FFF78AFF2009FFF765FF04F00F00FFF761FF10BD38B505460078012404E0FFF7EDFF285D0134E4B20028F8D138BD00BF10B504467C
:40094000FFF770FF2009FFF731FF04F00F00FFF72DFF10BD08B5282000F06CFA0320FFF725FF052000F066FA0320FFF71FFF0F2000F060FA0320FFF719FF012000F05AFA7E
:400980000220FFF713FF052000F054FA0620FFF7D5FF0E20FFF7D2FF2C20FFF7CFFF0820FFF7CCFF0120FFF7C9FF0C20FFF7C6FF0320FFF7C3FF052000F03CFA08BD00BF5C
:4009C00008B50C20FFF7BAFF0122014B1A7008BD8F81FF1F08B5054B5B7823B9FFF7BAFF0122024B5A70FFF7EBFF08BD8F81FF1F08B5032819D8DFE800F002070D1381F0D1
:400A00008000FFF79BFF08BDA1F14000C0B2FFF795FF08BDA1F16C00C0B2FFF78FFF08BDA1F12C00C0B2FFF789FF08BD024A137843F080031370704774650040024A13786B
:400A400003F07F031370704774650040014B1870704700BF85650040014B1878704700BF65650040014B1880704700BF486A0040014B188880B27047886A0040014B1880A7
:400A8000704700BF086A004008B501E0FFF7F0FFFFF7E2FF10F0080FF8D108BD08B540F2F310FFF7DFFF40F2F310FFF7E7FF00F07FFA064A137843F01003137000F07CFAC5
:400AC000FFF7E2FF0120FFF7C1FF08BD9565004008B5054B1B7823B9FFF7E0FF0122024B1A70FFF7A3FF08BD9181FF1F014B1B685864704708ED00E04001C0B2014B1870D3
:400B0000704700BF01E400E00222014B1A60704700E100E00222014B1A60704780E100E010B50446FFF7F6FF2046FFF7DFFF0720FFF7E2FFFFF7E8FF10BD00BF044A1378C2
:400B400003F07F03C001C0B218431070704700BF10510040024A137843F08003137070477E640040014B1880704700BF18680040014B1880704700BF98680040014B18805A
:400B8000704700BF58680040014B1870704700BF8D640040014B1878704700BF6D640040014B188880B27047B868004008B501E0FFF7F6FFFFF7EEFF10F0100FF8D108BD93
:400BC00010B5144A137803F0C00343F0090313701E32137843F0010313700F4C237843F0010323705220FFF7BDFF5220FFF7C0FF2920FFF7C3FF0020FFF7C6FF00F0D8F992
:400C0000237843F01003237000F0D6F9FFF7CEFF10BD00BF7E6400409D64004008B5054B1B7823B9FFF7CCFF0122024B1A70FFF791FF08BD9281FF1F024A137843F080038F
:400C4000137070477F640040014B1880704700BF1C680040014B1880704700BF9C680040014B1880704700BF5C680040014B1870704700BF8F640040014B1878704700BF2E
:400C80006F640040014B188880B27047BC68004008B501E0FFF7F6FFFFF7EEFF10F0100FF8D108BD10B5144A137803F0C00343F0090313701F32137843F0010313700F4CB8
:400CC000237843F0010323701620FFF7BDFF1620FFF7C0FF0B20FFF7C3FF0020FFF7C6FF00F066F9237843F01003237000F064F9FFF7CEFF10BD00BF7F6400409F64004039
:400D000008B5054B1B7823B9FFF7CCFF0122024B1A70FFF791FF08BD9381FF1F024A137843F080031370704779650040014B1880704700BF106A0040014B1880704700BFAC
:400D4000906A0040014B1880704700BF506A0040014B1870704700BF89650040014B1878704700BF69650040014B188880B27047B06A004008B501E0FFF7F6FFFFF7EEFF72
:400D800010F0100FF8D108BD10B5144A137803F0C00343F0090313701F32137843F0010313700F4C237843F0010323701B20FFF7BDFF1B20FFF7C0FF0D20FFF7C3FF002028
:400DC000FFF7C6FF00F0F4F8237843F01003237000F0F2F8FFF7CEFF10BD00BF796500409965004008B5054B1B7823B9FFF7CCFF0122024B1A70FFF791FF08BD9481FF1FAE
:400E0000044A137803F0FE0300F0010018431070704700BF00510040054A137843F0100313701032137843F010031370704700BFA243004010B5044605E0084B186800F087
:400E4000AFF8A4F50044B4F5004FF6D8034B586800FB04F000F0A4F810BD00BFD880FF1F08B5034B1B7A00FB03F000F099F808BDD880FF1F0122014B1A707047844300409C
:400E8000084A137843F0010313701032137843F00103137002F64D32137843F001031370704700BFA3430040014B1870704700BF034F0040014B1880704700BF044F0040F3
:400EC000014B1880704700BF064F004008B5164A137803F0010313700232137803F0FC031370124B1A7802F0CF021A701A7842F030021A701A7802F0F0021A701A7842F02D
:400F00000F021A700A4A137843F0010313704FF6FF70FFF7CFFF4FF6FF70FFF7D1FF0020FFF7C2FF08BD00BF004F00400B4F0040014F004008B5054B1B7823B9FFF7C6FF40
:400F40000122024B1A70FFF79BFF08BD9581FF1F014B1B689864704708ED00E04001C0B2014B1870704700BF02E400E00422014B1A60704700E100E00422014B1A607047CD
:400F800080E100E010B50446FFF7F6FF2046FFF7DFFF0720FFF7E2FFFFF7E8FF10BD00BF0230800803D000BF01380046FCD17047EFF3108072B6704780F31088704700BF34
:400FC000014B1868704700BF4881FF1F0E4B70B51E460E4C0025E41AA410A54204D056F8253098470135F8E700F0A2FC084B094C1E46E41AA4100025A54204D056F8253094
:4010000098470135F8E770BD3C1900003C1900003C1900004419000010B5431E0A44914204D011F8014B03F8014FF8E710BD03460244934202D003F8011BFAE770470000E7
:401040000EB400B54FF402719CB0ADF814106FF00041049107914FF6FF711DAB02900690084853F8042BADF81610006802A9019300F064F8029B00221A701CB05DF804EBDB
:4010800003B070474881FF1F2DE9F0478E6882469E420C46914698463ED88A8912F4906F3AD02568096902236F1A656905EB450595FBF3F57B1C43449D4238BF1D465305D9
:4010C0000FD5294600F040FB064698B13A462169FFF7A2FFA38923F4906343F08003A38113E02A4600F08EFB064670B92169504600F0DEFA0C23CAF80030A3894FF0FF3038
:4011000043F04003A381BDE8F08726613E44266046466561ED1BA560464528BF464649463246206800F0A8FAA36800209B1BA36023681E442660BDE8F08700002DE9F04F24
:401140009DB003938B8980461C060D4616460DD50B695BB9402100F0F7FA2860286118B90C23C8F80030CDE040236B610023099320238DF82930DFF89CB130238DF82A3022
:4011800037463C4614F8013B1BB9B7EB060910D003E0252BF9D02746F3E74B46324629464046FFF771FF013000F0A780099B4B4409933B78002B00F0A08000234FF0FF3244
:4011C00004930793059206938DF853301A930126052221784E4800F041FA671C049B38B14B4A3C46801A06FA00F018430490EFE7D90644BF20228DF853201A0744BF2B2233
:401200008DF8532022782A2A03D0079A00210A200BE0039A111D12680391002A10DA524243F00200079204900BE027463B780134303B092B03D800FB02320121F5E701B1A2
:4012400007923B782E2B1ED17B782A2B0AD1039B02371A1D1B680392002BB8BF4FF0FF33059310E0002319460593781C0A2407463A780130303A092A03D804FB012101232D
:40128000F5E703B1059103223978224800F0E6F940B14023CBEB000003FA00F0049B013718430490397806221B487E1C8DF8281000F0D4F988B1194B33B9039B073323F078
:4012C00007030833039314E003AB00932A46144B04A94046AFF3008007E003AB00932A460F4B04A9404600F093F8B0F1FF3F824603D0099B5344099342E7AB895B0601D436
:40130000099801E04FF0FF301DB0BDE8F08F00BFFA180000001900000419000000000000891000002DE9F04791461F460A698B6806469342B8BF1346C9F8003091F843206F
:401340000C46DDF8208012B10133C9F800302368990642BFD9F800300233C9F80030256815F0060510D104F1190A07E00123524639463046C04701301AD00135E368D9F8CA
:4013800000209B1A9D42F1DB94F843302268003318BF012392060FD5E118302081F843005A1C94F845102244023382F8431003E04FF0FF30BDE8F08704F14302394630461A
:4013C000C0470130F4D02268D9F80050E36802F00602042A08BF5D1B2269A3680CBF25EAE57500259342C4BF9B1AED184FF000091A344D4509D00123224639463046C0470A
:401400000130D5D009F10109F3E70020BDE8F0872DE9F04317460A7E85B06E2A984606460C460C9B01F1430E00F0AE8011D8632A22D009D8002A00F0BB80582A40F0CA80A3
:4014400081F84520834955E0642A1ED0692A1CD0C0E0732A00F0B08009D86F2A2ED0702A40F0B8800A6842F020020A603EE0752A24D0782A3AD0ADE01A6801F14205111DB8
:401480001960136884F84230A8E021681A6811F0800F02D0111D196008E011F0400F02F10401196002D0B2F9003000E01368002B3CDA2D225B4284F8432037E021681A68CF
:4014C00011F0800F02D0111D196007E011F0400F02F10401196001D0138800E01368227E5C496F2A14BF0A2208221BE078225A4984F845202268186812F0800F00F10405BF
:401500001D6003D1550601D5038800E00368D00744BF42F0200222601BB9226822F0200222601022002084F8430001E049490A226568002DA56008DB206820F004002060E1
:401540002BB9002D7DD175460CE0002B79D07546B3FBF2F002FB1033CB5C05F8013D03460028F5D1082A0BD12368DA0708D5236962689A42DEBF302305F8013C05F1FF35F0
:40158000C5EB0E0323612EE008681A6810F0800F496903D0101D1860136808E010F0400F02F104001860136801D0198000E0196000232361754616E01A68111D19601568D0
:4015C00000216268284600F049F808B1401B6060636804E004F1420584F8422001232361002384F84330CDF800803B4603AA21463046FFF797FE013002D14FF0FF3026E0B7
:4016000023692A4639463046C0470130F5D023689B0710D5002504F1190907E001234A4639463046C0470130E7D00135E368039A9B1A9D42F2DBE068039B9842B8BF1846DB
:4016400005E00B7804F1420584F842308AE705B0BDE8F0830B1900001C19000010B5C9B202449042034605D01C7801308C42F8D1184610BD002010BD884210B501EB0203D7
:4016800001D8421E0BE09842FBD28118D21AD34204D013F8014D01F8014DF8E710BD994204D011F8014B02F8014FF8E710BD000038B50546002944D051F8043C0C1F002B57
:4016C000B8BFE41800F0D4F81E4A1368114613B96360146030E0A3420DD92268A018834201BF18685B681218226063600C6023E0A24203D813465A68002AF9D1186819183C
:40170000A1420BD12168014458188242196013D110685268014419605A600DE002D90C232B6009E021686018824201BF106852680918216062605C602846BDE8384000F024
:4017400098B838BD9C81FF1F70B5CD1C25F0030508350C2D38BF0C25002D064601DBA94202D90C23336046E000F082F8234B1C681A462146A1B10B685B1B0ED40B2B03D9CB
:401780000B60CC18CD501EE08C420BBF63684B681360636018BF0C4615E00C464968E9E7174C23681BB9304600F052F820602946304600F04DF8431C18D0C41C24F0030434
:4017C000A0420DD12560304600F053F804F10B00231D20F00700C31A0ED05A42E25070BD211A304600F034F80130EBD10C233360304600F03EF8002070BD00BF9C81FF1F87
:401800009881FF1FF8B5074615460E4621B91146BDE8F840FFF798BF1AB9FFF749FF2846F8BD00F027F885420ED929463846FFF78BFF044650B131462A46FFF7EDFB314688
:401840003846FFF735FF01E03046F8BD2046F8BD38B5064C0023054608462360FEF784FE431C02D1236803B12B6038BDCC81FF1F7047704751F8040C0028BEBF091851F872
:40188000043CC018043870470000000020202020202020202020202020202020202020200000000048656C6C6F00000043726162733A2025640000002020202020202020DB
:4018C0002020202020000000004F00400C00305100404000F0510040100000000140001000140140000800400140000A004C014000020050014020004300232D302B200094
:40190000686C4C006566674546470030313233343536373839414243444546003031323334353637383961626364656600000000F8B500BFF8BC08BC9E4670474D000000B3
:40194000E5050000F8B500BFF8BC08BC9E4670472900000068190000C880FF1F880000008000000000000000000000000100000002000000D081FF1F0000E02EC05D000049
:401980001800000000366E010000000000000000000000000000000000000000000000000000000000000000F818000000000000000000000000000000000000000000005A
:4019C00000000000000000000000000000000000000000000000000000000000000000000000000000000000E880FF1F000000000000000000000000000000000000000061
:401A000000000000000000000000000000000000000000000000000000000000000000000000000000000000000000000000000000000000000000000000000000000000A6
:401A40000000000000000000000000000000000000000000000000000000000000000000000000000000000000000000000000000000000000000000000000000000000066
:401A80000000000000000000000000000000000000000000000000000000000000000000000000000000000000000000000000000000000000000000000000000000000026
:401AC00000000000000000000000000000000000000000000000000000000000000000000000000000000000000000000000000000000000000000000000000000000000E6
:020000040003F7
:0200000480007A
:40000000024F0040045200400564004003650040010701402D0801402C090140540A0140310B0140590C01402C0D0140490E0140250F0140371401400F1501400117014080
:4000400065180140441901405F1A0140421B01400340014003410140054201400543014005450140024601400447014005480140034901400A4C01400E4D01400A50014029
:400080000151014001800A360820093461806440887289388C0F8D0D8F0D850D890D8A0DE60201080202040105040801090C0D10110E130114011702190C1B031C01210F88
:4000C0002202251029102D032F0C3201330E34023510370139803A803E1456025711580459045B045C445D405F019C01B601BE40D418D604D804DB04DD40DF010510068037
:40010000071009040B120C400D080E01170219801C041E21250427062D102E012F22360237143D803E2A5B015E206004628063406D906E086F20763B874089809302A28045
:40014000A504A708C070C2A1C410CAF0CCE0CEF0D621D80D00020B080C031501170E1B031F0C210C2303260128032D012F063203370F38083B803E044003464049FF4A07F6
:400180004BFF4C404D204EF04F055008580459045A045C405D045F01604061A862406320801C820287018C108E0C9203930A970698149B029C099E109F0CA10CA302A40CDA
:4001C000A611A704A810AB01B01FB50EB701BB20BF40C042C103C50BC60CC7E0C825C9FFCAFFCBFFCEF0CF44D00CD804D904DA04DC44DD04DF01E6C0EA40EB020002018059
:4002000003C107410C400E810F08102011201520170418101E801F01200225102680270429802B802F98306033143440371539203D084010471548204F08511053105642EA
:4002400092019B019E429F54A420A510B240B310C099C2D0C466CAE9CCFECE44D0E2020103080C020D030F041103130C150317041A011B051D0A1F04200124012E01300128
:400280003402370F3B803E114050410249FF4AFF4BFF4DA04F0450185401580459045A045B045C405D435F01604062C06440654066C068C06AC06CC06EC09202930198025C
:4002C0009C029F01A404AA01AE01B201B501B606B880BE04C050C106C5D0C601C702C816C9FFCAFFCBFFCDAFCE0FCF04D018D405D804D904DA04DB04DC34DD33DF01E040E7
:40030000E2C0E440E540E6C0E8C0EAC0ECC0EEC006C20702080109500C201020120413401401174519041A011E882110254027013080320137553E814604480849014B40DE
:400340004E014F405088520459055A805E885F1289109282A480B010C090C24BC4B7CCF9CE90D020D21CD6FB12011F01210122023002360137014060410249FF4AFF4BFFCF
:400380004DA04F0450185280580459045A045B045C335D305F01604062C06440654066C068C06AC06CC06EC087028B029A069B01AA02AD01AE01B004B202B401B502B7010D
:4003C000BF10C020C103C5D1C620C80BC9FFCAFFCBFFCDAFCE0FCF04D018D280D405D804D904DA04DB04DF01E040E2C0E440E540E6C0E8C0EAC0ECC0EEC009020F0810803C
:400400001608174019021A021C281F0222402640270829022F02308036203C083E284120462848044E204F09552056205E805F0971027740C248C4C8CA11CC28CE60D064A5
:40044000D204D6D012011A013001404249FF4AFF4BFF4F015018528058045A045B045C055D555F016040624064406540668068806A806C806E8092019A01B001BE01C04271
:40048000C5ECC620C80BC9FFCAFFCBFFCD83CE03CF01D018D401D804DA04DB04DD55DF01E040E240E440E540E680E880EA80EC80EE8009220D221A801E80412245224D05D3
:4004C00055205D055E8071028240C25AD0A5D6D0E208008004DC0502060109060AC30C101204141C16C2170118C719011A181B061CDF1D0720C0241825062701280829061C
:400500002B012C442D042E203020321F330734D838803A283B083E404060410249FF4AFF4BFF4DA04F045018580459045A045C445D025F01604062C06440654066C068C0A9
:400540006AC06CC06EC09101920197029A029B03A604AA02B002B101B401B502B604BE01C020C106C5D1C702C813C9FFCAFFCBFFCDAFCE0FCF04D018D280D405D804D9042C
:40058000DA04DB04DC22DD22DF01E040E2C0E440E540E6C0E8C0EAC0ECC0EEC0033005800601075409020A080C400D280E40102012041502163A18441A0A1B101D381E4132
:4005C0001F0422102380260827102D802F24302032053440351037043E2840044604482849014F2050085204580859015B807102860189208B028C489110931098409A19F0
:400600009B049D109E809F11A204A508A70AB508B602C0F0C2FAC4F6CA70CC77CE60D024D224D60B070408020F0113061B022603310132013304350236023F0440404106F2
:4006400045D14702481349FF4AFF4BFF4DA04F04501852805405580459045A045B045C115D115F01604062C06440654066C068C06AC06CC06EC081058302850389039004D1
:400680009219970C981C990C9D0A9F01A10CA408A606A70CA81CAB0CAC10AD0CAE06B01CB103B603B70CBE40C023C104C206C401C60EC70CC814C9FFCAFFCBFFCC62CDA048
:4006C000CEF0CF41D00CD804D904DA04DC44DD04DF01E640E702E910EA30EB10ED10EE10EF1200100D010E480F08102015181740181019801D801E402004210222042741EF
:400700002C502E402F043020310235103608374038083B403D103E023F084102445045A04704482849014F10500C5680570859815A087340800489048E029110931895026C
:40074000984099109B049E829F41A120A20CA708B610C002C250C4E4CAF0CC75CEEAD0F1D224D60BE00432243740CC7096089F40A620128096089F40A620C41086209F4050
:40078000A620AE84E6408A029804B004E404EC019804A2028B109804A202E401678087409F40D880E21083409F40E68052025B086040640493109804A202D401D602D80361
:4007C000108012807310830888808E8093109F08B440C408DC01E202E601E802001901010C100D010E19103611011A201C161D01002F000000010100000000008000408058
:40080000800080000000000000F7F70074000000007F7F00000000000100140100000000000000000000000000000000000000000000000000000000000000000000000042
:400840000000000000000000000000000000000000000000000000000000000000000000000000000000000000000000000000000000000000000000000000000000000078
:400880000000000000000000000000000000000000000000000000000000000000000000000000000000000000000000000000000000000000000000000000000000000038
:4008C00000000000000000000000000000000000000000000000000000000000000000000000000000000000000000000000000000000000000000000000000000000000F8
:4009000000000000000000000000000000000000000000000000000000000000000000000000000000000000000000000000000000000000000000000000000000000000B7
:0200000490006A
:0400000000004005B7
:0200000490105A
:04000000BC90ACAF55
:0200000490303A
:020000003316B5
:0200000490402A
:4000000000000000000000000000000000000000000000000000000000000000000000000000000000000000000000000000000000000000000000000000000000000000C0
:400040000000000000000000000000000000000000000000000000000000000000000000000000000000000000000000000000000000000000000000000000000000000080
:400080000000000000000000000000000000000000000000000000000000000000000000000000000000000000000000000000000000000000000000000000000000000040
:4000C0000000000000000000000000000000000000000000000000000000000000000000000000000000000000000000000000000000000000000000000000000000000000
:0200000490501A
:0C00000000012E16106900012E22437F23
:00000001FF