:400000000080002011000000F10A0000F10A000080B500AF024A034B1B68136000F09AFDBC760040FA46004010B5054C237833B9044B13B10448AFF300800123237010BD8A
:400040007081FF1F000000007C480000084B10B51BB108490848AFF300800848036803B910BD074B002BFBD0BDE81040184700BF000000007481FF1F7C480000C880FF1F2A
:400080000000000080B586B000AF00237B6101233B6162B603F064F903F028FC5E4803F0A7FD0023FB600023BB6001237B600121002000F0E3FD03F0E9FD0021002003F0D1
:4000C00061F9564803F096F90021002003F05AF9534803F08FF912E000BF00F0A7F80346002BFAD000F050F978617B6940F24D12934204D0786900F0E3F900233B613B692B
:40010000002BE9D103F0FCFC464B1B680D2B6DD801A252F823F000BF5101000061010000610100006101000061010000730100007301000073010000730100007301000081
:4001400073010000730100007301000083010000354B1B681946FF2000F07AFAF86046E07A69304B1B681946104600F0EDF9F8603DE02C4B1B681946012000F017FAF86088
:4001800035E0294B00221A60BB680133BB60BB68042B01D10023BB6003F008FC03F0C2FC01233B6112E000BF00F040F80346002BFAD000F0E9F878617B6940F24D129342D3
:4001C00004D0786900F07CF900233B613B69002BE9D17B69DBB2184603F0BAFD114B00221A6003F083FB03F08BFC00E000BFFB68012B06D1162003F007FC0B2003F014FCE2
:4002000082E7FB68002B7FF47FAF1A2003F0FCFB0D2003F009FC77E7050500008048000098480000A081FF1FA481FF1F90B583B000AF0023FB8000F0F1FE0346002B06D05D
:4002400000F0E0FE0346002B01D001F0DFF800F0D9FE0346002B77D000BF01F013FA0346002BFAD03E4B1B68012B02D13D4801F06DF900BF01F006FA0346002BFAD0384BCE
:400280001B68012B04D101F0CFF9354B00221A6001F0E6F90346002B56D0334801F004FA03461A46314B1A802F4B1A78304B1B789A4212D12F4B1B68012B03D12E4B0122E0
:4002C0001A6006E02B4B1B68002B02D12B4B01221A602B4B01221A6008E0264B1C68224803F0D4FD0346DAB2264B1A55214B1B68002B06D11F4B02221A60214B01221A60BF
:4003000004E01C4B1B68013B1A4A1360174B1B88002B19D000BF01F0B5F90346002BFAD0124B1B881946104801F0C4F80F4B1B88402B09D100BF01F0A5F90346002BFAD0F5
:400340000021002001F0B6F80D4B1B68012B01D1012300E0002318460C37BD4690BD00BFCC80FF1FA0480000D081FF1F1082FF1F30490000D080FF1F9081FF1F9481FF1F33
:400380008C81FF1F9C81FF1F80B582B000AF00BF01F078F90346002BFAD001F045F9404B1B68012B0AD13F4B9A783E4B1A703D4B00229A703A4B00221A6011E03A4B1B68A1
:4003C000012B0DD1374B5A78364B1A70354B9A78344B5A70334B00229A70334B00221A60304B1A782F4B1A702E4B5B781A46920013445B00DAB22B4B5A702A4B9B781A4640
:40040000920013441A4691001A460B4613449B00DAB2244B9A70234B1B781A46214B5B781344204A927813447B607B680F2B15DD00237B601D4B01221A6000BF01F022F9C0
:400440000346002BFAD01A4801F080F800BF01F019F90346002BFAD001F0E6F8114B00221A70104B00225A700E4B00229A70114B02221A60104B00221A600C4B1B68012BD9
:4004800005D10A4B00221A6040F24D1303E00B4B01221A607B6818460837BD4680BD00BF9081FF1F9C81FF1F9481FF1F9881FF1F34490000D080FF1F8C81FF1FCC80FF1F3A
:4004C00080B582B000AF78600021002002F05AFF094802F08FFF0021002002F053FF7A680649074803F016FD054802F083FF00BF0837BD4680BD00BF5C4900006849000092
:40050000BC81FF1F80B400AF0D4B1B68002B09D10C4B1B68062B05DC0A4B1B680133094A136008E0074B1B68062B04DD044B1B680133034A136000BFBD4680BC704700BFD6
:40054000A081FF1FA481FF1F80B485B000AF786039603B68013B032B21D801A252F823F0710500007D05000089050000950500007B68DB0803F00103FB6011E07B689B08BB
:4005800003F00103FB600BE07B685B0803F00103FB6005E07B6803F00103FB6000E000BFFB6818461437BD4680BC704780B485B000AF786039603B68053B072B41D801A251
:4005C00052F823F0E5050000F1050000FD0500000906000015060000210600002D060000390600007B68DB0903F00103FB6029E07B689B0903F00103FB6023E07B685B09B4
:4006000003F00103FB601DE07B681B0903F00103FB6017E07B68DB0803F00103FB6011E07B689B0803F00103FB600BE07B685B0803F00103FB6005E07B6803F00103FB609D
:4006400000E000BFFB6818461437BD4680BC704780B485B000AF786039603B68072B42D801A252F823F000BF8906000095060000A1060000AD060000B9060000C506000094
:40068000D1060000DD0600007B68DB0903F00103FB6029E07B689B0903F00103FB6023E07B685B0903F00103FB601DE07B681B0903F00103FB6017E07B68DB0803F00103DF
:4006C000FB6011E07B689B0803F00103FB600BE07B685B0803F00103FB6005E07B6803F00103FB6000E000BFFB6818461437BD4680BC704780B582B000AF786039603A686F
:400700000021786803F0FDFB00BF0837BD4680BD80B584B000AFF860B9607A607A68B968F86803F0E3FB00BF1037BD4680BD00BF80B584B000AFF860B9607A607A68B9688D
:40074000F86803F0D3FB00BF1037BD4680BD00BF80B483B000AF0346FB71FEE780B487B000AF7860396000233B6100237B6127E07B699B007A6813441B68BB60BB68FB736C
:40078000BB6823F0FF03BB6014E03B695B003A6813441B781A46BB68134419463B695B003A6813445B780B703B6901333B61FB7B013BFB73FB7B002BE7D17B6901337B6107
:4007C0007B69182BD4D900BF1C37BD4680BC704780B582B000AF394B3F221A80384B18221A70384B44221A80374B18221A70374B4FF6FF121A80364B18221A70042235491D
:400800003548FFF795FF354B06221A70344B52221A70344B344A1278D2B21A70334B40F618021A80324B41F251221A800023FB7019237B6014E0FB785B00DAB22D4B1B784A
:40084000DBB203F00103DBB21343DBB203F00303FB704FF4F07003F0ABFA7B68013B7B607B68002B02D0FB78032BE4D17B68002B02D10320FFF76CFF1F4B4FF480721A8017
:400880001D4B07221A701D4B00221A701C4B48221A70194B00221A701A4B00221A701A4B02221A70194A194B1B78DBB243F00703DBB2137000BF0837BD4680BD8040004008
:4008C000824000408440004086400040884000408A40004074490000004100400043004000420040A14600400F010049224200402042004025420040044000400640004020
:40090000084000400940004001400040A243004080B483B000AF0B4B1B78FB710A4AFB7903F00703DBB21370084AFB791B09DBB21370074B44221A7000BF0C37BD4680BC43
:40094000704700BFCF0100496E5800406F5800407658004080B586B000AF72B64E4B60221A70FFF735FF4C4B00221A704B4A4B4B1B78DBB243F00403DBB213700023FB7551
:4009800013E0FA7D13465B0013445B00444A13443B613B691A683B699B889BB219461046FFF7A8FEFB7D0133FB75FB7D062BE8D90023FB751CE0FA7D13469B0013445B0029
:4009C000384A1344FB60FB681B68BB60FB685B687B60FB681A7A5B7A1B0213437B807B881A467968B868FFF7A3FEFB7D0133FB75FB7D002BDFD02C492C48FFF7AFFE2C4A1C
:400A00002B4B1B78DBB243F00203DBB21370294A284B1B78DBB243F00203DBB21370264A254B1B78DBB243F04003DBB21370234A224B1B78DBB243F01003DBB2137008228A
:400A40001F492048FFF774FE0A221F491F48FFF76FFE0A221E491F48FFF76AFE0A221E491E48FFF765FE08221D491E48FFF760FE1D4A1D4B1B78DBB243F00803DBB21370AF
:400A8000FFF746FF0E220C491848FFF741FE00BF1837BD4680BD00BF00480040E846004078490000A4490000144A0000B04900000350014013500140A0430040C243004039
:400AC000D04E000002510040D84E0000C0510040E44E0000F0510040F04E000010510040FC4E00002251004022430040B043004080B500AF03F0CEF903461B680C2B00D1F5
:400B0000FEE7FEE780B584B000AF78600F4B1A687B6813441A460E4BD31A802B09DC0B4B1B68FB60094B1A687B681344074A136007E003F0AFF902460C2313604FF0FF33CA
:400B4000FB60FB6818461037BD4680BDD480FF1F0083FF1F80B586B000AF224B7B61224B3B61204B7B6135E03B691B68FB603B695B68BB603B699B683B6000237B600CE0C7
:400B8000FB681A68BB681A60BB680433BB60FB680433FB607B6804337B607A683B689A42EED13B69DB683B6000237B6008E0BB6800221A60BB680433BB607B6804337B60A3
:400BC0007A683B689A42F2D13B6910333B617B69013B7B617B69002BC6D103F061F9FFF751FAFEE701000000CC52000080B582B000AF184B184A1A60184A184B1B6843F446
:400C00000073136000237B600FE07B68032B04D8134A7B6852F8233000E0124B12497A6841F822307B6801337B607B682F2BECD90E4B1B78DAB20E4B1A700E4B0A4A1A609C
:400C4000FFF788FE0C4B00221A6000BF0837BD4680BD00BF0CED00E00004FA0514ED00E000000000F10A00000080FF1FBC760040C480FF1F08ED00E0C080FF1F80B582B044
:400C800000AF03460A46FB711346BB71094B1B78002B04D100F010F8064B01221A70BA79FB791146184600F0D9F800BF0837BD4680BD00BFA881FF1F80B582B000AF03F0B4
:400CC00096F80346FB71544A534B1B78DBB243F00103DBB21370514A504B1B78DBB243F00103DBB213704E4B01221A704D4B02221A704D4A4C4B1B78DBB203F07F03DBB295
:400D00001370002002F030FD484A484B1B78DBB223F00603DBB21370454A454B1B78DBB223F02003DBB21370404A404B1B78DBB243F00103DBB21370012002F015FD282012
:400D400002F012FD3B4A3B4B1B78DBB203F07F03DBB21370374A374B1B78DBB223F04003DBB21370314A314B1B78DBB243F00203DBB21370022002F0F7FC2C4A2B4B1B7854
:400D8000DBB243F00403DBB213702B4B00221A702A4B00221A70FB79184603F02CF80721172002F01DFD2649172002F0F1FC0721182002F015FD2349182002F0E9FC072139
:400DC000152002F00DFD2049152002F0E1FC0721002002F005FD1D49002002F0D9FC0721012002F0FDFC1A49012002F0D1FC0721022002F0F5FC1749022002F0C9FC0721C7
:400E00000C2002F0EDFC14490C2002F0C1FC00BF0837BD4680BD00BFA5430040B54300409D60004009600040106000409443004012600040F85100408460004085600040E5
:400E40009D1E000085170000911E0000A91D0000F11D00003D1E00006522000080B584B000AF03460A46FB711346BB710023FB7306E0FB7B334A0121D154FB7B0133FB734B
:400E8000FB7B012BF5D9304AFB7913702F4B00221A702F4B00221A702E4B00221A702E4B00221A702D4B00221A702D4B00221A702C4B00221A702C4B4FF400021A602A4BA5
:400EC0004FF080721A60284B4FF400121A60264B01221A60244B02221A60234B04221A60BB79002B02D0012B09D011E01F4A1F4B1B78DBB223F00103DBB2137011E01B4A45
:400F00001A4B1B78DBB243F00103DBB2137008E0164A164B1B78DBB243F00103DBB2137000BF134B03221A70124B80221A70012002F03EFF104B04221A7000BF1037BD461C
:400F400080BD00BFC882FF1F2D82FF1F3082FF1F4C82FF1F4F82FF1F4482FF1F4E82FF1F5182FF1F2C82FF1F00E100E00960004028600040086000401260004080B483B013
:400F800000AF0023FB7106E0FB79144A0121D154FB790133FB71FB79012BF5D9104B00221A70104B00221A700F4B00221A700F4B00221A700E4B00221A700E4B00221A704E
:400FC0000D4B00221A700D4B03221A700C4B80221A7000BF0C37BD4680BC7047C882FF1F3082FF1F4C82FF1F4F82FF1F4482FF1F4E82FF1F5182FF1F2C82FF1F2860004001
:401000000860004080B400AF034B1B78DBB21846BD4680BC704700BF4F82FF1F80B483B000AF0023FB71084B1B78DBB2002B05D0054B1B78FB71044B00221A70FB79184681
:401040000C37BD4680BC70474C82FF1F80B483B000AF0346FB71FA79064913465B0013449B000B4401331B78DBB218460C37BD4680BC70475482FF1F80B485B000AF034689
:40108000FB710023FB81FB79002B1CD0FB79082B19D8104AFB791B0113441B78DBB29BB203F00F03FB81FB891B029AB20949FB791B010B4401331B78DBB29BB21343FB8142
:4010C000FB89023BFB81FB8918461437BD4680BC704700BFFC5F0040B0B485B000AF03463960FB711346BB80FB79002B6DD0FB79082B6AD8B988FA79364813465B0013440A
:401100009B00034406331B889BB2C3F5007399420CD9FA792F4913465B0013449B000B4406331B889BB2C3F50073BB802A4CF979BB881B0A9BB2D8B2FA79264D13465B0089
:4011400013449B002B4403331B78DBB20343DAB20B0123441A70204AFB79B988C9B21B01134401330A461A703B68002B13D00023FB810CE01948FB79FA8939680A441278C1
:401180001B01034408331A70FB890133FB81FA89BB889A42EED3FA790E4913465B0013449B000B44013300221A700B48F979FA79084C13465B0013449B00234405331B786D
:4011C000DAB20B01034402331A7000BF1437BD46B0BC70475482FF1FFC5F00407060004080B584B000AF03463960FB711346BB803B68002B30D0FB79002B2DD0FB79082B77
:401200002AD8FB791846FFF737FF03461A46BB88934205D9FB791846FFF72EFF034600E0BB88BB800023FB810DE0FB893A6813440D49FA7912010A4408321278D2B21A706E
:40124000FB890133FB81FA89BB889A42EDD3FB79184600F00BF801E00023BB80BB8818461037BD4680BD00BF7060004090B482B000AF0346FB71FB79002B1CD0FB79082BD1
:4012800019D8FA790E4913465B0013449B000B44013300221A700B48F979FA79084C13465B0013449B00234405331B78DAB20B01034402331A7000BF0837BD4690BC704798
:4012C0005482FF1FFC5F004080B582B000AF0023FB71314B1B79DBB2184600F067F80346BB712D4B1B78DBB25BB2002B15DA2A4B5B78DBB2212B00D048E0284B07221A80ED
:40130000BA791346DB009B1A254A1344234A536000F0B2FB0346FB7138E01F4B5B78DBB2202B02D0222B1AD030E01C4B07221A80BA791346DB009B1A194A1344174A5360FF
:40134000BB79BA7917498A5CD2B242F00102D1B2144AD15400F00EFC0346FB7116E0BB790D4A9278D2B291B20F4A22F81310BB79BA790C498A5CD2B242F00202D1B2094A38
:40138000D15400F095FC0346FB7100BFFB7918460837BD4680BD00BF006000403882FF1FD880FF1F1482FF1F2882FF1F80B485B000AF0346FB710023FB73FF23BB7317E0F4
:4013C000FB7B104AD35C7B737A7B0F4913465B0013449B000B440A331B78DBB2FA799A4203D1FB7BBB730223FB73FB7B0133FB73FB7B012BE4D9BB7B18461437BD4680BC72
:40140000704700BF1C82FF1F5482FF1F80B582B000AF0023BB71224B00221A70214B00221A70204B00225A700023FB7110E0FB791D4AD35C7B717B79002B06D07B79082B08
:4014400003D87B791846FFF711FFFB790133FB71FB79012BEBD9154B1B78DBB2002B18D0114B1B78DBB2002B13D0114B1B78DBB2002B0ED00D4B1B78DBB2082B09D80A4B3E
:401480001B78DBB2082B04D8094B1B78DBB2082B01D90123BB71BB7918460837BD4680BDA981FF1F1482FF1F2082FF1F1882FF1F1C82FF1F80B584B000AF78600B467B80AF
:4014C000144B1B781A46144B9B5CFB73FA7B134913465B0013449B000B4408331B889BB27A889A420CD9FA7B0C4913465B0013449B000B4408331B887B80002002F006F979
:401500007A88FB7B79681846FFF7E6FD00BF1037BD4680BDA981FF1F1882FF1F5482FF1F80B485B000AF78600023FB8102E0FB890133FB81FB897A6813441B78002BF6D1FA
:40154000FB8918461437BD4680BC704780B584B000AF78600023BB81304B1B781A46304B9B5CFB727868FFF7DBFF0346FB81FA7A2C4913465B0013449B000B4408331B887B
:401580009BB2FA899A420AD9FA7A264913465B0013449B000B4408331B889BB200E0FB893B81BB897A68D1183A89FB7A1846FFF793FDFA893B89D31AFB81FB89002B0CD112
:4015C000FA7A184913465B0013449B000B4408331B889BB23A899A4219D1BA893B891344BB8100BFFA7A0F4913465B0013449B000B4401331B78DBB2002BF3D0FB89002B62
:4016000005D1FB7A002200211846FFF765FDFB89002BACD100BF1037BD4680BDA981FF1F1882FF1F5482FF1F80B582B000AF094A3B1D12881A80084B1B781A46074B9B5C7C
:40164000DBB2391D02221846FFF746FD00BF0837BD4680BD844F0000A981FF1F1882FF1F80B500AF054B1B781A46054B9B5CDBB21846FFF7EBFC0346184680BDA981FF1F59
:401680002082FF1F80B500AF054B1B781A46054B9B5CDBB21846FFF7D9FC0346184680BDA981FF1F1882FF1F80B584B000AF78600D4B1B781A460D4B9B5CFB73FA7B0C49A0
:4016C00013465B0013449B000B4408331B889AB2FB7B79681846FFF783FD0346BB81BB8918461037BD4680BDA981FF1F2082FF1F5482FF1F80B485B000AF78600B46FB704A
:401700001346BB707B68DB7803F00303FB737B689B785BB2002B1ADAFB7B032B0AD0BB7803F001031449FA78CA54BB7843F00103BB701BE0BB789B08DBB203F001030F498F
:40174000FA78CA54BB7843F00403BB700EE0FB7B032B0BD0BB785B08DBB203F001030849FA78CA54BB7843F00203BB70BB7818461437BD4680BC70471882FF1F1C82FF1FFD
:401780002082FF1F80B582B000AF374B1B78BB71BB7903F01003002B62D00123FB7197F90630002B12DABB7903F00F03012B02D00023FB711CE000F061F82C4B1B78DBB26C
:4017C0005BB2002B14DA0023FB7111E0BB7903F04003002B02D000F095F809E0BB7903F02003002B02D000F0B3F801E00023FB71FB79002B34D01C4B1B78BB7197F9063095
:40180000002B2DDB1A4B1B78DAB21A4B1B78DBB21343BB71184ABB791370174B1B78DBB2BA799A421CD1114B1B78FB710E4B1B78DBB223F07F03BB71BB79002B0AD10A4B2F
:401840000A4A1278D2B21A70074B1B78DBB203F00F03FB71054B1B78DBB2FA799A42E2D100BF0837BD4680BD286000404D82FF1FC282FF1F5082FF1F2960004080B582B0B2
:4018800000AF1D4B1B78FB711B4AFB7913701A4B1B78FB7197F90730002B03DA174AFB79137025E0022000F045FA154B1B78DBB203F06003202B08D0402B0BD0002B0ED18C
:4018C00000F0D6FC0346FB710CE002F09BFA0346FB7107E001F0D6FC0346FB7102E00023FB7100BFFB79002B02D1044B03221A7000BF0837BD4680BD286000404D82FF1F57
:401900000060004080B500AF104B1B78DBB2062B19D801A252F823F0471900004719000035190000471900003B190000471900004119000000F0F8F806E000F0A7F903E0D1
:4019400000F0D2F900E000BF00BF80BD3082FF1F80B500AF124B1B78DBB2062B1DD801A252F823F09B1900009B190000811900009B190000871900009B1900008D1900000A
:4019800000F0D8F80AE000F027F907E0032000F0D1F9044B03221A7000E000BF00BF80BD3082FF1F4D82FF1F80B483B000AF0023FB71294B1B78DBB29AB2284B1B889BB26B
:4019C00013449AB2254B1A8015E02549FB79254A52681278D2B2CA54224B5B680133214A5360FB790133FB711E4B1B889BB2013B9AB21C4B1A801B4B1B889BB2002B02D043
:401A0000FB79072BE1D9144B1B78DBB2082B02D0FB79002B0FD0144B1B78DBB283F07F03DB43DAB2104B1A70104B0F221A70104B02221A7005E00D4B02221A700C4B0222BC
:401A40001A700C4AFB791370034AFB79137000BF0C37BD4680BC70472C82FF1F2E82FF1F006000403882FF1FC282FF1F4D82FF1F3082FF1F5082FF1F80B582B000AF164BBB
:401A80001B889BB2002B02D100F02EF81EE0134B02221A70124B00221A7000F06BF9114BDB79DBB29BB21B029AB20E4B9B79DBB29BB21343FB80084B1B889BB2FA889A420F
:401AC00002D2054AFB881380FFF76EFF012318460837BD4680BD00BF3882FF1F3082FF1FC282FF1F0060004080B400AF094B02221A70094B80221A70084B0F221A70084B1A
:401B000000221A70074B00221A7001231846BD4680BC70473082FF1FC282FF1F4D82FF1F2C82FF1F5082FF1F80B500AFFFF73CFF00BF80BD80B500AF0A4B1B78DBB29AB2F2
:401B4000094B1B889BB213449AB2074B1A80074B00221A70012000F0EDF8054B03221A7000BF80BD2C82FF1F2E82FF1F3082FF1F4D82FF1F80B582B000AF124B04221A7029
:401B8000114B80221A7000F0F5F8104BDB79DBB29BB21B029AB20D4B9B79DBB29BB21343FB800B4B1B889BB2FA889A4202D2084AFB881380074B0B221A700123184608370D
:401BC000BD4680BD3082FF1FC282FF1F006000403882FF1F4D82FF1F80B483B000AF0023BB71234B1B78DBB203F00F03DBB2023BFB71FB799AB21F4B1B889BB213449AB223
:401C00001C4B1A8018E01C4B5B681C49BA798A5CD2B21A70184B5B680133174A5360BB790133BB71FB79013BFB71134B1B889BB2013B9AB2104B1A800F4B1B889BB2002B97
:401C400002D0FB79002BDED10D4AFB7913700D4B1B78DBB283F07F03DB43DAB2094B1A70094B0B221A7000BF0C37BD4680BC7047296000402E82FF1F3882FF1F00600040EF
:401C80005082FF1FC282FF1F4D82FF1F80B500AF054B00221A70012000F04CF8034B03221A7000BF80BD00BF3082FF1F4D82FF1F80B400AF084B06221A70084B06221A704E
:401CC000074B80221A70074B00221A7001231846BD4680BC704700BF3082FF1F4D82FF1FC282FF1F5082FF1F80B500AF0D4B1B78DBB2002B0AD00C4A0A4B1B78DBB263F0A3
:401D00007F03DBB21370074B00221A70074B00221A70012000F00EF8054B03221A7000BF80BD00BF4E82FF1F086000403082FF1F4D82FF1F80B483B000AF0346FB710B4BD0
:401D40009B68002B0CD0094B9B68FA791A70074B9B68074A128892B25A80044B00229A6000BF0C37BD4680BC704700BF3882FF1F2E82FF1F80B400AF094B00221A80094B98
:401D80009B68002B07D0074B9B6800221A70054B9B6800225A8000BFBD4680BC704700BF2E82FF1F3882FF1F80B400AF0D4B01221A700D4B9B7C0D4B1B7BDBB203F00303E9
:401DC000012B08D0094BDB7BDBB283F07F03DB43DAB2064BDA73054B01225A7300BFBD4680BC70470B600040FC5F00405482FF1F80B400AF0E4B02221A700E4B93F822301C
:401E00000D4B1B7EDBB203F00303012B08D00A4BDB7EDBB283F07F03DB43DAB2064BDA76054B01225A7600BFBD4680BC704700BF0B600040FC5F00405482FF1F80B400AFD8
:401E4000104B04221A70104B93F832300F4B93F82430DBB203F00303012B0AD00B4B93F82730DBB283F07F03DB43DAB2074B83F82720064B012283F8252000BFBD4680BCA0
:401E8000704700BF0B600040FC5F00405482FF1F80B400AF00BFBD4680BC704780B500AFFFF76CF800BF80BD80B582B000AF0023FB71714B1B79BB716F4B1B78DBB25BB298
:401EC000002B6CDA6C4B5B78DBB2013B052B00F2BE8001A252F823F03B1F0000551F00007F1F00004F2000004F200000F11E0000614BDB78DBB2212B0CD100F0C7F85F4B57
:401F00001B889BB2002B00F0A480FFF7B5FD0346FB719EE0584BDB78DBB2222B40F0998000F0F2F8554B1B889BB2002B00F09180FFF7A2FD0346FB718BE000F02DF94F4B83
:401F40001B889BB2002B00F08680FFF795FD0346FB7180E0BB79012B7FD8474B9B78DBB2002B7AD1454B01221A80BB79444A1344424A5360FFF780FD0346FB716DE0BB7906
:401F8000012B6CD83D4B01221A80BB793D4A13443A4A5360FFF770FD0346FB715FE0364B5B78DBB20A2B10D00B2B3DD0092B00D05CE000F0F1F8314B1B889BB2002B50D0C3
:401FC000FFF7D8FD0346FB714BE0BB79012B4AD8294B9B78DBB2002B45D1BB79264AD278D1B2274AD154BB79254AD35CDAB2BB792549CB5CDBB29A4204D2BB79224A002131
:40200000D1540CE0BB79204AD35CDBB2012B06D9BB79BA791A498A5CD1B21B4AD154FFF747FE0346FB711EE0BB79012B1DD8124B9B78DBB2012B18D8BB790F4A9278D1B2F7
:40204000104AD154FFF734FE0346FB710DE000BF0CE000BF0AE000BF08E000BF06E000BF04E000BF02E000BF00E000BFFB7918460837BD4680BD00BF006000403882FF1F4D
:40208000D082FF1FC882FF1FCC82FF1F80B584B000AF194B1B78DBB2013BDBB2184600F041FFF860154B1B79FB72FB7A0233DB00FA681344FB60FB685B68FB60FB7A104A47
:4020C000D35CDBB2DB00FA681344FB60FB685B68FB60FB682033FB60FB685B687B607B681B78DBB29AB2074B1A80064A7B68536000BF1037BD4680BD4F82FF1F00600040AC
:40210000C082FF1F3882FF1F80B584B000AF1E4B1B78DBB2013BDBB2184600F003FFF8601A4B1B79FB72FB7A0233DB00FA681344FB60FB685B68FB60FB7A154AD35CDBB245
:40214000DB00FA681344FB60FB685B68FB60FB681833FB60FB685B687B607B6801331B78DBB29BB21B029AB27B681B78DBB29BB213439AB2074B1A807B680233054A536000
:4021800000BF1037BD4680BD4F82FF1F00600040C082FF1F3882FF1F80B584B000AF2D4B00221A802C4B1B78DBB2013BDBB2184600F0B8FEF860294BDB78FB72274B1B79D0
:4021C000BB72BB7A0233DB00FA681344FB60FB685B68FB60BB7A012B38D8BB7A204AD35CDBB2DB00FA681344FB60FB685B68FB60FB7A002B2AD0FB7A032B27D8FB7A03F1F7
:402200000053013BDB00FA681344FB60134B9B78FB72FB681B78FA7A9A4217D8FB685B687B60FA7A13465B0013449B001A467B6813447B607B685B68064A53607B681A884F
:40224000044B1A807B689B68024A936000BF1037BD4680BD3882FF1F4F82FF1F00600040C082FF1F80B500AF01F040FA00BF80BD80B586B000AF0023FB759D4B1B78FB71A4
:4022800000233B619B4B00221A8097F90730002B80F20481964B5B78DBB20A2B00F21B8201A252F823F000BFF3230000D7260000D7260000D7260000D7260000D726000009
:4022C000D5220000D726000067240000D72600007D240000864BDB78DBB2012B0ED100F049FEB860BB685B68824A5360814B12221A80FFF7C1FB0346FB75EEE17C4BDB7863
:40230000DBB2022B25D17A4B9B78DBB2184600F009FEB860BB68002B00F0DF81BB685B68744A5360734B5B6803331B78DBB29BB21B029AB26F4B5B6802331B78DBB29BB27A
:4023400013439AB26B4B1A80FFF796FB0346FB75C3E1674BDB78DBB2032B45D10023FB73654B3B6109E03B691B78BB71BB793A6913443B61FB7B0133FB735D4B9B78DBB25E
:40238000FA7B9A4204D23B691B78DBB2002BEAD1574B9B78DBB2EE2B01D1584B3B61544B9B78DBB2002B0BD0514B9B78DAB2544B1B7C9A4204D1534800F0ACF9514B3B6111
:4023C0003B691B78DBB2002B00F087813B691B78DBB29AB2474B1A80464A3B695360FFF74BFB0346FB7578E101F00CFD0346FB7573E1FB7903F00303002B20D0022B00D0F9
:4024000030E03C4B02221A80394B1B79DBB203F07F023D4913465B0013449B000B4402331B78DAB2394B1A70384B00225A70314B364A5A60FFF720FB0346FB7512E02D4BF8
:4024400002221A80324B1B78DAB2304B1A702F4B00225A70274B2D4A5A60FFF70DFB0346FB7500BF40E1234B01221A80214B294A5A60FFF701FB0346FB7535E11D4B01224D
:402480001A801B4B1B79DBB21A46234B1344194A5360FFF7F1FA0346FB7525E1144B5B78DBB2013B0A2B00F21A8101A252F823F0BB250000DF26000049260000DF2600000A
:4024C000DD240000DF260000DF260000DF26000021250000DF26000077250000044B9B78DAB20E4B1A70FFF7E3FB0346FB75FBE0006000403882FF1FF44F0000345100006C
:402500009C4F0000D482FF1F5482FF1FAC81FF1F5182FF1F4F82FF1FC082FF1F4E82FF1F744B9B787B717B79002B06D07B79013BDBB2184600F0F6FCB8607B79002B02D016
:40254000BB68002B03D17B79002B40F0CA806A4B1B78DBB27A799A4208D0674A7B791370664B01221A70012000F0DCF9FFF7A0FB0346FB75B5E000F04DFE0346002B00F03A
:40258000B2805C4B1B793B715A4B1B79DAB25C4B1A703B795B4AD35CDAB23B795A49CB5CDBB29A4204D0554B01221A7000F08CFBFFF77EFB0346FB7595E0FB7903F003036F
:4025C000012B20D0012B0CD3022B00D03BE0494B9B78DBB2002B31D100F078FD0346FB752CE0444B9B78DBB2012B29D1474B1B78DBB223F00203DAB2444B1A70FFF758FB04
:402600000346FB751CE03B4B1B79DBB2012B19D8384B9B78DBB2DB43DBB2364A1279D2B2114610463A4A125CD2B21340DAB2384B5A54FFF73DFB0346FB7503E000BF53E0D5
:4026400000BF51E000BF4FE0FB7903F00303012B20D0012B0CD3022B00D03BE0254B9B78DBB2002B31D100F0BDFC0346FB752CE0204B9B78DBB2012B29D1244B1B78DBB265
:4026800043F00203DAB2214B1A70FFF711FB0346FB751CE0174B1B79DBB2012B19D8154B9B78DBB2DB43DBB2124A1279D2B211461046174A125CD2B21340DAB2144B5A5407
:4026C000FFF7F6FA0346FB7503E000BF0CE000BF0AE000BF08E000BF06E000BF04E000BF02E000BF00E000BFFB7D18461837BD4680BD00BF006000404F82FF1F4C82FF1F77
:402700004482FF1F3482FF1FC082FF1F5182FF1FC482FF1FB0B58AB000AF7860324B07F114041D460FCD0FC42B682370002387F826307B68002B52D07B6822221A707B6885
:40274000013303221A7007F10C03184601F06CF8022387F827303EE097F827307A68134497F8262007F128010A4412F81C2C1209D2B207F128010A4412F8142C1A7097F87D
:40278000273001337A68134400221A7097F8273002337A68134497F8262007F128010A4412F81C2C02F00F0207F128010A4412F8142C1A7097F8273003337A681344002202
:4027C0001A7097F82630013387F8263097F82730043387F8273097F82730212BBCD900BF2837BD46B0BD00BF884F000090B482B000AF0123FB7180E0464AFB791B011344F7
:402800000C221A70FA79444913465B0013449B000B4405331B78DBB2002B1CD0FA793E4913465B0013449B000B4404331B78DBB25BB2002B07DA394AFB791B01134402337E
:402840000C221A700EE0354AFB791B011344023308221A7006E0314AFB791B011344023380221A702B48F979FA792B4C13465B0013449B00234406331B889BB2DAB20B011D
:40288000034406331A702348F979FA79224C13465B0013449B00234406331B889BB21B0A9BB2DAB20B01034407331A701948F979FA79194C13465B0013449B002344063314
:4028C0001B889BB2DAB20B01034404331A701148F979FA79104C13465B0013449B00234406331B889BB21B0A9BB2DAB20B01034405331A70FB790133FB71FB79082B7FF635
:402900007BAF074BFF221A7000BF0837BD4690BC704700BF706000405482FF1FFC5F00400A60004080B58AB000AF0346FB7100237B84002387F8273050E097F82720B34974
:4029400013465B0013449B000B4400221A7097F82720AE4913465B0013449B000B44023300221A7097F82720A84913465B0013449B000B44033300221A7097F82720A349B3
:4029800013465B0013449B000B44083300221A8097F827209D4913465B0013449B000B440A3300221A7097F82720984913465B0013449B000B44013300221A7097F827202F
:4029C000924913465B0013449B000B44053300221A7097F82730013387F8273097F82730082BAAD9FB79002B16D0002387F825300EE097F82530864A0021D15497F825304F
:402A0000844A0021D15497F82530013387F8253097F82530012BECD97F4B1B78DBB2002B00F04A810023FB767B4B1B78DBB2013BDBB2184600F076FA78617B695B683B61D4
:402A40003B6907331B7803F04003002B08D0734B1B78DBB243F00103DAB2704B1A7007E06E4B1B78DBB223F00103DAB26B4B1A707B6908337B617B691B7887F827300123B7
:402A800087F82530B6E07B695B68FB61002387F82630A3E097F82520FB699B7803F07F039A4240F0938097F82520584913465B0013449B000B4408331B889AB2FB699B8834
:402AC0009A420CD297F82520FB6998884F4913465B0013449B000B44083302461A80FB691B781A464A4B9B5CDAB2FB695B789A426CD197F82520FB699878444913465B00D2
:402B000013449B000B44043302461A7097F82520FB69D8783D4913465B0013449B000B4402461A70FB69DB7803F00303FB73FB699B785BB2002B1CDA97F82520FB7B012B3D
:402B400001D1072000E00D20304913465B0013449B000B44053302461A7097F825202B4913465B0013449B000B44013301221A701BE097F82520FB7B012B01D1052000E071
:402B80000920224913465B0013449B000B44053302461A7097F825201C4913465B0013449B000B44013300221A70FB699B790A2B03D0FB699B79022B08D1FA7E97F825301A
:402BC0001946F869FEF796FD0346FB76FB690833FB6197F82630013387F8263097F8262097F827309A42FFF455AF97F82530013387F8253097F82530082B7FF644AF7B690D
:402C00005B68FB61002387F8253020E05482FF1FC082FF1F3482FF1F4F82FF1F5182FF1FFB699B7803F07F02FB691878244913465B0013449B000B440A3302461A70FB69C2
:402C40000833FB6197F82530013387F8253097F8252097F827309A42E2D300F09DF90246184B1A6000237B84012387F827301DE097F82720124913465B0013449B000B449C
:402C800006337A8C1A8097F827200D4913465B0013449B000B4408331B889AB27B8C13447B8497F82730013387F8273097F82730082BDDD9FFF79AFD00BF2837BD4680BDE9
:402CC0005482FF1F4882FF1F90B585B000AF8F4B1B78DBB2002B00F015818C4B1B78DBB2013BDBB2184600F01DF978607B6808337B607B681B78FB707B685B68BB60844BBE
:402D00001B78BB700023FB73F7E0BB681B78BA789A4240F0EC80BB787E4AD35CDAB2BB685B789A4240F0E380BB689B7803F07F037B70BB68DB7803F003033B707A78764991
:402D400013465B0013449B000B44033300221A707A78BB689878704913465B0013449B000B44043302461A707A78BB68D8786A4913465B0013449B000B4402461A707A78CF
:402D8000BB689888644913465B0013449B000B44083302461A80BB689B785BB2002B1ADA7A783B78012B01D1072000E00D205A4913465B0013449B000B44053302461A7036
:402DC0007A78554913465B0013449B000B44013301221A7019E07A783B78012B01D1052000E009204C4913465B0013449B000B44053302461A707A78474913465B00134482
:402E00009B000B44013300221A70444A7B781B011344023301221A70404879787A783E4C13465B0013449B00234408331B889BB21B0A9BB2DAB20B0103441A70374879787A
:402E40007A78354C13465B0013449B00234408331B889BB2DAB20B01034401331A70304879787A782C4C13465B0013449B00234406331B889BB2DAB20B01034406331A705F
:402E8000274879787A78244C13465B0013449B00234406331B889BB21B0A9BB2DAB20B01034407331A701E4879787A781A4C13465B0013449B00234406331B889BB2DAB294
:402EC0000B01034404331A70154879787A78124C13465B0013449B00234406331B889BB21B0A9BB2DAB20B01034405331A70BB680833BB60FB7B0133FB73FA7BFB789A4282
:402F0000FFF403AF00BF1437BD4690BD4F82FF1F4482FF1FC082FF1F5482FF1FFC5F00407060004080B485B000AF0346FB710F4B1B78DBB20E4ADB0013445B68FB60FB686E
:402F40001033FB60FB681B78FA799A4202D30023FB6005E0FB79DB00FA6813445B68FB60FB6818461437BD4680BC70472D82FF1F2C51000080B400AF054B1B78DBB2054A22
:402F8000DB0013445B681846BD4680BC704700BF2D82FF1F2C51000080B584B000AF104B1B78DBB2013BDBB21846FFF7BBFFB860BB68002B0DD0BB685B681B79FB71FB79B8
:402FC0000233DB00BA681344BB60BB685B68FB6001E00023FB60FB6818461037BD4680BD4F82FF1F80B582B000AF0023FB71344B1B79DBB203F07F03BB71BB79002B5AD0E7
:40300000BB79082B57D8BA79B9792E480B465B000B449B00034402331B78DBB243F00103D8B2284913465B0013449B000B44023302461A70BA79234913465B0013449B007A
:403040000B44033300221A70BA79B9791D480B465B000B449B00034401331B78DBB243F00203D8B2174913465B0013449B000B44013302461A70BA79124913465B0013446E
:403080009B000B4404331B78DBB25BB2002B07DA0D4ABB791B01134402338D221A7006E0094ABB791B011344023389221A70FEF7FFFD0346FB71FB7918460837BD4680BD09
:4030C000006000405482FF1FFC5F004080B582B000AF0023FB714C4B1B79DBB203F07F03BB71BB79002B00F08A80BB79082B00F28680BA79B97945480B465B000B449B0063
:40310000034402331B78DBB223F00103D8B23F4913465B0013449B000B44023302461A70BA793A4913465B0013449B000B44033300221A70364ABB791B0113447F221A70EF
:40314000BA79B97931480B465B000B449B00034401331B78DBB223F00203D8B22B4913465B0013449B000B44013302461A70BA79264913465B0013449B000B4404331B78CE
:40318000DBB25BB2002B1BDABA79204913465B0013449B000B4401331B78DBB2012B07D11B4ABB791B01134402330C221A7022E0174ABB791B01134402330D221A701AE081
:4031C000BA79124913465B0013449B000B4401331B78DBB2012B07D10D4ABB791B011344023308221A7006E0094ABB791B011344023309221A70FEF75BFD0346FB71FB79CD
:4032000018460837BD4680BD006000405482FF1FFC5F004080B584B000AF0023FB73154B1B79BB73144B1B78DBB2013BDBB21846FFF778FEB860BB685B681B79FB71BA7B72
:40324000FB799A4202D9BB7B022B0ED8BB7BBA7B0A498A5CD1B20A4AD154BB7B054A9278D1B2064AD1540123FB73FB7B18461037BD4680BD006000404F82FF1FC082FF1FD7
:403280003482FF1F80B582B000AF0023FB710F4B1B78DBB25BB2002B12DA0C4B5B78DBB2012B00D00CE00A4B0A4A5A60094B1B789AB2074B1A80FEF7DFFB0346FB7100BF93
:4032C000FB7918460837BD4680BD00BF006000403882FF1F4851000080B500AF282000F021FA032000F0D0F9052000F01BFA032000F0CAF90F2000F015FA032000F0C4F99C
:40330000012000F00FFA022000F0BEF9052000F009FA062000F0A6F80E2000F0A3F82C2000F0A0F8082000F09DF8012000F09AF80C2000F097F8032000F094F8052000F0A2
:40334000F1F900BF80BD00BF80B500AF0C2000F089F8024B01221A7000BF80BDAE81FF1F80B500AF064B1B78002B04D1FFF7B4FF034B01221A70FFF7E7FF00BF80BD00BFE1
:40338000AF81FF1F80B582B000AF03460A46FB711346BB71FB79032B26D801A252F823F0B1330000BF330000CD330000DB330000BB79803BDBB2184600F054F815E0BB795C
:4033C000403BDBB2184600F04DF80EE0BB796C3BDBB2184600F046F807E0BB792C3BDBB2184600F03FF800E000BF00BF0837BD4680BD00BF80B584B000AF78600123FB739E
:403400007B681B78BB730BE0BB7B184600F010F8FB7B7A6813441B78BB73FB7B0133FB73BB7B002BF0D100BF1037BD4680BD00BF80B584B000AF0346FB7100F02DF8FB796C
:403440001B09FB73FB7B184600F0E2F8FB7903F00F03FB73FB7B184600F0DAF800BF1037BD4680BD80B584B000AF0346FB7100F013F8FB791B09FB73FB7B184600F004F9CA
:40348000FB7903F00F03FB73FB7B184600F0FCF800BF1037BD4680BD80B582B000AF4FF4CA737B60554A554B1B78DBB223F07F03DBB21370524B1B78DBB223F00F03FB7065
:4034C0004F4AFB7843F00F03DBB213704D4B1B78DBB223F00F03FB704A4AFB7813704A4B1B78DBB223F00F03FB70474AFB781370424A424B1B78DBB223F02003DBB213704E
:403500003E4A3E4B1B78DBB243F04003DBB21370002000F029F9394A384B1B78DBB243F01003DBB21370012000F01EF9374B1B78FB70324A314B1B78DBB223F01003DBB2B3
:403540001370002000F010F9FB7803F00803FB702A4A2A4B1B78DBB243F01003DBB21370012000F001F9254A244B1B78DBB223F01003DBB21370FB78002B02D10A2000F0AA
:40358000F3F87B68013B7B60FB78002B02D07B68002BBDD1194A194B1B78DBB223F04003DBB21370154A154B1B78DBB223F07F03DBB21370124A124B1B78DBB223F00F034B
:4035C000DBB213700F4B1B78DBB223F00F03FB700C4AFB7843F00F03DBB213700A4B1B78DBB223F00F03FB70074AFB7843F00F03DBB2137000BF0837BD4680BD2051004086
:403600002251004023510040245100402151004080B582B000AF0346FB711A4A194B1B78DBB243F02003DBB21370164A154B1B78DBB223F04003DBB21370002000F094F8C1
:40364000104A104B1B78DBB223F00F03DBB213700C490C4B1B78DAB2FB791343DBB243F01003DBB20B70012000F07EF8054A054B1B78DBB223F01003DBB2137000BF083756
:40368000BD4680BD2051004080B582B000AF0346FB71154A144B1B78DBB223F06003DBB21370114A104B1B78DBB223F00F03DBB213700D490C4B1B78DAB2FB791343DBB2BC
:4036C00043F01003DBB20B70012000F04DF8064A054B1B78DBB223F01003DBB2137000BF0837BD4680BD00BF2051004080B400AF054B1B78DBB203F040039B09DBB218466A
:40370000BD4680BC704700BF8F45004080B483B000AF0346FB7101BE00BF0C37BD4680BC704700BF80B582B000AF786008E00C4B1B68184600F03CFB7B68A3F500437B60B1
:403740007B68B3F5004FF2D8064B1B687A6802FB03F3184600F02CFB00BF0837BD4680BD0081FF1FF880FF1F80B582B000AF0346FB80FB88054A127802FB03F3184600F09D
:4037800017FB00BF0837BD4680BD00BFFC80FF1F80B584B000AF03463960FB710F4B1B68FB60FB791F2B02D90020FFF7AFFFFB7903F01F0310339B00FA6813441B68BB60A7
:4037C000FB7903F01F0310339B00FA6813443A681A60BB6818461037BD4680BD08ED00E080B582B000AF03460A46FB711346BB71BB79072B02D90020FFF788FFFB791F2B74
:4038000002D90020FFF782FFFB7903F01F0303F1604303F56443BA795201D2B21A7000BF0837BD4680BD00BF80B483B000AF7860264B1B78DBB21A467B681A60244B1B7888
:40384000DBB21B027A6812681A437B681A60214B1B78DBB21B047A6812681A437B681A601D4B1B78DBB21B067A6812681A437B681A607B680433194A1278D2B21A60184BA0
:403880001B78DBB21A027B6804337968043109680A431A60134B1B78DBB21A047B6804337968043109680A431A600F4B1B78DBB21A067B6804337968043109680A431A605E
:4038C00000BF0C37BD4680BC704700BF0301004904010049EC460040020100490101004900010049050100490601004980B500AF064B1B78002B04D100F00AF8034B012259
:403900001A7000F043F800BF80BD00BFB081FF1F80B582B000AF1B4B1B78DBB223F03F03FB71184AFB7943F00903DBB21370164A154B1B78DBB243F00103DBB21370FF2000
:4039400000F044F8FF2000F05FF87F2000F06CF8002000F079F800F04AFA0346BB710A4A094B1B78DBB243F01003DBB21370BB79184600F040FA00F039F800BF0837BD469C
:4039800080BD00BF7A6500409A65004080B400AF054A054B1B78DBB263F07F03DBB2137000BFBD4680BC70477A65004080B400AF054A054B1B78DBB203F07F03DBB213702B
:4039C00000BFBD4680BC70477A65004080B483B000AF0346FB71044AFB79137000BF0C37BD4680BC704700BF0A65004080B500AF01E000F045F800F037F8034603F010031D
:403A0000002BF6D100BF80BD80B483B000AF0346FB71044AFB79137000BF0C37BD4680BC704700BF4A65004080B483B000AF0346FB71044AFB79137000BF0C37BD4680BC91
:403A4000704700BF2A65004080B483B000AF0346FB71044AFB79137000BF0C37BD4680BC704700BF8A65004080B400AF034B1B78DBB21846BD4680BC704700BF6A65004098
:403A800080B400AF034B1B78DBB21846BD4680BC704700BF5A65004080B582B000AF632000F06CF8632000F085F800F0A0F90346FB710A4A094B1B78DBB243F01003DBB2ED
:403AC0001370FB79184600F096F900F083F8012000F038F800BF0837BD4680BD9565004080B400AF054A054B1B78DBB263F07F03DBB2137000BFBD4680BC70477565004078
:403B000080B500AF064B1B78002B04D1FFF7C4FF034B01221A70FFF7E3FF00BF80BD00BFB181FF1F80B400AF054A054B1B78DBB203F07F03DBB2137000BFBD4680BC70474A
:403B40007565004080B483B000AF0346FB71044AFB79137000BF0C37BD4680BC704700BF8565004080B400AF034B1B78DBB21846BD4680BC704700BF6565004080B483B065
:403B800000AF0346FB80044AFB88138000BF0C37BD4680BC704700BF486A004080B400AF034B1B889BB21846BD4680BC704700BF886A004080B483B000AF0346FB80044AF7
:403BC000FB88138000BF0C37BD4680BC704700BF086A004080B500AF01E0FFF7DFFFFFF7C1FF034603F00803002BF6D100BF80BD80B582B000AF786000F03CF8786800F0E0
:403C000009F8072000F018F800F028F800BF0837BD4680BD80B485B000AF7860054B1B68FB60FB6850337A681A6000BF1437BD4680BC704708ED00E080B483B000AF03467A
:403C4000FB71054AFB795B01DBB2137000BF0C37BD4680BC704700BF04E400E080B400AF034B10221A6000BFBD4680BC704700BF00E100E080B400AF034B10221A6000BF7C
:403C8000BD4680BC704700BF80E100E080B500AF064B1B78002B04D100F00AF8034B01221A7000F025F800BF80BD00BFB281FF1F80B400AF094B72221A70094B3E221A70AD
:403CC000084B06221A70084B47221A70074B00221A7000BFBD4680BC704700BF886400408865004028640040386400408965004080B582B000AF00F07AF80346FB71114A50
:403D0000104B1B78DBB243F02003DBB213700E4A0D4B1B78DBB243F01003DBB213700B4A0A4B1B78DBB243F01003DBB2137000F025F8FB79184600F05EF800BF0837BD4636
:403D400080BD00BF98640040986500409965004080B483B000AF0346FB71064B1B78002B02D0054AFB79137000BF0C37BD4680BC704700BFB281FF1F4964004080B400AFC6
:403D8000094A094B1B78DBB243F00203DBB21370064A064B1B78DBB243F00203DBB2137000BFBD4680BC7047A2430040B2430040142816D902B4012114381049097811F0B2
:403DC000C001890904B40E4A515C04BC00BF00BF00BF8841FDD500BF00BF02BC704700BF00BF70F10400FCD570470B050709EFF3108072B6704780F3108870470048004002
:403E0000EA3D000080B582B000AF1D4B1B78DBB203F00303012B02D0022B04D012E0184B1B79BB7111E0164B1B79DBB203F07F02144913465B0013449B000B440A331B78A7
:403E4000BB7102E00023BB7100BF0F4B1A68BB7913441B78022B06D0032B09D1FEF724F80346FB7107E0FDF72FFA0346FB7102E00023FB7100BFFB7918460837BD4680BD21
:403E8000006000405482FF1F4882FF1F0A22002100F0EAB8014B1868704700BF6481FF1F0E4B70B51E460E4C0025E41AA410A54204D056F8253098470135F8E701F0F4F91F
:403EC000084B094C1E46E41AA4100025A54204D056F8253098470135F8E770BDB4520000B4520000B4520000BC52000010B5431E0A44914204D011F8014B03F8014FF8E7A6
:403F000010BD03460244934202D003F8011BFAE7704700000EB400B54FF402719CB0ADF814106FF00041049107914FF6FF711DAB02900690084853F8042BADF8161000681E
:403F400002A9019300F0F4F8029B00221A701CB05DF804EB03B070476481FF1F2DE9F0470F4680463F48D0F800903D4615F8014B09EB0400407800F0080000F0FF0608B1E7
:403F80002F46F2E72D2C03D1BD1C7C78012603E02B2C04BF7C78BD1C13B1102B0AD15BE0302C57D1287800F0DF0058284DD16C7810230235002E14BF4FF0004C6FF0004C9D
:403FC000BCFBF3FA0027384603FB1ACC09EB040E9EF801E01EF0040F01D0303C0BE01EF0030E1BD0BEF1010F0CBF4FF0370E4FF0570ECEEB0404A34210DDB7F1FF3F0AD0BF
:40400000504506D801D1644503DC03FB0040012701E04FF0FF3715F8014BD7E77B1C0CD1002E4FF0220314BF4FF000406FF00040C8F800302AB9BDE8F08706B1404272B19E
:4040400007B1691E1160BDE8F0873024002BB1D10823AFE70A23ADE7302CA3D0AAE7BDE8F08700BF6881FF1F13460A46014602480068FFF773BF00BF6481FF1F2DE9F047D6
:404080008E6882469E420C46914698463ED88A8912F4906F3AD02568096902236F1A656905EB450595FBF3F57B1C43449D4238BF1D4653050FD5294600F040FB064698B134
:4040C0003A462169FFF712FFA38923F4906343F08003A38113E02A4600F08EFB064670B92169504600F0DEFA0C23CAF80030A3894FF0FF3043F04003A381BDE8F08726616E
:404100003E44266046466561ED1BA560464528BF464649463246206800F0A8FAA36800209B1BA36023681E442660BDE8F08700002DE9F04F9DB003938B8980461C060D46FF
:4041400016460DD50B695BB9402100F0F7FA2860286118B90C23C8F80030CDE040236B610023099320238DF82930DFF89CB130238DF82A3037463C4614F8013B1BB9B7EB67
:40418000060910D003E0252BF9D02746F3E74B46324629464046FFF771FF013000F0A780099B4B4409933B78002B00F0A08000234FF0FF3204930793059206938DF8533068
:4041C0001A930126052221784E4800F041FA671C049B38B14B4A3C46801A06FA00F018430490EFE7D90644BF20228DF853201A0744BF2B228DF8532022782A2A03D0079A12
:4042000000210A200BE0039A111D12680391002A10DA524243F00200079204900BE027463B780134303B092B03D800FB02320121F5E701B107923B782E2B1ED17B782A2BF0
:404240000AD1039B02371A1D1B680392002BB8BF4FF0FF33059310E0002319460593781C0A2407463A780130303A092A03D804FB01210123F5E703B1059103223978224873
:4042800000F0E6F940B14023CBEB000003FA00F0049B013718430490397806221B487E1C8DF8281000F0D4F988B1194B33B9039B073323F007030833039314E003AB00939E
:4042C0002A46144B04A94046AFF3008007E003AB00932A460F4B04A9404600F093F8B0F1FF3F824603D0099B5344099342E7AB895B0601D4099801E04FF0FF301DB0BDE8B4
:40430000F08F00BF73520000795200007D520000000000007D4000002DE9F04791461F460A698B6806469342B8BF1346C9F8003091F843200C46DDF8208012B10133C9F8E7
:4043400000302368990642BFD9F800300233C9F80030256815F0060510D104F1190A07E00123524639463046C04701301AD00135E368D9F800209B1A9D42F1DB94F843309A
:404380002268003318BF012392060FD5E118302081F843005A1C94F845102244023382F8431003E04FF0FF30BDE8F08704F1430239463046C0470130F4D02268D9F80050C2
:4043C000E36802F00602042A08BF5D1B2269A3680CBF25EAE57500259342C4BF9B1AED184FF000091A344D4509D00123224639463046C0470130D5D009F10109F3E70020AD
:40440000BDE8F0872DE9F04317460A7E85B06E2A984606460C460C9B01F1430E00F0AE8011D8632A22D009D8002A00F0BB80582A40F0CA8081F84520834955E0642A1ED0EC
:40444000692A1CD0C0E0732A00F0B08009D86F2A2ED0702A40F0B8800A6842F020020A603EE0752A24D0782A3AD0ADE01A6801F14205111D1960136884F84230A8E02168F0
:404480001A6811F0800F02D0111D196008E011F0400F02F10401196002D0B2F9003000E01368002B3CDA2D225B4284F8432037E021681A6811F0800F02D0111D196007E0A2
:4044C00011F0400F02F10401196001D0138800E01368227E5C496F2A14BF0A2208221BE078225A4984F845202268186812F0800F00F104051D6003D1550601D5038800E092
:404500000368D00744BF42F0200222601BB9226822F0200222601022002084F8430001E049490A226568002DA56008DB206820F0040020602BB9002D7DD175460CE0002B6D
:4045400079D07546B3FBF2F002FB1033CB5C05F8013D03460028F5D1082A0BD12368DA0708D5236962689A42DEBF302305F8013C05F1FF35C5EB0E0323612EE008681A68AC
:4045800010F0800F496903D0101D1860136808E010F0400F02F104001860136801D0198000E0196000232361754616E01A68111D1960156800216268284600F049F808B1A2
:4045C000401B6060636804E004F1420584F8422001232361002384F84330CDF800803B4603AA21463046FFF797FE013002D14FF0FF3026E023692A4639463046C0470130A1
:40460000F5D023689B0710D5002504F1190907E001234A4639463046C0470130E7D00135E368039A9B1A9D42F2DBE068039B9842B8BF184605E00B7804F1420584F8423042
:404640008AE705B0BDE8F083845200009552000010B5C9B202449042034605D01C7801308C42F8D1184610BD002010BD884210B501EB020301D8421E0BE09842FBD2811871
:40468000D21AD34204D013F8014D01F8014DF8E710BD994204D011F8014B02F8014FF8E710BD000038B50546002944D051F8043C0C1F002BB8BFE41800F0D4F81E4A136879
:4046C000114613B96360146030E0A3420DD92268A018834201BF18685B681218226063600C6023E0A24203D813465A68002AF9D118681918A1420BD121680144581882425D
:40470000196013D110685268014419605A600DE002D90C232B6009E021686018824201BF106852680918216062605C602846BDE8384000F098B838BDB881FF1F70B5CD1C0B
:4047400025F0030508350C2D38BF0C25002D064601DBA94202D90C23336046E000F082F8234B1C681A462146A1B10B685B1B0ED40B2B03D90B60CC18CD501EE08C420BBF27
:4047800063684B681360636018BF0C4615E00C464968E9E7174C23681BB9304600F052F820602946304600F04DF8431C18D0C41C24F00304A0420DD12560304600F053F810
:4047C00004F10B00231D20F00700C31A0ED05A42E25070BD211A304600F034F80130EBD10C233360304600F03EF8002070BD00BFB881FF1FB481FF1FF8B5074615460E4635
:4048000021B91146BDE8F840FFF798BF1AB9FFF749FF2846F8BD00F027F885420ED929463846FFF78BFF044650B131462A46FFF75DFB31463846FFF735FF01E03046F8BD14
:404840002046F8BD38B5064C0023054608462360FCF758F9431C02D1236803B12B6038BDF882FF1F7047704751F8040C0028BEBF091851F8043CC0180438704700000000F1
:4048800020202020202020202020202020202020202020200000000048656C6C6F000000506C6561736520656E74657220616D6F756E74206F6620637261627320287570EB
:4048C00020746F20313237292E205465726D696E6174657320776974682063617272696167652072657475726E206F72207468697264206368617261637465722E20416E68
:4049000079206E6F6E2D696E74656765722077696C6C20626520696E746572707265746564206173206120302E000000300000000D0000004572726F722E20506C65617376
:404940006520656E7465722061206E756D62657220555020544F20313237000020202020202020202020200043726162733A202564000000050014013051004040000000DF
:404980000140001000140140000480180140800300400140000A004C01400002005001402000000000180140044F0000800000000145004004520040016400400465004090
:4049C00002070140500801402F090140581401404215014005170140101801404B190140501A01404F1B01400640014004410140044201400443014004470140084801401C
:404A000003490140064C0140084D014009500140025101407E020810091061807C408872850D8838890F8A0D8801890400010108040C05040804090C0C420D0110031302EB
:404A400014F3150E160C184C19021AA31B0C1C4F1E90210C22B3230224FF250129012A402C082D0E3101320F330E347C368C3AA83B204001470449FF4A074BFF4C404D2030
:404A80004EF04F05500856025710580459045A045B045C115D115F01604061A8624063209801B201BE04C031C102C50EC6B0C70CC819C9FFCAFFCBFFCEF0CF44D00CD8042B
:404AC000DA04DD01DF01E6C0EA40EB02020203010540060807600B080D020E291606170519041E292504260A27042D502E05361639803A403D803E2A4014414046014B0C5B
:404B000050085110540456405E406D906E04762A772088048910C0F0C2F2C4F0CAF0CCE0CEF0D01ED610E220E6200602070309010A030B0E0C060E01110C1201130319018A
:404B40001B06260527082A062B0C310F32073A083B02405149FF4AFF4BFF4F015018580459045A045C115D025F016040624064406540668068806A806C806E8080018510C1
:404B80008D1C8F029202950C971199099B109F03A202A510A70CAD14B11FB201B602BE44C045C5ECC602C807C9FFCAFFCBFFCD83CE03CF01D018D280D401D804D904DA04A6
:404BC000DB04DC10DD22DF01E040E240E440E540E680E880EA80EC80EE800090010407400B800F80102013201640183019041E021F0820802102274029102A082C213020E1
:404C00003102351436103760382039083C803D043E084380464048014D084F8157C05C805D085F017401764078807A018010838084418504874088208B0891049801A2106F
:404C4000AE10C017C218C416CA56CC75CE56D088D218D6D0E006E208E40CE601EE0891049801E208EA02EE0A8002820484058805A605AA04B003B604B802BE40D401D80498
:404C8000DB04DC01DD10DF0100140240048006800C040D020E200F081008121013301628174019801B031C401D821F142401262027402E8C2F88361637403C403D183E217A
:404CC0004424458047044E0A4F085708580159845B205C016402660467A8874088028A208B2091109205941495409640980199049A409B049D409E059F40A008A104A21EF5
:404D0000A502B001B304C09EC250C4E6CAF0CCF0CEF0D070D230D68FD8B0EA02EE0A000107020F01120213021B042603300131013302340237043F044040410345D1470209
:404D4000481349FF4AFF4BFF4DA04F04501852805405580459045A045B045F01604062C06440654066C068C06AC06CC06EC082088301840385148708880489068B088D0679
:404D80008E088F1894049701980499019C04A201A30AA402A501A803A906AB08AF10B004B101B208B31EB603B880B902BB08BE41D608D804D904DB04DC12DD90DF01000236
:404DC000044005020628071409020E2910201440165017201A801B201D801E401F08200221022204249027202C402E282F0230203102361438083B403C803E013F1441064F
:404E000045804601482049015004510459015A885D8065406680734080448318850286508704884089808B2092019310949496409A409B049D409E91A214A302A720AF0166
:404E4000B420B540B780C0F8C2E8C474CAF0CC65CEFAD003D61BD810E020E6203381364037083810CCF0CE1094109F09A640A78094109F09A640A78094109F09A640A780DD
:404E800008080B040F40C20E870894109F08AE40AF81E210EA40EE5080109410E68067088B04AC08AF44D801E0011080734088808B40C408DC01E004E601000201010C02CD
:404EC0000D01100711011A061C071D0100EA010300010100000000008000408080008000000000004000000000000000C00000000000001F1B00100000000000007F7F00A2
:404F0000000000001000450C0000001000030000000C02000400380C0000000C000C020000050002000C00001C0300001C000010080A44011C0302000110600C000000003A
:404F40000000441025030600010E000C11FFFFFF62A0F0410C0000001800040004040404111100010000000000004002001030100010101200000000000000000000000034
:404F8000000000000D0A000030313233343536373839414243444546000000001201000202000008B40432F2010001048001000009024300020101803209040000010202A0
:404FC0000002052400100104240202052406000105240100010705810308000A09040100020A000003070582024000000705030240000000040309042C034300790070009F
:4050000072006500730073002000530065006D00690063006F006E0064007500630074006F0072003803430044004300200043006F006D006D0075006E0069006300610073
:40504000740069006F006E00200049006E007400650072006600610063006500260343004400430020004400610074006100200049006E00740065007200660061006300EC
:40508000650010035500530042005500410052005400000002030000320005010902A1010901A1000509190129031500250195037501810295017505810105010930093192
:4050C0001581257F750895028106C0C00000000000008103080002000100820240000A000100030240000A00020A000001000000B04F000003000000D0500000000000007F
:4051000000000000000000000000000000000000E8500000010000009C4F0000000000000000000001000000EC500000010000001451000012034D00530046005400310028
:405140003000300001000000280000000001040001000000000000000001435955534200000030303030310000000000000000004300002020202020202020202828282825
:4051800028202020202020202020202020202020202020881010101010101010101010101010100404040404040404040410101010101010414141414141010101010101EB
:4051C000010101010101010101010101010110101010101042424242424202020202020202020202020202020202020202021010101020000000000000000000000000002D
:40520000000000000000000000000000000000000000000000000000000000000000000000000000000000000000000000000000000000000000000000000000000000006E
:40524000000000000000000000000000000000000000000000000000000000000000000000000000000000000000000000000000000000232D302B2000686C4C0065666711
:4052800045464700303132333435363738394142434445460030313233343536373839616263646566000000F8B500BFF8BC08BC9E4670474D000000ED0B0000F8B500BFE8
:4052C000F8BC08BC9E46704729000000E0520000C880FF1FA800000090010000000000000000000001000000020000000083FF1F00C2010000000800C20100000008000067
:40530000A120000000000200000000000090D00300FA0000400000000000007D000000000000000000000000000000000000000000000000000000000000000070510000CF
:405340000000000000000000000000000000000000000000000000000000000000000000000000000000000000000000000000000000000000000000000000000481FF1F8A
:40538000725100000000000000000000000000000000000000000000000000000000000000000000000000000000000000000000000000000000000000000000000000002A
:4053C00000000000000000000000000000000000000000000000000000000000000000000000000000000000000000000000000000000000000000000000000000000000AD
:40540000000000000000000000000000000000000000000000000000000000000000000000000000000000000000000000000000000000000000000000000000000000006C
:40544000000000000000000000000000000000000000000000000000000000000000000000000000000000000000000000000000000000000000000000000000000000002C
:4054800000000000000000000000000000000000000000000000000000000000000000000000000000000000000000000000000000000000000000000000000000000000EC
:0200000480007A
:0200000490006A
:040000000800C0052F
:0200000490105A
:04000000BC90ACAF55
:0200000490303A
:020000003DE4DD
:0200000490402A
:4000000000000000000000000000000000000000000000000000000000000000000000000000000000000000000000000000000000000000000000000000000000000000C0
:400040000000000000000000000000000000000000000000000000000000000000000000000000000000000000000000000000000000000000000000000000000000000080
:400080000000000000000000000000000000000000000000000000000000000000000000000000000000000000000000000000000000000000000000000000000000000040
:4000C0000000000000000000000000000000000000000000000000000000000000000000000000000000000000000000000000000000000000000000000000000000000000
:0200000490501A
:0C00000000012E16106900012E344E4D38
:00000001FF