:400000000080002011000000890500008905000008B5044B1A6803F53F5302331A6000F0D3FA00BFFA46004010B5054C237833B9044B13B10448AFF300800123237010BD8E
:400040004881FF1F00000000E0160000084B10B51BB108490848AFF300800848036803B910BD074B002BFBD0BDE81040184700BF000000004C81FF1FE0160000C880FF1F16
:400080000000000008B500F01FFE08BD08B5424A13880133138000F057FB20B13E4A53880133538003E03C4A9388013393803A4B1B88642B6ED1384B9B79ABB9364BDB79F8
:4000C00093B9354B5B88592B07D9334B0120187200225A8000F040FB18E02F4B00201872988000F039FB11E02B4B5B88452B07D9294B0120187200225A8000F02DFB05E093
:40010000254B00201872988000F026FB224B5A7A0132D2B25A72002119805989490089B2187A01435981CBB2FF2B0DD11A4B9B7953B9194BDB793BB9174B00225A725A8107
:4001400001229A711A730EE0134B9B79012B0AD1082A08D9104BD98100225A815A721A7301221A74DA710C4BDB79012B12D10A4B5B7A072B0ED9084B5B89012B03D10122EC
:40018000054B5A7402E00122034B9A74024B0022DA719A7108BD00BF6481FF1F10B4421000F0010002F00101002304E0521002F0010461400133062BF8DD814201D1012088
:4001C00000E0002010BC704730B583B02B4B1B7B012B09D1012000F041FC294800F030FC0022264B1A7347E0244B1B7C012B1CD1224DEC892046FFF7D1FF6208EA81214CBF
:40020000B0FA80F35B092049204600F045FE012000F024FC0021084600F07AFC204600F00FFC0023AB712B7426E0144B5B7C012B11D10021012000F06BFC144B93E8030036
:4002400000908DF80410684600F0FAFB0B4B00229A715A7410E0094B9B7C012B0CD10021012000F055FC02A8094B40F8083D00F0E7FB0022014B9A7403B030BD6481FF1F1E
:40028000E41600009481FF1FF4160000041700006261640008B500F02DFC1D4C1D4D0FCD20606160A260E3602B7823740021084600F02EFC204600F0C3FB41F2883000F008
:4002C000C3FC62B600F060FD134800F085FD0021084600F0D9FC00F0EBFA00F077FA00F025FA00F0A3FC0D4800F04AFC0C4D0FCD20606160A260E3602B88238200210846F8
:4003000000F006FC204600F09BFBFFF75DFFFCE78881FF1F0C170000850000008D00000020170000FEE700BFF0B40022174611E050F82760F3B226F0FF0608E001EB4205B5
:4003400011F812406D78A5550132013BDBB2002BF4D10137162FEBD9F0BC70470C4B1B78DBB203F007010B4A11701B09013213700122094B1A70102203F6B3131A702022D3
:4003800003331A704422A3F24D231A70704700BFCF0100496E5800400D51004008B50A46002100F070FD08BD38B540F65F12274B1A801823264A137043F67F610232118059
:4003C000023213700222234B1A7008224FF040231A70002403F500731C701F4B1B78DBB21E4A13704FF442721D4B1A8041F25122023B1A8019250CE01A4B1B7803F00103B5
:4004000043EA440404F003044FF4F07000F0F4FC013D0DB1032CEFD115B90320FFF782FF114B4FF480721A8007221A7000220F490A704820023108701A700222033B1A701B
:400440000B4A137843F00303137038BD8040004082400040004300400A010049A146004022420040254200400440004006400040A243004008B500F0FBFC08BD38B572B6F3
:40048000304A137843F00403137000240CE02E4D630019194A0011462A44084691882858FFF77CFF0134E4B2082CF0D927494FF09040FFF739FF0322254B1A8002F180429A
:4004C00002F5A832137843F0020313701032137843F0020313701F4C237843F040032370A2F58632513A137843F010031370082219491A48FFF7BEFF082219491948FFF79C
:40050000B9FF082218491948FFF7B4FF082218491848FFF7AFFF184A137843F008031370164D61232B70FFF73FFF81232B700122134B1A70FFF712FF0E2221461148FFF744
:4005400099FF38BDE8460040341700005C00004848580040A043004094030048025100409C03004812510040A403004822510040AC03004832510040224300400048004009
:4005800004000840B043004008B500F045FC03680C2B00D1FEE7FEE708B5094B1A681044084BC31A802B02DC054B186005E000F033FC0C2303604FF0FF32104608BD00BF49
:4005C000CC80FF1FA881FF1F08B5104E104D16E029686B68AC68002204E051F8040B43F8040B0432A242F8D1E868002203E0002143F8041B04328242F9D11035013E002E93
:40060000E6D100F00FFCFFF745FEFEE701000000C417000008B5104A104B1A60104A136843F40073136000230AE0032B03D80D4A52F8231000E00C490C4A42F8231001331A
:400640002F2BF2D90A4B1A780A4B1A70074A0A4B1A60FFF713FF08BD0004FA050CED00E014ED00E000000000890500000080FF1FBC760040C080FF1F08ED00E0054A13783A
:4006800043F0010313701032137843F001031370704700BFA74300400F490B7803F0FC0200F0030313430B7001280AD10B4B1B78DBB20B4A13700B4B1B78DBB20132137048
:4006C0007047094B1B78DBB2054A1370074B1B78DBB201321370704740580040100100493046004014010049AD010049B501004908B50220FFF7D0FF0B4B1A7802F0DF0283
:400700001A701A7802F0FB021A701A7842F008021A7003F287231A7802F0E7021A701A7842F010021A7008BD4058004008B5054B1B7823B9FFF7DCFF0122024B1A70FFF7FC
:400740009DFF08BD7781FF1F024B187800F00100704700BF965B0040044A137803F0EF03000100F010001843107070470051004008B500F049FB044A137843F01003137018
:4007800000F046FB08BD00BF9765004008B5044A137843F001031370FFF7EAFF08BD00BF75650040054B1A7802F0F8021A701A7800F0070010431870704700BF876500401D
:4007C00008B50020FFF7EEFF08BD00BF08B5054B1B7823B9FFF7F4FF0122024B1A70FFF7D5FF08BD7881FF1F024A137843F080031370704777640040014B1880704700BF74
:400800000C680040014B1880704700BF8C680040014B1880704700BF4C680040014B1870704700BF87640040014B1878704700BF67640040014B188880B27047AC6800402D
:4008400008B501E0FFF7F6FFFFF7EEFF10F0100FF8D108BD10B5144A137803F0C00343F0090313701F32137843F0010313700F4C237843F001032370FF20FFF7BDFFFF20F3
:40088000FFF7C0FF7F20FFF7C3FF0020FFF7C6FF00F0BAFA237843F01003237000F0B8FAFFF7CEFF10BD00BF776400409764004008B5054B1B7823B9FFF7CCFF0122024B45
:4008C0001A70FFF791FF08BD7981FF1F10B50B4C237803F09F032370237803F0F00323702378184340F010002070012000F0C2F9237803F0EF03237010BD00BF2051004036
:4009000038B505460E4C237843F020032370237803F0BF032370002000F0ACF9237803F0F003237023781D4345F010052570012000F0A0F9237803F0EF03237038BD00BFAA
:400940002051004070B5354B1A7802F08002D2B21A7033490A7802F0F00242F00F020A7001310A7802F0F0020A7001310A7802F0F0020A701A7802F0DF021A701A7842F097
:4009800040021A704FF4CA76002000F073F9234D2B7843F010032B70012000F06BF9214B1C78E4B22B7803F0EF032B70002000F061F904F00804E4B22B7843F010032B70C6
:4009C000012000F057F92B7803F0EF032B7014B90A2000F04FF9013E0CB1002ED4D10F4A137803F0BF031370137803F08003DBB213700232137803F0F00313700132137862
:400A000003F0F00343F00F0313700132137803F0F00343F00F03137070BD00BF20510040225100402151004010B50446FFF78AFF2009FFF765FF04F00F00FFF761FF10BD63
:400A400038B505460078012404E0FFF7EDFF285D0134E4B20028F8D138BD00BF10B50446FFF770FF2009FFF731FF04F00F00FFF72DFF10BD08B5282000F0E6F80320FFF745
:400A800025FF052000F0E0F80320FFF71FFF0F2000F0DAF80320FFF719FF012000F0D4F80220FFF713FF052000F0CEF80620FFF7D5FF0E20FFF7D2FF2C20FFF7CFFF0820CD
:400AC000FFF7CCFF0120FFF7C9FF0C20FFF7C6FF0320FFF7C3FF052000F0B6F808BD00BF08B50C20FFF7BAFF0122014B1A7008BD7A81FF1F08B5054B5B7823B9FFF7BAFF73
:400B00000122024B5A70FFF7EBFF08BD7A81FF1F08B5032819D8DFE800F002070D1381F08000FFF79BFF08BDA1F14000C0B2FFF795FF08BDA1F16C00C0B2FFF78FFF08BD72
:400B4000A1F12C00C0B2FFF789FF08BD014B1B681864704708ED00E04001C0B2014B1870704700BF00E400E00122014B1A60704700E100E00122014B1A60704780E100E028
:400B800010B50446FFF7F6FF2046FFF7DFFF0720FFF7E2FFFFF7E8FF10BD00BF024A137843F080031370704775640040014B1870704700BF85640040014B1878704700BFF5
:400BC00065640040014B1880704700BF48680040014B188880B2704788680040014B1880704700BF0868004008B501E0FFF7F0FFFFF7E2FF10F0080FF8D108BD08B5312086
:400C0000FFF7E0FF3120FFF7E9FF00F0FDF8064A137843F01003137000F0FAF8FFF7E4FF0120FFF7C3FF08BD9564004008B5054B1B7823B9FFF7E2FF0122024B1A70FFF752
:400C4000ADFF08BD7C81FF1F10B5044605E0084B186800F0D1F8A4F50044B4F5004FF6D8034B586800FB04F000F0C6F810BD00BFD080FF1F08B5034B1B7A00FB03F000F0A2
:400C8000BBF808BDD080FF1F0E4B1A7802F0FC0200F00300104318701A7842F080021A701A7802F07F021A7049011A7801F0600102F09F02114319701A7842F010021A7048
:400CC000704700BF834300400122014B1A70704784430040084A137843F0010313701032137843F00103137002F64D32137843F001031370704700BFA3430040014B187077
:400D0000704700BF034F0040014B1880704700BF044F0040014B1880704700BF064F004008B5164A137803F0010313700232137803F0FC031370124B1A7802F0CF021A703D
:400D40001A7842F030021A701A7802F0F0021A701A7842F00F021A700A4A137843F0010313704FF6FF70FFF7CFFF4FF6FF70FFF7D1FF0020FFF7C2FF08BD00BF004F00401F
:400D80000B4F0040014F004008B5054B1B7823B9FFF7C6FF0122024B1A70FFF79BFF08BD7D81FF1F014B1B685864704708ED00E04001C0B2014B1870704700BF01E400E08E
:400DC0000222014B1A60704700E100E00222014B1A60704780E100E010B50446FFF7F6FF2046FFF7DFFF0720FFF7E2FFFFF7E8FF10BD00BF000000000230800803D000BFC8
:400E000001380046FCD17047EFF3108072B6704780F31088704700BF014B1868704700BF4081FF1F0E4B70B51E460E4C0025E41AA410A54204D056F8253098470135F8E757
:400E400000F0AEFC084B094C1E46E41AA4100025A54204D056F8253098470135F8E770BDAC170000AC170000AC170000B417000010B5431E0A44914204D011F8014B03F8F7
:400E8000014FF8E710BD03460244934202D003F8011BFAE7704700000EB400B54FF402719CB0ADF814106FF00041049107914FF6FF711DAB02900690084853F8042BADF82E
:400EC0001610006802A9019300F064F8029B00221A701CB05DF804EB03B070474081FF1F2DE9F0478E6882469E420C46914698463ED88A8912F4906F3AD0256809690223E9
:400F00006F1A656905EB450595FBF3F57B1C43449D4238BF1D4653050FD5294600F040FB064698B13A462169FFF7A2FFA38923F4906343F08003A38113E02A4600F08EFB59
:400F4000064670B92169504600F0DEFA0C23CAF80030A3894FF0FF3043F04003A381BDE8F08726613E44266046466561ED1BA560464528BF464649463246206800F0A8FA96
:400F8000A36800209B1BA36023681E442660BDE8F08700002DE9F04F9DB003938B8980461C060D4616460DD50B695BB9402100F0F7FA2860286118B90C23C8F80030CDE081
:400FC00040236B610023099320238DF82930DFF89CB130238DF82A3037463C4614F8013B1BB9B7EB060910D003E0252BF9D02746F3E74B46324629464046FFF771FF013008
:4010000000F0A780099B4B4409933B78002B00F0A08000234FF0FF3204930793059206938DF853301A930126052221784E4800F041FA671C049B38B14B4A3C46801A06FACF
:4010400000F018430490EFE7D90644BF20228DF853201A0744BF2B228DF8532022782A2A03D0079A00210A200BE0039A111D12680391002A10DA524243F0020007920490BB
:401080000BE027463B780134303B092B03D800FB02320121F5E701B107923B782E2B1ED17B782A2B0AD1039B02371A1D1B680392002BB8BF4FF0FF33059310E0002319469D
:4010C0000593781C0A2407463A780130303A092A03D804FB01210123F5E703B1059103223978224800F0E6F940B14023CBEB000003FA00F0049B01371843049039780622DE
:401100001B487E1C8DF8281000F0D4F988B1194B33B9039B073323F007030833039314E003AB00932A46144B04A94046AFF3008007E003AB00932A460F4B04A9404600F07B
:4011400093F8B0F1FF3F824603D0099B5344099342E7AB895B0601D4099801E04FF0FF301DB0BDE8F08F00BF6C170000721700007617000000000000E10E00002DE9F0478B
:4011800091461F460A698B6806469342B8BF1346C9F8003091F843200C46DDF8208012B10133C9F800302368990642BFD9F800300233C9F80030256815F0060510D104F14B
:4011C000190A07E00123524639463046C04701301AD00135E368D9F800209B1A9D42F1DB94F843302268003318BF012392060FD5E118302081F843005A1C94F8451022444B
:40120000023382F8431003E04FF0FF30BDE8F08704F1430239463046C0470130F4D02268D9F80050E36802F00602042A08BF5D1B2269A3680CBF25EAE57500259342C4BF70
:401240009B1AED184FF000091A344D4509D00123224639463046C0470130D5D009F10109F3E70020BDE8F0872DE9F04317460A7E85B06E2A984606460C460C9B01F1430EDA
:4012800000F0AE8011D8632A22D009D8002A00F0BB80582A40F0CA8081F84520834955E0642A1ED0692A1CD0C0E0732A00F0B08009D86F2A2ED0702A40F0B8800A6842F021
:4012C00020020A603EE0752A24D0782A3AD0ADE01A6801F14205111D1960136884F84230A8E021681A6811F0800F02D0111D196008E011F0400F02F10401196002D0B2F9EB
:40130000003000E01368002B3CDA2D225B4284F8432037E021681A6811F0800F02D0111D196007E011F0400F02F10401196001D0138800E01368227E5C496F2A14BF0A229F
:4013400008221BE078225A4984F845202268186812F0800F00F104051D6003D1550601D5038800E00368D00744BF42F0200222601BB9226822F0200222601022002084F8AB
:40138000430001E049490A226568002DA56008DB206820F0040020602BB9002D7DD175460CE0002B79D07546B3FBF2F002FB1033CB5C05F8013D03460028F5D1082A0BD1A1
:4013C0002368DA0708D5236962689A42DEBF302305F8013C05F1FF35C5EB0E0323612EE008681A6810F0800F496903D0101D1860136808E010F0400F02F104001860136884
:4014000001D0198000E0196000232361754616E01A68111D1960156800216268284600F049F808B1401B6060636804E004F1420584F8422001232361002384F84330CDF845
:4014400000803B4603AA21463046FFF797FE013002D14FF0FF3026E023692A4639463046C0470130F5D023689B0710D5002504F1190907E001234A4639463046C0470130DA
:40148000E7D00135E368039A9B1A9D42F2DBE068039B9842B8BF184605E00B7804F1420584F842308AE705B0BDE8F0837D1700008E17000010B5C9B202449042034605D0E2
:4014C0001C7801308C42F8D1184610BD002010BD884210B501EB020301D8421E0BE09842FBD28118D21AD34204D013F8014D01F8014DF8E710BD994204D011F8014B02F875
:40150000014FF8E710BD000038B50546002944D051F8043C0C1F002BB8BFE41800F0D4F81E4A1368114613B96360146030E0A3420DD92268A018834201BF18685B681218E0
:40154000226063600C6023E0A24203D813465A68002AF9D118681918A1420BD12168014458188242196013D110685268014419605A600DE002D90C232B6009E02168601804
:40158000824201BF106852680918216062605C602846BDE8384000F098B838BD8481FF1F70B5CD1C25F0030508350C2D38BF0C25002D064601DBA94202D90C23336046E0A6
:4015C00000F082F8234B1C681A462146A1B10B685B1B0ED40B2B03D90B60CC18CD501EE08C420BBF63684B681360636018BF0C4615E00C464968E9E7174C23681BB93046BA
:4016000000F052F820602946304600F04DF8431C18D0C41C24F00304A0420DD12560304600F053F804F10B00231D20F00700C31A0ED05A42E25070BD211A304600F034F8C4
:401640000130EBD10C233360304600F03EF8002070BD00BF8481FF1F8081FF1FF8B5074615460E4621B91146BDE8F840FFF798BF1AB9FFF749FF2846F8BD00F027F88542C3
:401680000ED929463846FFF78BFF044650B131462A46FFF7EDFB31463846FFF735FF01E03046F8BD2046F8BD38B5064C0023054608462360FEF770FF431C02D1236803B12D
:4016C0002B6038BDA081FF1F7047704751F8040C0028BEBF091851F8043CC018043870470000000030784646207072652D6669780000000043726162733A2569204572723F
:401700003A256900676F6F64000000005374617274696E67204D6F64756C652100000000636F756E74696E672063726162732E2E2E000000004F00400C004051004030008D
:40174000C05100401000F0510040100000000140001000140140000800400140000A004C014000020050014020004300232D302B2000686C4C006566674546470030313239
:401780003334353637383941424344454600303132333435363738396162636465660000F8B500BFF8BC08BC9E4670474D00000015060000F8B500BFF8BC08BC9E46704752
:4017C00029000000D8170000C880FF1F80000000600000000000000000000000A881FF1F0000E02EC05D00001800000000366E01000000000000000000000000000000005C
:40180000000000000000000000000000000000006A170000000000000000000000000000000000000000000000000000000000000000000000000000000000000000000027
:4018400000000000000000000000000000000000E080FF1F0000000000000000000000000000000000000000000000000000000000000000000000000000000000000000EA
:401880000000000000000000000000000000000000000000000000000000000000000000000000000000000000000000000000000000000000000000000000000000000028
:4018C00000000000000000000000000000000000000000000000000000000000000000000000000000000000000000000000000000000000000000000000000000000000E8
:4019000000000000000000000000000000000000000000000000000000000000000000000000000000000000000000000000000000000000000000000000000000000000A7
:401940000000000000000000000000000000000000000000000000000000000000000000000000000000000000000000000000000000000000000000000000000000000067
:020000040003F7
:0200000480007A
:40000000024F0040045200400264004033040140170501404006014022070140010B01403B140140181501403C1601401C17014003400140084101400942014009430140B4
:40004000024401400145014001460140034801400E490140085001400151014001800A270042014018501948850D870D02012E013001405149FF4AFF4BFF4F015018580493
:400080005A045F016040624064406540668068806A806C806E809201AE01B001BE01C015C5ECC602C807C9FFCAFFCBFFCD83CE03CF01D018D280D401D804DA04DB04DF01C2
:4000C000E040E240E440E540E680E880EA80EC80EE8003800F80100217401A801E804380474048014D054F8057C05D055E8074037740C008C210C481D018D218D6D0EE082A
:4001000039083F044040410549FF4AFF4BFF4DA04F04501859045A085D095F01604062C06440654066C068C06AC06CC06EC087018E028F029202AA01AD01B102B402B601DA
:40014000B701BE10C040C105C5D0C721C832C9FFCAFFCBFFCDAFCE0FCF04D018D280D405D80BD90BDA0BDB0BDC99DD99DF01E040E2C0E440E540E6C0E8C0EAC0ECC0EEC068
:4001800002020902100819401A04210222402720294038083A804102450249014A024E02500C520259015A84728078017F018320AA40C001C208C402CA08CE0AD081D2186C
:4001C000D60BDE11EE0841044402450B480149FF4AFF4BFF4CEF4D554E704F48501C5A045D015F0161086308650867086850690A6A406BA86CC06E406FA885018702A50241
:40020000A701B703BF40C105C403C9FFCAFFCBFFCCEFCD55CE72CF48D01CD201D904DA04DB04DD11DF01E108E308E508E708E850E90AEA40EBA8ECC0EE40EFA825402C2060
:400240003C043D0840044240450448204C026C026E4089408C2090049640B380B404CA40CE40D045D210E630EC20EE404104440349FF4AFF4BFF4CEF4D554E724F48501CE8
:4002800056085A045B045D915F0161086308650867086850690A6A406BA86CC06E406FA887019301B501C104C402C5C0C6DEC70FC81EC9FFCAFFCBFFCCEACD55CEF2CF4800
:4002C000D01CD90BDA04DB04DC90DD11DF01E108E308E508E708E850E90AEA40EBA8ECC0EE40EFA82004230831023808400442C04680470849015128524059015F806128FA
:400300006240640167027801900897029C01A102CC01CE02D0C5D611D81EDE0133403680CC300E04568067089F40A680C280D440D8801280920493089E809F40A680AF04AD
:40034000C410EE106B808380920493089E80AB40DC20E280EE802808CA089808AC08920493089E8050105B20668067088A808F20902093089E80B204B410D4A0D680D88024
:40038000000101010A010B01100211011A021B01000B00008076760042000100000B0B0000000000007F7F0000000000005C5C005C000000000000000000000000000000E5
:4003C00000000000000000000000000000000000000000000000000000000000000000000000000000000000000000000000000000000000000000000000000000000000FD
:4004000000000000000000000000000000000000000000000000000000000000000000000000000000000000000000000000000000000000000000000000000000000000BC
:40044000000000000000000000000000000000000000000000000000000000000000000000000000000000000000000000000000000000000000000000000000000000007C
:40048000000000000000000000000000000000000000000000000000000000000000000000000000000000000000000000000000000000000000000000000000000000003C
:0200000490006A
:0400000000004005B7
:0200000490105A
:04000000BC90ACAF55
:0200000490303A
:020000003E328E
:0200000490402A
:4000000000000000000000000000000000000000000000000000000000000000000000000000000000000000000000000000000000000000000000000000000000000000C0
:400040000000000000000000000000000000000000000000000000000000000000000000000000000000000000000000000000000000000000000000000000000000000080
:400080000000000000000000000000000000000000000000000000000000000000000000000000000000000000000000000000000000000000000000000000000000000040
:4000C0000000000000000000000000000000000000000000000000000000000000000000000000000000000000000000000000000000000000000000000000000000000000
:0200000490501A
:0C00000000012E16106900012E204E9BFE
:00000001FF