:400000000080002011000000290400002904000008B5044B1A6803F53F5302331A6000F00BFA00BFFA46004010B5054C237833B9044B13B10448AFF300800123237010BD18
:400040004081FF1F00000000F80C0000084B10B51BB108490848AFF300800848036803B910BD074B002BFBD0BDE81040184700BF000000004481FF1FF80C0000C880FF1F0A
:400080000000000008B52C4A13880133138000F0EFFB20B1284A93780133937003E0264AD3780133D370244B1B880A2B43D1224B9B78062B05D9204B01221A7100229A7008
:4000C00003E01D4B00221A71DA701B4B5A790132D2B25A710021198099794900C9B2187901439971FF290ED1DB7963B9124B1B7A4BB9012000F004FD0F4B00225A719A71C3
:400100000122DA710BE00C4BDB79012B07D1032A05D9094B00229A715A7101221A72064B1B7A012B07D1044B5B79072B03D9024B00221A72DA7108BD5C81FF1F30B585B076
:4001400062B600F02BFA00F065FA00F099FA00F01BFB00F07FFB00F04FFD094800F0F6FC00F0A2FC01AC074D0FCD0FC42B6823800021084600F0A6FC01A800F03BFCFEE777
:4001800085000000FC0C0000FEE700BFF0B40022174611E050F82760F3B226F0FF0608E001EB420511F812406D78A5550132013BDBB2002BF4D10137172FEBD9F0BC704785
:4001C000184B1B78DBB203F00701174A11701B09013213701022154B1A70402314490B7020310B700D2001F22F71087001F5E2710A7008310B7004209031087003310B70E7
:400200000D310B7003310B7040F2051103F1804303F5B643198018331A704422A3F2E2231A707047CF0100496E5800400D5100401D51004008B50A46002100F054FD08BD18
:4002400038B543F29032274B1A801823264A137045F6BF5102321180023213700222234B1A7008224FF040231A70032103F5007319701F4B1B78DBB21E490B701E4B1A80A0
:4002800041F25122023B1A80002419250CE01B4B1B7803F0010343EA440404F003044FF4F07000F0D9FC013D0DB1032CEFD115B90320FFF769FF124B4FF480721A8007221C
:4002C0001A7000220F490A704820023108701A700222033B1A700C4A137843F00303137038BD00BF80400040824000400043004008010049A146004022420040254200405D
:400300000440004006400040A243004008B500F0DFFC08BD38B572B6314A137843F00403137000240CE02F4D630019194A0011462A44084691882858FFF77CFF0134E4B216
:40034000072CF0D928494FF09040FFF71FFF40F20312264B1A8040F2033204331A80244A137843F0020313701032137843F002031370204C237843F040032370A2F58632C8
:40038000513A137843F01003137008221A491B48FFF7BCFF08221A491A48FFF7B7FF082219491A48FFF7B2FF082219491948FFF7ADFF194A137843F008031370174D612367
:4003C0002B70FFF73DFF81232B700122144B1A70FFF7F6FE0E2221461248FFF797FF38BDE8460040100D0000600000484A58004003500140A0430040780200480251004068
:40040000800200481251004088020048225100409002004832510040224300400048004004000840B043004008B500F025FC03680C2B00D1FEE7FEE708B5104E104D16E008
:4004400029686B68AC68002204E051F8040B43F8040B0432A242F8D1E868002203E0002143F8041B04328242F9D11035013E002EE6D100F007FCFFF761FEFEE7010000004E
:400480007C0D000008B5104A104B1A60104A136843F40073136000230AE0032B03D80D4A52F8231000E00C490C4A42F8231001332F2BF2D90A4B1A780A4B1A70074A0A4B2E
:4004C0001A60FFF727FF08BD0004FA050CED00E014ED00E000000000290400000080FF1FBC760040C080FF1F08ED00E0054A137843F0020313701032137843F00203137057
:40050000704700BFA74300400F490B7803F0FC0200F0030313430B7001280AD10B4B1B78DBB20B4A13700B4B1B78DBB2013213707047094B1B78DBB2054A1370074B1B7828
:40054000DBB201321370704741580040110100493246004015010049AF010049B701004908B50020FFF7D0FF0B4B1A7802F0DF021A701A7802F0FB021A701A7842F008027C
:400580001A7003F28E231A7802F0E7021A701A7842F010021A7008BD4158004008B5054B1B7823B9FFF7DCFF0122024B1A70FFF79DFF08BD6581FF1F08B500F055FB044A29
:4005C000137843F01003137000F052FB08BD00BF9765004008B5044A137843F001031370FFF7EAFF08BD00BF74650040054B1A7802F0F8021A701A7800F007001043187022
:40060000704700BF8765004008B50020FFF7EEFF08BD00BF08B5054B1B7823B9FFF7F4FF0122024B1A70FFF7D5FF08BD6681FF1F084A137843F060031370A2F5A652133A0F
:40064000137843F0010313701032137843F001031370704777580040054B1A7802F0FC021A701A7800F0030010431870704700BF5858004008B50120FFF7EEFF08BD00BF81
:4006800008B5054B1B7823B90122034B1A70FFF7F1FFFFF7CDFF08BD6781FF1F084A137843F0080313701032137843F00803137002F5A5521E32137843F08003137070476B
:4006C000A9430040044A137803F0FC0300F0030018431070704700BF0D58004010B487B00446194B03AA1868596803C2197A11706A4653F80C0F596803C21B7A1370082CC2
:400700001ED812490B7803F08003DBB20B70087806AB1C4414F80C3C14F8182C920002F00C02134303430B70094A137803F0F3031370117814F8183C0B4343F00C03137043
:4007400007B010BC704700BF400D00000E5800400D58004008B50C22084B1A70084A137843F0200313708022064B1A700020FFF7B5FF0120FFF7A6FF08BD00BF0C5800403F
:400780000D5800400E58004008B5054B1B7823B9FFF7E0FF0122024B1A70FFF77FFF08BD6881FF1F054A137843F0080313701032137843F008031370704700BFA74300409A
:4007C0000F490B7803F0FC0200F0030313430B7001280AD10B4B1B78DBB20B4A13700B4B1B78DBB2013213707047094B1B78DBB2054A1370074B1B78DBB20132137070470C
:4008000043580040130100493646004017010049B3010049BB01004908B50220FFF7D0FF0B4B1A7802F0DF021A701A7802F0FB021A701A7842F008021A7003F527731A78F1
:4008400002F0E7021A701A7842F010021A7008BD4358004008B5054B1B7823B9FFF7DCFF0122024B1A70FFF79DFF08BD6981FF1F024B187800F00800704700BF965B0040F1
:4008800010B50B4C237803F09F032370237803F0F00323702378184340F010002070012000F0CEF9237803F0EF03237010BD00BF2051004038B505460E4C237843F02003D4
:4008C0002370237803F0BF032370002000F0B8F9237803F0F003237023781D4345F010052570012000F0ACF9237803F0EF03237038BD00BF2051004070B5354B1A7802F07C
:400900008002D2B21A7033490A7802F0F00242F00F020A7001310A7802F0F0020A7001310A7802F0F0020A701A7802F0DF021A701A7842F040021A704FF4CA76002000F052
:400940007FF9234D2B7843F010032B70012000F077F9214B1C78E4B22B7803F0EF032B70002000F06DF904F00804E4B22B7843F010032B70012000F063F92B7803F0EF034C
:400980002B7014B90A2000F05BF9013E0CB1002ED4D10F4A137803F0BF031370137803F08003DBB213700232137803F0F00313700132137803F0F00343F00F03137001329E
:4009C000137803F0F00343F00F03137070BD00BF20510040225100402151004010B50446FFF78AFF2009FFF765FF04F00F00FFF761FF10BD38B505460078012404E0FFF7D6
:400A0000EDFF285D0134E4B20028F8D138BD00BF10B50446FFF770FF2009FFF731FF04F00F00FFF72DFF10BD08B5282000F0F2F80320FFF725FF052000F0ECF80320FFF7F2
:400A40001FFF0F2000F0E6F80320FFF719FF012000F0E0F80220FFF713FF052000F0DAF80620FFF7D5FF0E20FFF7D2FF2C20FFF7CFFF0820FFF7CCFF0120FFF7C9FF0C2047
:400A8000FFF7C6FF0320FFF7C3FF052000F0C2F808BD00BF08B50C20FFF7BAFF0122014B1A7008BD6A81FF1F08B5054B5B7823B9FFF7BAFF0122024B5A70FFF7EBFF08BDA4
:400AC0006A81FF1F08B5032819D8DFE800F002070D1381F08000FFF79BFF08BDA1F14000C0B2FFF795FF08BDA1F16C00C0B2FFF78FFF08BDA1F12C00C0B2FFF789FF08BD2F
:400B0000044A137803F0FB03800000F0040018431070704730510040014B1B681864704708ED00E04001C0B2014B1870704700BF00E400E00122014B1A60704700E100E02B
:400B40000122014B1A60704780E100E010B50446FFF7F6FF2046FFF7DFFF0720FFF7E2FFFFF7E8FF10BD00BF024A137843F08003137070477B640040014B1870704700BFC9
:400B80008B640040014B1878704700BF6B640040014B1880704700BF54680040014B188880B2704794680040014B1880704700BF1468004008B501E0FFF7F0FFFFF7E2FFCE
:400BC00010F0080FF8D108BD08B53120FFF7E0FF3120FFF7E9FF00F047F8064A137843F01003137000F044F8FFF7E4FF0120FFF7C3FF08BD9B64004008B5054B1B7823B90D
:400C0000FFF7E2FF0122024B1A70FFF7ADFF08BD6C81FF1F10B5044605E0084B186800F01BF8A4F50044B4F5004FF6D8034B586800FB04F000F010F810BD00BFCC80FF1F19
:400C400008B5034B1B7A00FB03F000F005F808BDCC80FF1F000000000230800803D000BF01380046FCD17047EFF3108072B6704780F31088704700BF014B1868704700BF67
:400C80003C81FF1F0E4B70B51E460E4C0025E41AA410A54204D056F8253098470135F8E700F05AF8084B094C1E46E41AA4100025A54204D056F8253098470135F8E770BD50
:400CC000640D0000640D0000640D00006C0D000010B5431E0A44914204D011F8014B03F8014FF8E710BD03460244934202D003F8011BFAE77047000000000000636F756E27
:400D000074696E672063726162732E2E2E000000405100403000C05100401000F0510040100000000140001000140140000800400140000A004C01400002005001402000E0
:400D4000011121314161536373000000080901010507070404430000F8B500BFF8BC08BC9E4670474D00000085040000F8B500BFF8BC08BC9E46704729000000900D000039
:400D8000C880FF1F780000003000000000000000000000000000E02EC05D00001800000000366E01000000000000000000000000000000000000000000000000000000003D
:400DC00000000000550D0000000000000000000000000000000000000000000000000000000000000000000000000000000000000000000000000000000000000000000091
:400E000000000000DC80FF1F000000000000000000000000000000000000000000000000000000000000000000000000000000000000000000000000000000000000000038
:400E40000000000000000000000000000000000000000000000000000000000000000000000000000000000000000000000000000000000000000000000000000000000072
:400E80000000000000000000000000000000000000000000000000000000000000000000000000000000000000000000000000000000000000000000000000000000000032
:400EC00000000000000000000000000000000000000000000000000000000000000000000000000000000000000000000000000000000000000000000000000000000000F2
:400F000000000000000000000000000000000000000000000000000000000000000000000000000000000000000000000000000000000000000000000000000000000000B1
:020000040003F7
:0200000480007A
:400000000252004001640040010501400107014001090140330A0140170B01403914014016150140331601400D17014001190140024001400341014005420140044301406F
:40004000024501400146014002470140054801400C490140014C01400650014001510140188019A88B0DEE02EE08AF20405149FF4AFF4BFF4F0150185A045D015F01604084
:40008000624064406540668068806A806C806E809E01AE01B001B401BE01C041C5ECC602C807C9FFCAFFCBFFCD83CE03CF01D018D280D401D804DA04DB04DC01DD11DF0168
:4000C000E040E240E440E540E680E880EA80EC80EE800D8017801E801F2041804580464048014D044F0155805D045E805F01740176407780C280C480D098D208D6D0EE0278
:40010000000202010401060232033E0441014403460B480449FF4AFF4BFF4CEF4D554E704F48501C520158045A045B045F0161086308650867086850690A6A406BA86CC007
:400140006E406FA8C104C405C9FFCAFFCBFFCCEFCD55CE72CF48D01CDA04DF01E108E308E508E708E850E90AEA40EBA8ECC0EE40EFA802A01B044140430847024E015280F3
:4001800069806B0283048A218B088E80958096029F02A708C00CD08AD210E020E2404104440549FF4AFF4BFF4CEF4D554E724F48501C5A045F0161086308650867086850C0
:4001C000690A6A406BA86CC06E406FA8C101C403C5C0C6DEC70FC81EC9FFCAFFCBFFCCEACD55CEF2CF48D01CDA04DB04DF01E108E308E508E708E850E90AEA40EBA8ECC099
:40020000EE40EFA841404308470249014E0151A8590161A8D08AD210D601D80EEE01EE013320CC106280A720D6409320A680A720AF10EE409320A680AF20EE101220C408F9
:40024000AE200340C00892809320A680AA40EE805A806308672082808B108F0492809320A680D480D8C0E620AB4000020C02100111011A011B01000300808000800012009F
:40028000000B0B0000004000007F7F000000000000ACAC00A800400000000000000000000000000000000000000000000000000000000000000000000000000000000000AA
:4002C00000000000000000000000000000000000000000000000000000000000000000000000000000000000000000000000000000000000000000000000000000000000FE
:4003000000000000000000000000000000000000000000000000000000000000000000000000000000000000000000000000000000000000000000000000000000000000BD
:40034000000000000000000000000000000000000000000000000000000000000000000000000000000000000000000000000000000000000000000000000000000000007D
:40038000000000000000000000000000000000000000000000000000000000000000000000000000000000000000000000000000000000000000000000000000000000003D
:0200000490006A
:0400000000004005B7
:0200000490105A
:04000000BC90ACAF55
:0200000490303A
:02000000D44CDE
:0200000490402A
:4000000000000000000000000000000000000000000000000000000000000000000000000000000000000000000000000000000000000000000000000000000000000000C0
:400040000000000000000000000000000000000000000000000000000000000000000000000000000000000000000000000000000000000000000000000000000000000080
:400080000000000000000000000000000000000000000000000000000000000000000000000000000000000000000000000000000000000000000000000000000000000040
:4000C0000000000000000000000000000000000000000000000000000000000000000000000000000000000000000000000000000000000000000000000000000000000000
:0200000490501A
:0C00000000012E16106900012E1BE4B553
:00000001FF