:400000000080002011000000D1050000D105000008B5044B1A6803F53F5302331A6000F0F7FA00BFFA46004010B5054C237833B9044B13B10448AFF300800123237010BDDA
:400040004881FF1F00000000B8170000084B10B51BB108490848AFF300800848036803B910BD074B002BFBD0BDE81040184700BF000000004C81FF1FB8170000C880FF1F64
:400080000000000008B500F043FE08BD08B5424A13880133138000F07BFB20B13E4A53880133538003E03C4A9388013393803A4B1B88642B6ED1384B9B79ABB9364BDB79B0
:4000C00093B9354B5B88592B07D9334B0120187200225A8000F064FB18E02F4B00201872988000F05DFB11E02B4B5B88452B07D9294B0120187200225A8000F051FB05E027
:40010000254B00201872988000F04AFB224B5A7A0132D2B25A72002119805989490089B2187A01435981CBB2FF2B0DD11A4B9B7953B9194BDB793BB9174B00225A725A81E3
:4001400001229A711A730EE0134B9B79012B0AD1082A08D9104BD98100225A815A721A7301221A74DA710C4BDB79012B12D10A4B5B7A072B0ED9084B5B89012B03D10122EC
:40018000054B5A7402E00122034B9A74024B0022DA719A7108BD00BF6481FF1F10B4421000F0010002F00101002304E0521002F0010461400133062BF8DD814201D1012088
:4001C00000E0002010BC704730B583B02C4B1B7B012B09D1012000F065FC2A4800F054FC0022274B1A7348E0254B1B7C012B1DD1234CE5892846FFF7D1FF60616A08E2811C
:40020000214DB0FA80F35B092049284600F0B0FE012000F047FC0021084600F09DFC284600F032FC0023A371237426E0144B5B7C012B11D10021012000F08EFC144B93E8D4
:40024000030000908DF80410684600F01DFC0C4B00229A715A7410E0094B9B7C012B0CD10021012000F078FC02A80A4B40F8083D00F00AFC0022024B9A7403B030BD00BFF1
:400280006481FF1FBC1700009C81FF1FCC170000DC1700006261640008B500F04FFC1E4C1E4D0FCD20606160A260E3602B7823740021084600F050FC204600F0E5FB41F2B3
:4002C000883000F0E5FC62B600F082FD144800F0A7FD0021084600F0FBFC00F0DDFD00F00BFB00F097FA00F045FA00F0C3FC0D4800F06AFC0C4D0FCD20606160A260E36023
:400300002B8823820021084600F026FC204600F0BBFBFFF759FFFCE79081FF1FE4170000850000008D000000F8170000FEE700BFF0B40022174611E050F82760F3B226F01A
:40034000FF0608E001EB420511F812406D78A5550132013BDBB2002BF4D101371F2FEBD9F0BC70470C4B1B78DBB203F007010B4A11701B09013213700122094B1A70102235
:4003800003F6B3131A70202203331A704422A3F24D231A70704700BFCF0100496E5800400D51004008B50A46002100F0D8FD08BD38B54FF49C722A4B1A801823294A137094
:4003C00040F65F11023211800232137043F67F6102321180023213700222234B1A7008224FF040231A70002403F500731C701F4B1B78DBB21E4A13704FF442721D4B1A804B
:4004000041F25122023B1A8019250CE01A4B1B7803F0010343EA440404F003044FF4F07000F056FD013D0DB1032CEFD115B90320FFF77CFF114B4FF480721A8007221A70A5
:4004400000220F490A704820023108701A700222033B1A700B4A137843F00703137038BD8040004082400040004300400A010049A14600402242004025420040044000409B
:4004800006400040A243004008B500F05DFD08BD38B572B63B4A137843F00403137000240CE0394D630019194A0011462A44084691882858FFF776FF0134E4B2082CF0D98F
:4004C00000240CE03048A20011194B000344B3F84020D96B986BFFF7D7FF0134E4B2012CF0D92A494FF09040FFF722FF0322284B1A8002F1804202F5A832137843F0020323
:4005000013701032137843F002031370214C237843F040032370A2F58632513A137843F01003137008221C491C48FFF7ADFF0A221B491C48FFF7A8FF08221B491B48FFF764
:40054000A3FF08221A491B48FFF79EFF08221A491A48FFF799FF1A4A137843F008031370184D61232B70FFF723FF81232B700122154B1A70FFF7F6FE0E2221461348FFF76F
:4005800083FF38BDE84600400C1800008000004848580040A0430040F80600480251004000070048C05100400C0700481251004014070048225100401C07004832510040AC
:4005C000224300400048004004000840B043004008B500F08DFC03680C2B00D1FEE7FEE708B5094B1A681044084BC31A802B02DC054B186005E000F07BFC0C2303604FF057
:40060000FF32104608BD00BFCC80FF1FB081FF1F08B5104E104D16E029686B68AC68002204E051F8040B43F8040B0432A242F8D1E868002203E0002143F8041B04328242BB
:40064000F9D11035013E002EE6D100F057FCFFF723FEFEE701000000B418000008B5104A104B1A60104A136843F40073136000230AE0032B03D80D4A52F8231000E00C493E
:400680000C4A42F8231001332F2BF2D90A4B1A780A4B1A70074A0A4B1A60FFF7F9FE08BD0004FA050CED00E014ED00E000000000D10500000080FF1FBC760040C080FF1F85
:4006C00008ED00E0054A137843F0010313701032137843F001031370704700BFA74300400F490B7803F0FC0200F0030313430B7001280AD10B4B1B78DBB20B4A13700B4B2F
:400700001B78DBB2013213707047094B1B78DBB2054A1370074B1B78DBB201321370704740580040100100493046004014010049AD010049B501004908B50220FFF7D0FF27
:400740000B4B1A7802F0DF021A701A7802F0FB021A701A7842F008021A7003F287231A7802F0E7021A701A7842F010021A7008BD4058004008B5054B1B7823B9FFF7DCFFF1
:400780000122024B1A70FFF79DFF08BD7C81FF1F024B187800F00100704700BF965B0040044A137803F0EF03000100F010001843107070470051004008B500F091FB044AEF
:4007C000137843F01003137000F08EFB08BD00BF9A64004008B5044A137843F001031370FFF7EAFF08BD00BF78640040054B1A7802F0F8021A701A7800F0070010431870DF
:40080000704700BF8A64004008B50020FFF7EEFF08BD00BF08B5054B1B7823B9FFF7F4FF0122024B1A70FFF7D5FF08BD7D81FF1F024A137843F080031370704776640040E5
:40084000014B1880704700BF08680040014B1880704700BF88680040014B1880704700BF48680040014B1870704700BF86640040014B1878704700BF66640040014B1888DE
:4008800080B27047A868004008B501E0FFF7F6FFFFF7EEFF10F0100FF8D108BD08B5144A137803F0C00343F0090313701E32137843F0010313700132137843F001031370BB
:4008C000FF20FFF7BDFFFF20FFF7C0FF7F20FFF7C3FF0020FFF7C6FF00F002FB054A137843F01003137000F0FFFAFFF7CDFF08BD766400409664004008B5054B1B7823B951
:40090000FFF7CCFF0122024B1A70FFF791FF08BD7E81FF1F10B50B4C237803F09F032370237803F0F00323702378184340F010002070012000F0C2F9237803F0EF032370FC
:4009400010BD00BF2051004038B505460E4C237843F020032370237803F0BF032370002000F0ACF9237803F0F003237023781D4345F010052570012000F0A0F9237803F066
:40098000EF03237038BD00BF2051004070B5354B1A7802F08002D2B21A7033490A7802F0F00242F00F020A7001310A7802F0F0020A7001310A7802F0F0020A701A7802F04D
:4009C000DF021A701A7842F040021A704FF4CA76002000F073F9234D2B7843F010032B70012000F06BF9214B1C78E4B22B7803F0EF032B70002000F061F904F00804E4B2DB
:400A00002B7843F010032B70012000F057F92B7803F0EF032B7014B90A2000F04FF9013E0CB1002ED4D10F4A137803F0BF031370137803F08003DBB213700232137803F0D1
:400A4000F00313700132137803F0F00343F00F0313700132137803F0F00343F00F03137070BD00BF20510040225100402151004010B50446FFF78AFF2009FFF765FF04F021
:400A80000F00FFF761FF10BD38B505460078012404E0FFF7EDFF285D0134E4B20028F8D138BD00BF10B50446FFF770FF2009FFF731FF04F00F00FFF72DFF10BD08B52820BA
:400AC00000F0E6F80320FFF725FF052000F0E0F80320FFF71FFF0F2000F0DAF80320FFF719FF012000F0D4F80220FFF713FF052000F0CEF80620FFF7D5FF0E20FFF7D2FFDE
:400B00002C20FFF7CFFF0820FFF7CCFF0120FFF7C9FF0C20FFF7C6FF0320FFF7C3FF052000F0B6F808BD00BF08B50C20FFF7BAFF0122014B1A7008BD7F81FF1F08B5054B53
:400B40005B7823B9FFF7BAFF0122024B5A70FFF7EBFF08BD7F81FF1F08B5032819D8DFE800F002070D1381F08000FFF79BFF08BDA1F14000C0B2FFF795FF08BDA1F16C008A
:400B8000C0B2FFF78FFF08BDA1F12C00C0B2FFF789FF08BD014B1B685864704708ED00E04001C0B2014B1870704700BF01E400E00222014B1A60704700E100E00222014B5C
:400BC0001A60704780E100E010B50446FFF7F6FF2046FFF7DFFF0720FFF7E2FFFFF7E8FF10BD00BF024A137843F080031370704774650040014B1870704700BF8565004094
:400C0000014B1878704700BF65650040014B1880704700BF486A0040014B188880B27047886A0040014B1880704700BF086A004008B501E0FFF7F0FFFFF7E2FF10F0080F88
:400C4000F8D108BD08B53120FFF7E0FF3120FFF7E9FF00F045F9064A137843F01003137000F042F9FFF7E4FF0120FFF7C3FF08BD9565004008B5054B1B7823B9FFF7E2FFD3
:400C80000122024B1A70FFF7ADFF08BD8181FF1F10B5044605E0084B186800F019F9A4F50044B4F5004FF6D8034B586800FB04F000F00EF910BD00BFD080FF1F08B5034B4E
:400CC0001B7A00FB03F000F003F908BDD080FF1F0E4B1A7802F0FC0200F00300104318701A7842F080021A701A7802F07F021A7049011A7801F0600102F09F0211431970AC
:400D00001A7842F010021A70704700BF834300400122014B1A70704784430040084A137843F0010313701032137843F00103137002F64D32137843F001031370704700BFD0
:400D4000A3430040014B1870704700BF034F0040014B1880704700BF044F0040014B1880704700BF064F004008B5164A137803F0010313700232137803F0FC031370124BE2
:400D80001A7802F0CF021A701A7842F030021A701A7802F0F0021A701A7842F00F021A700A4A137843F0010313704FF6FF70FFF7CFFF4FF6FF70FFF7D1FF0020FFF7C2FF13
:400DC00008BD00BF004F00400B4F0040014F004008B5054B1B7823B9FFF7C6FF0122024B1A70FFF79BFF08BD8281FF1F014B1B68D864704708ED00E04001C0B2014B1870F1
:400E0000704700BF03E400E00822014B1A60704700E100E00822014B1A60704780E100E010B50446FFF7F6FF2046FFF7DFFF0720FFF7E2FFFFF7E8FF10BD00BF7222074BA4
:400E40001A703E22033B1A700622623B1A70472210331A70002251331A7070478564004010B500F03DF804460A4A137843F020031370033A137843F010031370013A1378E8
:400E800043F01003137000F015F8204600F02CF810BD00BF9564004008B5054B1B7823B9FFF7CCFF0122024B1A70FFF7D9FF08BD8381FF1F054A137843F00103137010326B
:400EC000137843F001031370704700BFA24300400230800803D000BF01380046FCD17047EFF3108072B6704780F31088704700BF014B1868704700BF4081FF1F0E4B70B552
:400F00001E460E4C0025E41AA410A54204D056F8253098470135F8E700F0BAFC084B094C1E46E41AA4100025A54204D056F8253098470135F8E770BD9C1800009C1800005A
:400F40009C180000A418000010B5431E0A44914204D011F8014B03F8014FF8E710BD03460244934202D003F8011BFAE7704700000EB400B54FF402719CB0ADF814106FF014
:400F80000041049107914FF6FF711DAB02900690084853F8042BADF81610006802A9019300F064F8029B00221A701CB05DF804EB03B070474081FF1F2DE9F0478E688246E9
:400FC0009E420C46914698463ED88A8912F4906F3AD02568096902236F1A656905EB450595FBF3F57B1C43449D4238BF1D4653050FD5294600F040FB064698B13A462169D9
:40100000FFF7A2FFA38923F4906343F08003A38113E02A4600F08EFB064670B92169504600F0DEFA0C23CAF80030A3894FF0FF3043F04003A381BDE8F08726613E442660D0
:4010400046466561ED1BA560464528BF464649463246206800F0A8FAA36800209B1BA36023681E442660BDE8F08700002DE9F04F9DB003938B8980461C060D4616460DD5BA
:401080000B695BB9402100F0F7FA2860286118B90C23C8F80030CDE040236B610023099320238DF82930DFF89CB130238DF82A3037463C4614F8013B1BB9B7EB060910D0A7
:4010C00003E0252BF9D02746F3E74B46324629464046FFF771FF013000F0A780099B4B4409933B78002B00F0A08000234FF0FF3204930793059206938DF853301A93012674
:40110000052221784E4800F041FA671C049B38B14B4A3C46801A06FA00F018430490EFE7D90644BF20228DF853201A0744BF2B228DF8532022782A2A03D0079A00210A208B
:401140000BE0039A111D12680391002A10DA524243F00200079204900BE027463B780134303B092B03D800FB02320121F5E701B107923B782E2B1ED17B782A2B0AD1039BB3
:4011800002371A1D1B680392002BB8BF4FF0FF33059310E0002319460593781C0A2407463A780130303A092A03D804FB01210123F5E703B1059103223978224800F0E6F90E
:4011C00040B14023CBEB000003FA00F0049B013718430490397806221B487E1C8DF8281000F0D4F988B1194B33B9039B073323F007030833039314E003AB00932A46144B8F
:4012000004A94046AFF3008007E003AB00932A460F4B04A9404600F093F8B0F1FF3F824603D0099B5344099342E7AB895B0601D4099801E04FF0FF301DB0BDE8F08F00BF35
:401240005A180000601800006418000000000000B90F00002DE9F04791461F460A698B6806469342B8BF1346C9F8003091F843200C46DDF8208012B10133C9F80030236849
:40128000990642BFD9F800300233C9F80030256815F0060510D104F1190A07E00123524639463046C04701301AD00135E368D9F800209B1A9D42F1DB94F843302268003389
:4012C00018BF012392060FD5E118302081F843005A1C94F845102244023382F8431003E04FF0FF30BDE8F08704F1430239463046C0470130F4D02268D9F80050E36802F033
:401300000602042A08BF5D1B2269A3680CBF25EAE57500259342C4BF9B1AED184FF000091A344D4509D00123224639463046C0470130D5D009F10109F3E70020BDE8F087BE
:401340002DE9F04317460A7E85B06E2A984606460C460C9B01F1430E00F0AE8011D8632A22D009D8002A00F0BB80582A40F0CA8081F84520834955E0642A1ED0692A1CD07A
:40138000C0E0732A00F0B08009D86F2A2ED0702A40F0B8800A6842F020020A603EE0752A24D0782A3AD0ADE01A6801F14205111D1960136884F84230A8E021681A6811F0DD
:4013C000800F02D0111D196008E011F0400F02F10401196002D0B2F9003000E01368002B3CDA2D225B4284F8432037E021681A6811F0800F02D0111D196007E011F0400FC6
:4014000002F10401196001D0138800E01368227E5C496F2A14BF0A2208221BE078225A4984F845202268186812F0800F00F104051D6003D1550601D5038800E00368D00790
:4014400044BF42F0200222601BB9226822F0200222601022002084F8430001E049490A226568002DA56008DB206820F0040020602BB9002D7DD175460CE0002B79D075469C
:40148000B3FBF2F002FB1033CB5C05F8013D03460028F5D1082A0BD12368DA0708D5236962689A42DEBF302305F8013C05F1FF35C5EB0E0323612EE008681A6810F0800F12
:4014C000496903D0101D1860136808E010F0400F02F104001860136801D0198000E0196000232361754616E01A68111D1960156800216268284600F049F808B1401B606007
:40150000636804E004F1420584F8422001232361002384F84330CDF800803B4603AA21463046FFF797FE013002D14FF0FF3026E023692A4639463046C0470130F5D023685C
:401540009B0710D5002504F1190907E001234A4639463046C0470130E7D00135E368039A9B1A9D42F2DBE068039B9842B8BF184605E00B7804F1420584F842308AE705B05D
:40158000BDE8F0836B1800007C18000010B5C9B202449042034605D01C7801308C42F8D1184610BD002010BD884210B501EB020301D8421E0BE09842FBD28118D21AD3422D
:4015C00004D013F8014D01F8014DF8E710BD994204D011F8014B02F8014FF8E710BD000038B50546002944D051F8043C0C1F002BB8BFE41800F0D4F81E4A1368114613B948
:401600006360146030E0A3420DD92268A018834201BF18685B681218226063600C6023E0A24203D813465A68002AF9D118681918A1420BD12168014458188242196013D113
:4016400010685268014419605A600DE002D90C232B6009E021686018824201BF106852680918216062605C602846BDE8384000F098B838BD8C81FF1F70B5CD1C25F0030568
:4016800008350C2D38BF0C25002D064601DBA94202D90C23336046E000F082F8234B1C681A462146A1B10B685B1B0ED40B2B03D90B60CC18CD501EE08C420BBF63684B68B7
:4016C0001360636018BF0C4615E00C464968E9E7174C23681BB9304600F052F820602946304600F04DF8431C18D0C41C24F00304A0420DD12560304600F053F804F10B007F
:40170000231D20F00700C31A0ED05A42E25070BD211A304600F034F80130EBD10C233360304600F03EF8002070BD00BF8C81FF1F8881FF1FF8B5074615460E4621B911464C
:40174000BDE8F840FFF798BF1AB9FFF749FF2846F8BD00F027F885420ED929463846FFF78BFF044650B131462A46FFF7EDFB31463846FFF735FF01E03046F8BD2046F8BD8B
:4017800038B5064C0023054608462360FEF728FF431C02D1236803B12B6038BDA881FF1F7047704751F8040C0028BEBF091851F8043CC01804387047000000003078464642
:4017C000207072652D6669780000000043726162733A2569204572723A256900676F6F64000000005374617274696E67204D6F64756C652100000000636F756E74696E6747
:401800002063726162732E2E2E000000004F00400C00405100403000F0510040100000000140800400050140000B00140140000800400140000A004C014000021050014098
:40184000100000008004014068060048800000500140E806004810004300232D302B2000686C4C0065666745464700303132333435363738394142434445460030313233EC
:4018800034353637383961626364656600000000F8B500BFF8BC08BC9E4670474D0000005D060000F8B500BFF8BC08BC9E46704729000000C8180000C880FF1F80000000EF
:4018C000680000000000000000000000B081FF1F0000E02EC05D00001800000000366E01000000000000000000000000000000000000000000000000000000000000000049
:401900005818000000000000000000000000000000000000000000000000000000000000000000000000000000000000000000000000000000000000000000000000000037
:40194000E080FF1F000000000000000000000000000000000000000000000000000000000000000000000000000000000000000000000000000000000000000000000000E9
:401980000000000000000000000000000000000000000000000000000000000000000000000000000000000000000000000000000000000000000000000000000000000027
:4019C00000000000000000000000000000000000000000000000000000000000000000000000000000000000000000000000000000000000000000000000000000000000E7
:401A000000000000000000000000000000000000000000000000000000000000000000000000000000000000000000000000000000000000000000000000000000000000A6
:401A40000000000000000000000000000000000000000000000000000000000000000000000000000000000000000000000000000000000000000000000000000000000066
:020000040003F7
:0200000480007A
:40000000024F004005520040046400400165004058000140350101404E0201403E03014019040140430501402D060140280701403508014010090140230A0140170B0140B3
:40004000030D0140010F01403E140140161501400317014001190140034001400D410140094201400B4301400544014003450140064801400E49014002500140015101409B
:4000800001800A1B00420140040418541948810F82388572860D850D00100414072609580A030B060C100E0C140C161119621B1C1F10241C26022718280929012A102D62DF
:4000C0002F0C31013360341F351E39083B203F054003454049FF4A074BFF4C404D204EF04F055008580459045A045F01604061A862406320860587018A088B018C038E0C4D
:40010000940396049701A40AA501A604A803A902AA04AD01B00FB101B502BA02BF11C046C102C50BC6C0C70EC819C9FFCAFFCBFFCEF0CF44D00CD401D804D904DA04DB046A
:40014000DF01E6C0EA40EB0201260302044806040A200E100F201010120413041410171019201C401F02211422012304278829282A442B022F2A329033303608380839202C
:400180003F2441044640471049024A804C044D045004520857185C025E105F888601C0EFC224C466CA7ECC4CCE66D0A2D220D6F0E402020406020E0214021501170E19447E
:4001C0001B311D221E011FD122012567280229672E04300231183204336035073601378038023A203E443F014035410242044401460C47E0482449FF4AFF4BFF4C624DA068
:400200004EF04F41500C54185604580459045A045B045F016640670269106A306B106D106E106F12870189068B018C0194019B03A302A601A706A802AF05B203B507B808F4
:40024000BB20D608D804D904DB04DD90DF0103020440050107100A200C400D080E0212081304164919081D411E041F0422102765290A2B022F28321037A4380839203E0C16
:4002800044404508460847404D80564158805C0160026280654067888280832087408802900891209304962099029D08A208A302B002B308C0B1C2A4C4D6CA6BCC74CE06E5
:4002C000D0F0D210D688D8B8E280080124012C0136014030410249FF4AFF4BFF4DA04F04501858045A0B5D095F01604062C06440654066C068C06AC06CC06EC003080501CF
:40030000062907400C010E25102214441680171419801A011B401C601D091E282401260127102C452E0437653C203E0A3F804010412045204D225404552056045E086C2200
:400340006F28762B772078027E8088048C209204944198039A809B059D809F10A280A508A601A728AC01AF80B080C0F2C2F0C475CAF0CCF0CEF0D026D220D640DE81E240D1
:40038000E82007010A041A042A012D012E0230013202340437013E1052805405580B590B5B0B5C995D905F01C105C403C6B0C808C9FFCAFFCBFFCCEFCD55CE70CF48D01C6F
:4003C000DA04DD02DF01E108E308E508E708E850E90AEA40EBA8ECC0EE40EFA8041005200D20160417401C101E081F0226402F023C084020480253205D025E8877407E801B
:40040000800286048C108F209410982099029A049D20A004A120A280C040C240C4C0CA10CE40D002D208D6D0DE80E24438803E404104440549FF4AFF4BFF4CEF4D554E720C
:400440004F48501C520158045A045B045D225F0161086308650867086850690A6A406BA86CC06E406FA8C105C404C9FFCAFFCBFFCCEFCD55CE72CF48D01CDA04DD02DF01FF
:40048000E108E308E508E708E850E90AEA40EBA8ECC0EE40EFA81F804040470148024E026C026F0383028D2090409D20A202A402D081D218E0104105440445C046DE470F11
:4004C000481E49FF4AFF4BFF4CEA4D554EF24F48501C5A045B045D225F0161086308650867086850690A6A406BA86CC06E406FA88F019B01B101D90ADC90DF0124402602E2
:4005000035203F4040404802490151A8590161A87F108B408C409320CC20CE10D001D208D601D80EDE40E020E2408B10E020E280E40212011E013401404149FF4AFF4BFF86
:400540004F015018528058045A045B045C015D115F016040624064406540668068806A806C806E8092019E01A101A302A502A701B001B103BE01BF01C041C5ECC602C8079B
:40058000C9FFCAFFCBFFCD83CE03CF01D018D401D804D904DA04DB04DD11DF01E040E240E440E540E680E880EA80EC80EE8009820D821A041E8026022FA0418245824D05A8
:4005C00055805D055E80710283808A029604A320C299CAC0D099D6D0E6209604A320EE04AB8033123788CCF003010C105680670887028B049F98A702C040C280D440D88048
:40060000E21013088F2093089E809F98AF01B010C410E8402710630887808E1093089E809F90A320C880D840E240280873408740CA08DC0188089808E201922093089E8057
:40064000A320AB04EE2057205A206680670883208A80922093089E80A320D4C0D680D880E42010021A0200BE1F1020000C08000004E70018080000E30100000433C00C0052
:400680003F180000001C23E10280000003FF00001C3C23C2004400002C380F1F100000C000000A08000010006002000000D020011AFFFFFF00AF0F041800000000000212E2
:4006C00004040B04000900014000C0004040C000C000C000C000C0000000000000000000000000000000000005010000000000000101050104010000847A7A0042000100CB
:40070000100000101000100000000000004B4B0000000000007F7F0000000000005C5C005C00000000000000000000000000000000000000000000000000000000000000D1
:400740000000000000000000000000000000000000000000000000000000000000000000000000000000000000000000000000000000000000000000000000000000000079
:400780000000000000000000000000000000000000000000000000000000000000000000000000000000000000000000000000000000000000000000000000000000000039
:4007C00000000000000000000000000000000000000000000000000000000000000000000000000000000000000000000000000000000000000000000000000000000000F9
:4008000000000000000000000000000000000000000000000000000000000000000000000000000000000000000000000000000000000000000000000000000000000000B8
:0200000490006A
:0400000000004005B7
:0200000490105A
:04000000BC90ACAF55
:0200000490303A
:0200000061A9F4
:0200000490402A
:4000000000000000000000000000000000000000000000000000000000000000000000000000000000000000000000000000000000000000000000000000000000000000C0
:400040000000000000000000000000000000000000000000000000000000000000000000000000000000000000000000000000000000000000000000000000000000000080
:400080000000000000000000000000000000000000000000000000000000000000000000000000000000000000000000000000000000000000000000000000000000000040
:4000C0000000000000000000000000000000000000000000000000000000000000000000000000000000000000000000000000000000000000000000000000000000000000
:0200000490501A
:0C00000000012E16106900012E21721262
:00000001FF