:400000000080002011000000A1040000A104000008B5044B1A6803F53F5302331A6000F047FA00BFFA46004010B5054C237833B9044B13B10448AFF300800123237010BDEC
:400040004081FF1F00000000380C0000084B10B51BB108490848AFF300800848036803B910BD074B002BFBD0BDE81040184700BF000000004481FF1F380C0000C880FF1F8A
:400080000000000008B53F4A13880133138000F0CFFA20B13B4A53880133538003E0394A938801339380374B1B88642B69D1354B9B7993B9334B5B88452B07D9314B0120C3
:4000C000188100225A8000F0BBFA18E02D4B00201881988000F0B4FA11E02A4B5B88452B07D9284B0120188100225A8000F0A8FA05E0244B00201881988000F0A1FA214A78
:400100005189013189B251810023138093895B0098B2138903439BB29381FF2B0BD192794AB9184A927B32B9164B5A819A8101229A71DA730EE0134A9279012A0AD108291F
:4001400008D9104A1382002393815381D3730123937493730B4B9B7B012B12D1094B5B89072B0ED9074B9B89012B03D10122054BDA7402E00122034B1A75024B00229A73CC
:400180009A7108BD5C81FF1F10B50C46C0B200F0EFFCE0B200F0F2FC10BD00BF08B500F01DFC1C4C1C4D0FCD20606160A260E3602B7823740021084600F01EFC204600F012
:4001C000B3FB41F2883000F0B3FC012000F0BAFB62B600F0E1FA00F06DFA00F01BFA00F099FC0E4800F040FC0D4D0FCD20606160A260E3602B8823820021084600F0FCFB51
:40020000204600F091FB074B9969188AFFF7BCFFF9E700BF8081FF1F640C000085000000780C00005C81FF1FFEE700BFF0B40022174611E050F82760F3B226F0FF0608E0D4
:4002400001EB420511F812406D78A5550132013BDBB2002BF4D101371C2FEBD9F0BC70470C4B1B78DBB203F007010B4A11701B09013213700122094B1A70102203F6B31367
:400280001A70202203331A704422A3F24D231A70704700BFCF0100496E5800400D51004008B50A46002100F0BEFC08BD38B540F65F12274B1A801823264A137043F67F6106
:4002C00002321180023213700222234B1A7008224FF040231A70002403F500731C701F4B1B78DBB21E4A13704FF442721D4B1A8041F25122023B1A8019250CE01A4B1B78E8
:4003000003F0010343EA440404F003044FF4F07000F042FC013D0DB1032CEFD115B90320FFF782FF114B4FF480721A8007221A7000220F490A704820023108701A7002229F
:40034000033B1A700B4A137843F00303137038BD8040004082400040004300400A010049A146004022420040254200400440004006400040A243004008B500F049FC08BDF3
:4003800038B572B6334A137843F00403137000240CE0314D630019194A0011462A44084691882858FFF77CFF0134E4B2072CF0D92A494FF09040FFF739FF0322284B1A8030
:4003C00002F1804202F5A832137843F0020313701032137843F002031370224C237843F040032370A2F58632513A137843F01003137008221C491D48FFF7BEFF08221C4933
:400400001C48FFF7B9FF08221B491C48FFF7B4FF08221B491B48FFF7AFFF08221A491B48FFF7AAFF1A4A137843F008031370194D61232B70FFF73AFF81232B700122164BC4
:400440001A70FFF70DFF0E2221461448FFF794FF38BD00BFE84600408C0C00007400004848580040A043004014040048025100401C040048C251004024040048125100403A
:400480002C040048225100403404004832510040224300400048004004000840B043004008B500F089FB03680C2B00D1FEE7FEE708B5104E104D16E029686B68AC680022AC
:4004C00004E051F8040B43F8040B0432A242F8D1E868002203E0002143F8041B04328242F9D11035013E002EE6D100F06BFBFFF755FEFEE701000000E40C000008B5104A0A
:40050000104B1A60104A136843F40073136000230AE0032B03D80D4A52F8231000E00C490C4A42F8231001332F2BF2D90A4B1A780A4B1A70074A0A4B1A60FFF721FF08BDF8
:400540000004FA050CED00E014ED00E000000000A10400000080FF1FBC760040C080FF1F08ED00E0054A137843F0010313701032137843F001031370704700BFA74300401B
:400580000F490B7803F0FC0200F0030313430B7001280AD10B4B1B78DBB20B4A13700B4B1B78DBB2013213707047094B1B78DBB2054A1370074B1B78DBB20132137070474E
:4005C00040580040100100493046004014010049AD010049B501004908B50220FFF7D0FF0B4B1A7802F0DF021A701A7802F0FB021A701A7842F008021A7003F287231A7842
:4006000002F0E7021A701A7842F010021A7008BD4058004008B5054B1B7823B9FFF7DCFF0122024B1A70FFF79DFF08BD7881FF1F024B187800F00100704700BF965B00402E
:40064000044A137803F0EF03000100F010001843107070470051004008B500F0A5FA044A137843F01003137000F0A2FA08BD00BF9765004008B5044A137843F0010313700E
:40068000FFF7EAFF08BD00BF74650040054B1A7802F0F8021A701A7800F0070010431870704700BF8765004008B50020FFF7EEFF08BD00BF08B5054B1B7823B9FFF7F4FFB7
:4006C0000122024B1A70FFF7D5FF08BD7981FF1F024A137843F080031370704775640040014B1880704700BF08680040014B1880704700BF88680040014B1880704700BF8B
:4007000048680040014B1870704700BF85640040014B1878704700BF65640040014B188880B27047A868004008B501E0FFF7F6FFFFF7EEFF10F0100FF8D108BD10B5144A9A
:40074000137803F0C00343F0090313701F32137843F0010313700F4C237843F001032370FF20FFF7BDFFFF20FFF7C0FF7F20FFF7C3FF0020FFF7C6FF00F016FA237843F07B
:400780001003237000F014FAFFF7CEFF10BD00BF756400409564004008B5054B1B7823B9FFF7CCFF0122024B1A70FFF791FF08BD7A81FF1F10B50B4C237803F09F0323707A
:4007C000237803F0F00323702378184340F010002070012000F0C2F9237803F0EF03237010BD00BFC051004038B505460E4C237843F020032370237803F0BF03237000204A
:4008000000F0ACF9237803F0F003237023781D4345F010052570012000F0A0F9237803F0EF03237038BD00BFC051004070B5354B1A7802F08002D2B21A7033490A7802F0CA
:40084000F00242F00F020A7001310A7802F0F0020A7001310A7802F0F0020A701A7802F0DF021A701A7842F040021A704FF4CA76002000F073F9234D2B7843F010032B7033
:40088000012000F06BF9214B1C78E4B22B7803F0EF032B70002000F061F904F00804E4B22B7843F010032B70012000F057F92B7803F0EF032B7014B90A2000F04FF9013E94
:4008C0000CB1002ED4D10F4A137803F0BF031370137803F08003DBB213700232137803F0F00313700132137803F0F00343F00F0313700132137803F0F00343F00F0313703B
:4009000070BD00BFC0510040C2510040C151004010B50446FFF78AFF2009FFF765FF04F00F00FFF761FF10BD38B505460078012404E0FFF7EDFF285D0134E4B20028F8D1C2
:4009400038BD00BF10B50446FFF770FF2009FFF731FF04F00F00FFF72DFF10BD08B5282000F0E6F80320FFF725FF052000F0E0F80320FFF71FFF0F2000F0DAF80320FFF7D0
:4009800019FF012000F0D4F80220FFF713FF052000F0CEF80620FFF7D5FF0E20FFF7D2FF2C20FFF7CFFF0820FFF7CCFF0120FFF7C9FF0C20FFF7C6FF0320FFF7C3FF052099
:4009C00000F0B6F808BD00BF08B50C20FFF7BAFF0122014B1A7008BD7B81FF1F08B5054B5B7823B9FFF7BAFF0122024B5A70FFF7EBFF08BD7B81FF1F08B5032819D8DFE861
:400A000000F002070D1381F08000FFF79BFF08BDA1F14000C0B2FFF795FF08BDA1F16C00C0B2FFF78FFF08BDA1F12C00C0B2FFF789FF08BD014B1B681864704708ED00E0C1
:400A40004001C0B2014B1870704700BF00E400E00122014B1A60704700E100E00122014B1A60704780E100E010B50446FFF7F6FF2046FFF7DFFF0720FFF7E2FFFFF7E8FF64
:400A800010BD00BF024A137843F080031370704777640040014B1870704700BF87640040014B1878704700BF67640040014B1880704700BF4C680040014B188880B27047D3
:400AC0008C680040014B1880704700BF0C68004008B501E0FFF7F0FFFFF7E2FF10F0080FF8D108BD08B53120FFF7E0FF3120FFF7E9FF00F059F8064A137843F010031370BE
:400B000000F056F8FFF7E4FF0120FFF7C3FF08BD9764004008B5054B1B7823B9FFF7E2FF0122024B1A70FFF7ADFF08BD7D81FF1F10B5044605E0084B186800F02DF8A4F580
:400B40000044B4F5004FF6D8034B586800FB04F000F022F810BD00BFCC80FF1F08B5034B1B7A00FB03F000F017F808BDCC80FF1F014B1870704700BF74640040044A137877
:400B800003F0DF03400100F0200018431070704700510040000000000230800803D000BF01380046FCD17047EFF3108072B6704780F31088704700BF014B1868704700BF89
:400BC0003C81FF1F0E4B70B51E460E4C0025E41AA410A54204D056F8253098470135F8E700F06EF8084B094C1E46E41AA4100025A54204D056F8253098470135F8E770BDFD
:400C0000CC0C0000CC0C0000CC0C0000D40C000010B5431E0A44914204D011F8014B03F8014FF8E710BD03460244934202D003F8011BFAE7704700000000000030784646CC
:400C4000207072652D6669780000000043726162733A2569204572723A256900676F6F64000000005374617274696E67204D6F64756C652100000000636F756E74696E67D2
:400C80002063726162732E2E2E000000004F00400C00405100403000F0510040100000000140001000140140000800400140000A004C014000020050014020004300000096
:400CC000F8B500BFF8BC08BC9E4670474D000000FD040000F8B500BFF8BC08BC9E46704729000000F80C0000C880FF1F780000005800000000000000000000000000E02E37
:400D0000C05D00001800000000366E010000000000000000000000000000000000000000000000000000000000000000BC0C00000000000000000000000000000000000011
:400D40000000000000000000000000000000000000000000000000000000000000000000000000000000000000000000DC80FF1F00000000000000000000000000000000F9
:400D80000000000000000000000000000000000000000000000000000000000000000000000000000000000000000000000000000000000000000000000000000000000033
:400DC00000000000000000000000000000000000000000000000000000000000000000000000000000000000000000000000000000000000000000000000000000000000F3
:400E000000000000000000000000000000000000000000000000000000000000000000000000000000000000000000000000000000000000000000000000000000000000B2
:400E40000000000000000000000000000000000000000000000000000000000000000000000000000000000000000000000000000000000000000000000000000000000072
:020000040003F7
:0200000480007A
:40000000024F00400652004002640040030301403D0401402D0501403B060140290701400408014003090140040B0140010D01403B14014016150140351601400F1701409A
:4000400001190140034001400B4101400642014005430140024401400C4501400B46014003470140064801400E490140085001400151014001800A1B0040010210A9116561
:4000800018441948850D870D8C40E040E6044030410449FF4AFF4BFF4DA04F0450185A0B5B045D095F01604062C06440654066C068C06AC06CC06EC087038A029901A20294
:4000C000AE01B201B302B402B701BE10C030C104C5D1C602C807C9FFCAFFCBFFCDAFCE0FCF04D018D280D405D808D908DA08DB08DC99DD99DF01E040E2C0E440E540E6C02F
:40010000E8C0EAC0ECC0EEC00410168017401C101D081E082640272037203F0840104280450846804F0956805E885F0168816A046B08700271807218774078017F018210BE
:4001400088018C029040A480A580A880A980C040C490CC20CE40D0C3D6D0DE11E001E804EC01020107010B01120134013701405449FF4AFF4BFF4F015018560858045908F5
:400180005A045B045C905D905F016040624064406540668068806A806C806E808F01AF01B701BF40C051C5ECC602C807C9FFCAFFCBFFCD83CE03CF01D018D280D401D904A4
:4001C000DA04DB04DF01E040E240E440E540E680E880EA80EC80EE8006400F401F20224027012A403B403C103F084380464049054B404F405240538059055A805C406401A0
:40020000670273407F01905097029C01A304AA08AB08AE04C010C210CA08CE68D088D218D61BD810DE10E806EC0138803E4058045F011F80E806EC01E081E440E804EC01F6
:40024000E6040C010E0218021A0134033E1041054404470B481049FF4AFF4BFF4CEF4D554E704F48501C520158045A045B045D115F0161086308650867086850690A6A404D
:400280006BA86CC06E406FA8C104C405C9FFCAFFCBFFCCEFCD55CE72CF48D01CDA04DD01DF01E108E308E508E708E850E90AEA40EBA8ECC0EE40EFA8020203010B08192038
:4002C0004301470248014E0250045304680169806B028004852095809B019F02C001C202D081D2184104440249FF4AFF4BFF4CEF4D554E724F48501C5A045D015F016108A8
:400300006308650867086850690A6A406BA86CC06E406FA8C101C404C5C0C6DEC70FC81EC9FFCAFFCBFFCCEACD55CEF2CF48D01CDA04DB04DD11DF01E108E308E508E708FD
:40034000E850E90AEA40EBA8ECC0EE40EFA8414043014722490151A8590161A88B219B01AF20D0A9D601D80EE620EE04AB8033803680CC300F0858105D0281028F04A68061
:40038000A780C280D480D680E620128099029C10A680A780C410630899029C10A780D8402B04CA085010548158025B205F08610866088304A304D407D607D803810888011D
:4003C0008F0894209E089F28A401A508A882E001E402A810AA08AF208A1099029C10AB04AF80EE3056105A025B40650283408410860199029A109C10D4C0D640D880E6C0B1
:40040000000101010A010B01100211011A021B01000B00008072720042000100007F7F0000000000000B0B000000000000FFFF00FF000000005C5C005C000000000000006F
:40044000000000000000000000000000000000000000000000000000000000000000000000000000000000000000000000000000000000000000000000000000000000007C
:40048000000000000000000000000000000000000000000000000000000000000000000000000000000000000000000000000000000000000000000000000000000000003C
:4004C00000000000000000000000000000000000000000000000000000000000000000000000000000000000000000000000000000000000000000000000000000000000FC
:4005000000000000000000000000000000000000000000000000000000000000000000000000000000000000000000000000000000000000000000000000000000000000BB
:0200000490006A
:0400000000004005B7
:0200000490105A
:04000000BC90ACAF55
:0200000490303A
:0200000059D4D1
:0200000490402A
:4000000000000000000000000000000000000000000000000000000000000000000000000000000000000000000000000000000000000000000000000000000000000000C0
:400040000000000000000000000000000000000000000000000000000000000000000000000000000000000000000000000000000000000000000000000000000000000080
:400080000000000000000000000000000000000000000000000000000000000000000000000000000000000000000000000000000000000000000000000000000000000040
:4000C0000000000000000000000000000000000000000000000000000000000000000000000000000000000000000000000000000000000000000000000000000000000000
:0200000490501A
:0C00000000012E16106900012E1C6A3D44
:00000001FF