:400000000080002011000000150400001504000008B5044B1A6803F53F5302331A6000F001FA00BFFA46004010B5054C237833B9044B13B10448AFF300800123237010BD4A
:400040003081FF1F00000000C80E0000084B10B51BB108490848AFF300800848036803B910BD074B002BFBD0BDE81040184700BF000000003481FF1FC80E0000C880FF1F86
:400080000000000008B5114A13880133138000F0E7FB20B10D4A93780133937003E00B4AD3780133D370094B1B88082B0DD1074B9B78062B02D90122044B9A70034BDB78FA
:4000C000062B02D90022014BDA7008BD4C81FF1F08B562B600F058FA00F092FA00F0C8FA00F04AFB00F0AEFB00F02CFC074800F051FC00F0B5FC00F0EFFC00F023FD00F059
:40010000A5FD00F009FE00F07FFEFEE785000000FEE700BFF0B40022174611E050F82760F3B226F0FF0608E001EB420511F812406D78A5550132013BDBB2002BF4D101378F
:400140001D2FEBD9F0BC704710B4224B1B78DBB203F00701204A11701B090132137041F201021E4B1A804FF4A25210331A80022210331A70412211331A700D2103F22F73C7
:400180001970102003F5DA731870402314490B70042408310C700121124C21708834237003342370053420700F480370053001700E490B700E4B1A7040F205136D310B8016
:4001C00004310B800B4B1A704422A3F2E2231A7010BC7047CF0100496E5800400C510040285A0040385A0040CB5A0040D35A0040DB5A0040585B004008B50A46002100F0AA
:400200005AFE08BD38B541F24F222C4B1A8018232B490B7002310A802A4A137043F29031023211800232137045F6DC0102321180023213700222244B1A7008224FF0402332
:400240001A70032103F500731970204B1B78DBB21F490B701F4B1A8041F25122023B1A80002419250CE01C4B1B7803F0010343EA440404F003044FF4F07000F0D5FD013D9B
:400280000DB1032CEFD115B90320FFF741FF134B4FF480721A8007221A70002210490A704820023108701A700222033B1A700D4A137843F00F03137038BD00BF80400040AE
:4002C00082400040864000400043004008010049A146004022420040254200400440004006400040A243004008B500F0D9FD08BD38B572B6354A137843F004031370002438
:400300000CE0334D630019194A0011462A44084691882858FFF770FF0134E4B2082CF0D92C494FF09040FFF7F5FE03222A4B1A8040F2031202331A8040F2032202331A80BC
:4003400040F2033202331A80244A137843F0020313701032137843F002031370204C237843F040032370A2F58632513A137843F01003137008221B491B48FFF7B5FF082208
:400380001A491B48FFF7B0FF08221A491A48FFF7ABFF082219491A48FFF7A6FF194A137843F008031370184D61232B70FFF72AFF81232B700122154B1A70FFF7C5FE0E2233
:4003C00021461348FFF790FF38BD00BFE8460040CC0E0000780000484858004003500140A043004058030048025100406003004812510040680300482251004070030048BE
:4004000032510040224300400048004004000840B043004008B500F017FD03680C2B00D1FEE7FEE708B5104E104D16E029686B68AC68002204E051F8040B43F8040B04328B
:40044000A242F8D1E868002203E0002143F8041B04328242F9D11035013E002EE6D100F0F9FCFFF735FEFEE701000000580F000008B5104A104B1A60104A136843F400730C
:40048000136000230AE0032B03D80D4A52F8231000E00C490C4A42F8231001332F2BF2D90A4B1A780A4B1A70074A0A4B1A60FFF71FFF08BD0004FA050CED00E014ED00E012
:4004C00000000000150400000080FF1FBC760040C080FF1F08ED00E0054A137843F0020313701032137843F002031370704700BFA74300400F490B7803F0FC0200F0030321
:4005000013430B7001280AD10B4B1B78DBB20B4A13700B4B1B78DBB2013213707047094B1B78DBB2054A1370074B1B78DBB2013213707047415800401101004932460040A4
:4005400015010049AF010049B701004908B50020FFF7D0FF0B4B1A7802F0DF021A701A7802F0FB021A701A7842F008021A7003F28E231A7802F0E7021A701A7842F0100265
:400580001A7008BD4158004008B5054B1B7823B9FFF7DCFF0122024B1A70FFF79DFF08BD5081FF1F08B500F047FC044A137843F01003137000F044FC08BD00BF9664004006
:4005C00008B5044A137843F001031370FFF7EAFF08BD00BF74640040054B1A7802F0F8021A701A7800F0070010431870704700BF8664004008B50020FFF7EEFF08BD00BF90
:4006000008B5054B1B7823B9FFF7F4FF0122024B1A70FFF7D5FF08BD5181FF1F01BE7047084A137843F060031370A2F5A652133A137843F0010313701032137843F001034B
:400640001370704777580040054B1A7802F0FC021A701A7800F0030010431870704700BF5858004008B50120FFF7EEFF08BD00BF08B5054B1B7823B90122034B1A70FFF75D
:40068000F1FFFFF7CDFF08BD5281FF1F084A137843F0040313701032137843F00403137002F5A5521E32137843F0800313707047A9430040044A137803F0FC0300F003000B
:4006C00018431070704700BF0958004010B487B00446194B03AA1868596803C2197A11706A4653F80C0F596803C21B7A1370082C1ED812490B7803F08003DBB20B700878DE
:4007000006AB1C4414F80C3C14F8182C920002F00C02134303430B70094A137803F0F3031370117814F8183C0B4343F00C03137007B010BC704700BF040F00000A58004067
:400740000958004008B50C22084B1A70084A137843F0200313708022064B1A700020FFF7B5FF0120FFF7A6FF08BD00BF08580040095800400A58004008B5054B1B7823B974
:40078000FFF7E0FF0122024B1A70FFF77FFF08BD5381FF1F054A137843F0010313701032137843F001031370704700BFA74300400F490B7803F0FC0200F0030313430B70F1
:4007C00001280AD10B4B1B78DBB20B4A13700B4B1B78DBB2013213707047094B1B78DBB2054A1370074B1B78DBB20132137070474058004010010049304600401401004959
:40080000AD010049B501004908B50220FFF7D0FF0B4B1A7802F0DF021A701A7802F0FB021A701A7842F008021A7003F287231A7802F0E7021A701A7842F010021A7008BDBB
:400840004058004008B5054B1B7823B9FFF7DCFF0122024B1A70FFF79DFF08BD5481FF1F024B187800F00100704700BF965B0040084A137843F0020313701032137843F002
:400880000203137002F65932137843F001031370704700BFA3430040014B1870704700BF0F4F004010B50446094B1B7813F0020F02D00020FFF7B2FE054B1A7842F00202AA
:4008C0001A70044A14801A7802F0FD021A7010BDA3430040124F0040014B1880704700BF104F004008B5154A137803F0010313700232137803F0FC031370013A137843F0A4
:40090000010313700E4B1A7802F0CF021A701A7842F030021A701A7802F0F0021A701A7842F00F021A70FF20FFF7D6FFFF20FFF7B9FF0020FFF7B0FF08BD00BF0C4F00407E
:40094000174F004008B5054B1B7823B9FFF7CAFF0122024B1A70FFF78BFF08BD5581FF1F014B1B685864704708ED00E04001C0B2014B1870704700BF01E400E00222014B1A
:400980001A60704700E100E00222014B1A60704780E100E010B50446FFF7F6FF2046FFF7DFFF0720FFF7E2FFFFF7E8FF10BD00BF054A137843F0080313701032137843F02D
:4009C00008031370704700BFA74300400F490B7803F0FC0200F0030313430B7001280AD10B4B1B78DBB20B4A13700B4B1B78DBB2013213707047094B1B78DBB2054A1370BB
:400A0000074B1B78DBB201321370704743580040130100493646004017010049B3010049BB01004908B50020FFF7D0FF0B4B1A7802F0DF021A701A7802F0FB021A701A78FC
:400A400042F008021A7003F527731A7802F0E7021A701A7842F010021A7008BD4358004008B5054B1B7823B9FFF7DCFF0122024B1A70FFF79DFF08BD5681FF1F08B500F0E7
:400A8000DBF9044A137843F01003137000F0D8F908BD00BF9765004008B5044A137843F001031370FFF7EAFF08BD00BF77640040054B1A7802F0F8021A701A7800F0070090
:400AC00010431870704700BF8765004008B50020FFF7EEFF08BD00BF08B5054B1B7823B9FFF7F4FF0122024B1A70FFF7D5FF08BD5781FF1F084A137843F060031370A2F5C4
:400B0000A652133A137843F0040313701032137843F004031370704777580040054B1A7802F0FC021A701A7800F0030010431870704700BF5C58004008B50120FFF7EEFFF1
:400B400008BD00BF08B5054B1B7823B90122034B1A70FFF7F1FFFFF7CDFF08BD5881FF1F084A137843F0080313701032137843F00803137002F5A5521E32137843F080036B
:400B800013707047A9430040044A137803F0FC0300F0030018431070704700BF0D58004010B487B00446194B03AA1868596803C2197A11706A4653F80C0F596803C21B7A7A
:400BC0001370082C1ED812490B7803F08003DBB20B70087806AB1C4414F80C3C14F8182C920002F00C02134303430B70094A137803F0F3031370117814F8183C0B4343F05A
:400C00000C03137007B010BC704700BF1C0F00000E5800400D58004008B50C22084B1A70084A137843F0200313708022064B1A700020FFF7B5FF0120FFF7A6FF08BD00BFAE
:400C40000C5800400D5800400E58004008B5054B1B7823B9FFF7E0FF0122024B1A70FFF77FFF08BD5981FF1F054A137843F0040313701032137843F004031370704700BF72
:400C8000A74300400F490B7803F0FC0200F0030313430B7001280AD10B4B1B78DBB20B4A13700B4B1B78DBB2013213707047094B1B78DBB2054A1370074B1B78DBB2013257
:400CC0001370704742580040120100493446004016010049B1010049B901004908B50220FFF7D0FF0B4B1A7802F0DF021A701A7802F0FB021A701A7842F008021A7003F22B
:400D000095231A7802F0E7021A701A7842F010021A7008BD4258004008B5054B1B7823B9FFF7DCFF0122024B1A70FFF79DFF08BD5A81FF1F084A137843F001031370103295
:400D4000137843F00103137002F64D32137843F001031370704700BFA3430040014B1870704700BF034F004010B50446094B1B7813F0010F02D00020FFF750FC054B1A78DB
:400D800042F001021A70044A14801A7802F0FE021A7010BDA3430040064F0040014B1880704700BF044F004008B5154A137803F0010313700232137803F0FC031370013A7F
:400DC000137843F0010313700E4B1A7802F0CF021A701A7842F030021A701A7802F0F0021A701A7842F00F021A70FF20FFF7D6FFFF20FFF7B9FF0020FFF7B0FF08BD00BF97
:400E0000004F00400B4F004008B5054B1B7823B9FFF7CAFF0122024B1A70FFF78BFF08BD5B81FF1F000000000230800803D000BF01380046FCD17047EFF3108072B6704775
:400E400080F31088704700BF014B1868704700BF2C81FF1F0E4B70B51E460E4C0025E41AA410A54204D056F8253098470135F8E700F060F8084B094C1E46E41AA410002554
:400E8000A54204D056F8253098470135F8E770BD400F0000400F0000400F0000480F000010B5431E0A44914204D011F8014B03F8014FF8E710BD03460244934202D003F8D7
:400EC000011BFAE77047000000000000004F00401800405100403000C05100401000F0510040100000000140001000140140000800400140000A004C01400002005001404B
:400F000020000000011121314161536373000000080901010507070404000000011121314161536373000000080901010507070404430000F8B500BFF8BC08BC9E46704715
:400F40004D00000071040000F8B500BFF8BC08BC9E46704729000000680F0000C880FF1F680000003000000000000000000000000000000000000000000000000000000092
:400F8000000000000000000000000000310F0000000000000000000000000000000000000000000000000000000000000000000000000000000000000000000000000000F1
:400FC000000000000000000000000000CC80FF1F00000000000000000000000000000000000000000000000000000000000000000000000000000000000000000000000087
:4010000000000000000000000000000000000000000000000000000000000000000000000000000000000000000000000000000000000000000000000000000000000000B0
:401040000000000000000000000000000000000000000000000000000000000000000000000000000000000000000000000000000000000000000000000000000000000070
:401080000000000000000000000000000000000000000000000000000000000000000000000000000000000000000000000000000000000000000000000000000000000030
:4010C00000000000000000000000000000000000000000000000000000000000000000000000000000000000000000000000000000000000000000000000000000000000F0
:020000040003F7
:0200000480007A
:40000000034F00400652004003020140020301403B040140130501402106014011070140010B0140010D0140391401400D150140351601401217014002190140011B014034
:4000400003400140064101400F42014003430140024401400845014007460140064701400348014008490140074C0140024D0140085001400151014001100A4B164B008075
:4000800009801010119418221982BE40D804DF011A02EA020C010E0218021A0132033E0441044402470B481049FF4AFF4BFF4CEF4D554E704F48501C520158045A045B0478
:4000C0005D335F0161086308650867086850690A6A406BA86CC06E406FA8C104C402C9FFCAFFCBFFCCEFCD55CE72CF48D01CDA04DD03DF01E108E308E508E708E850E90A08
:40010000EA40EBA8ECC0EE40EFA800400B081908432144084701500453046B01804883208C048D08AE01C001C202D0A5E250E60441044402450D460E47CF483549FF4AFF64
:400140004BFF4CEA4D554EF24F48501C5A045B045D335F0161086308650867086850690A6A406BA86CC06E406FA8D201DB04DD20DF01440847014F04564857025E02664869
:4001800067046A406B027A017B0298089B01D0A0D680D870E604EA02000202010401060236033E4041044402460B480449FF4AFF4BFF4CEF4D554E704F48501C58045A0481
:4001C0005D025F0161086308650867086850690A6A406BA86CC06E406FA8C104C402C9FFCAFFCBFFCCEFCD55CE72CF48D01CDA04DD02DF01E108E308E508E708E850E90A39
:40020000EA40EBA8ECC0EE40EFA803901A0242404310471253808780924096029B12C00CD0A5E4084104440249FF4AFF4BFF4CEF4D554E724F48501C5A045D025F01610809
:400240006308650867086850690A6A406BA86CC06E406FA8C104C402C5C0C6DEC70FC81EC9FFCAFFCBFFCCEACD55CEF2CF48D01CDA04DB04DD22DF01E108E308E508E708AC
:40028000E850E90AEA40EBA8ECC0EE40EFA84240431047124901518852105901618862108310860192409B02D0A5D601D80EE204E402E204E402E40830103480CC305D02EF
:4002C0009B809C90AF80D680EA40101014805B025F0283048D028E019B829C909D02AF02C430D6C0E620EE409B80A201A3042A80CA081280581060046708AE80C408D4011D
:40030000D80300108280940497089C10A280C00200049010940497089C10C0089B80A201A3045E025F8063089B80A201A304D6A0D840601080048410901497089C10D80267
:4003400087049708000C01010A0C0B01100411011A041B01000A00000080800080001200008B8B008000540000D4D4009400020000A6A600A20041000000000000000000D0
:40038000000000000000000000000000000000000000000000000000000000000000000000000000000000000000000000000000000000000000000000000000000000003D
:4003C00000000000000000000000000000000000000000000000000000000000000000000000000000000000000000000000000000000000000000000000000000000000FD
:4004000000000000000000000000000000000000000000000000000000000000000000000000000000000000000000000000000000000000000000000000000000000000BC
:40044000000000000000000000000000000000000000000000000000000000000000000000000000000000000000000000000000000000000000000000000000000000007C
:0200000490006A
:0400000000004005B7
:0200000490105A
:04000000BC90ACAF55
:0200000490303A
:02000000564266
:0200000490402A
:4000000000000000000000000000000000000000000000000000000000000000000000000000000000000000000000000000000000000000000000000000000000000000C0
:400040000000000000000000000000000000000000000000000000000000000000000000000000000000000000000000000000000000000000000000000000000000000080
:400080000000000000000000000000000000000000000000000000000000000000000000000000000000000000000000000000000000000000000000000000000000000040
:4000C0000000000000000000000000000000000000000000000000000000000000000000000000000000000000000000000000000000000000000000000000000000000000
:0200000490501A
:0C00000000012E16106900012E1C66ABDA
:00000001FF