:400000000080002011000000550600005506000008B5044B1A6803F53F5302331A6000F039FB00BFFA46004010B5054C237833B9044B13B10448AFF300800123237010BD8D
:400040005081FF1F000000004C2E0000084B10B51BB108490848AFF300800848036803B910BD074B002BFBD0BDE81040184700BF000000005481FF1F4C2E0000C880FF1FFE
:4000800000000000094B1B683BB9084A5268062A03DC0132054B5A607047044A5268062A02DD0133014A1360704700BF6C81FF1F08B501F06DFC08BD38B501221A4B1A72FF
:4000C0001A4B1B78DBB213F01E0F05D0164803F01E02417A0A43427203F0200303F0FF04F3B1134B1B78DBB2124A13700E4A527AB2B9114A13700021084600F067FD0F4DB0
:400100000C4B1A780E49284602F07CFA0D4800F0EBFC0021084600F059FD284600F0E4FC002CCDD138BD00BF6C81FF1F6C64004048650040CC80FF1F4B6500401882FF1FF2
:40014000502E00005C2E000008B502F0C5F908BD013903290ED8DFE801F00205080BC0F3C00307E0C0F3800304E0C0F3400301E000F0010318467047053907291CD8DFE8A7
:4001800001F004070A0D10131619C0F3C01313E0C0F3801310E0C0F340130DE0C0F300130AE0C0F3C00307E0C0F3800304E0C0F3400301E000F001031846704707291CD80D
:4001C000DFE801F004070A0D10131619C0F3C01313E0C0F3801310E0C0F340130DE0C0F300130AE0C0F3C00307E0C0F3800304E0C0F3400301E000F001031846704700BF6B
:4002000008B500F001FD00F093FB00F0A9FD00F0E3FE00F0C1FF01F09FF802F087F801F017FD08BD08B501F01FFE00F0F9FC00F095FB00F0ABFD00F0E5FE00F0C3FF01F07D
:40024000A1F802F087F808BD70B55A4800F0C4FD62B60021084601F07BFB02F059F8564802F09CF800F09EFA00F098FC00F024FB00F076FE00F054FF01F032F800F042FDD6
:400280004E4800F0D1FD4E4802F0B0F8522000F005FE292000F008FE162000F0DFFE0B2000F0E2FE1A2000F0B9FF0D2000F0BCFF00252C464FF4FA7001F02AFB414B5B7AA3
:4002C00013B100223F4B5A723E4B19680D295ED8DFE801F0070E0E0E0E141414141414141419384B5968FF20FFF768FF04464EE0354B1878FFF72CFF044648E00120FFF7AA
:400300003BFF044643E02F4B00261E725E600135FFF776FF02F0D2F84FF40061304601F0C9FE042D00D13546274A13785B00137000F04EFA00F086FC002000F083FD142034
:4003400001F0E6FA002001F029F8FFF759FF06E002F0B4F84FF40061002001F0ABFE194B1B7A002BF4D002F073F8FFF75BFF012000F068FD142001F0CBFA012001F00EF83D
:400380000022104B1A6000F097FA00F0BBFC012C06D1162000F034FA0B2000F037FA89E7002C87D11A2000F02BFA0D2000F02EFA80E700BFB9000000B100000085000000DD
:4003C000490100006C81FF1FCC80FF1FFEE700BFF0B40022174611E050F82760F3B226F0FF0608E001EB420511F812406D78A5550132013BDBB2002BF4D101371F2FEBD96C
:40040000F0BC7047064B1B78DBB203F00701054A11701B09013213704422034B1A707047CF0100496E5800407658004008B50A46002102F0DEF808BD08B502F0CFF808BD2B
:4004400038B51722314B1A80182331490B7002310A8002310B7002310A8002310B7002310A802C4A13701925023215800232137045F6BF510232118002321370042226496A
:400480002648FFF7D9FF0222254B1A7008224FF040231A70032103F500731970214B1B78DBB221490B70214B1A8041F25122023B1A8000240CE01E4B1B7803F0010343EA50
:4004C000440404F003044FF4F07002F00DF8013D0DB1032CEFD115B90320FFF777FF154B4FF480721A8007221A70002212490A704820023108701A700222033B1A700F4A1C
:40050000137843F03F03137038BD00BF80400040824000408E40004048080048004100400043004008010049A146004022420040254200400440004006400040A2430040E5
:4005400038B572B600240CE0324D630019194A0011462A44084691882858FFF767FF0134E4B2082CF0D900240BE02A49A3001819420088188022C16B806BFFF75DFF0134B0
:40058000E4B2002CF1D024494FF09040FFF720FF224A137843F0020313701032137843F0020313701E4C237843F040032370A2F58632513A137843F0100313700822194925
:4005C0001948FFF739FF0A2218491948FFF734FF082218491848FFF72FFF082217491848FFF72AFF174A137843F008031370164D61232B70FFF724FF81232B700122134B35
:400600001A70FFF7FFFE0E2221461148FFF714FF38BD00BF6C2E00008000004803500140A043004024080048025100402C080048C0510040380800481251004040080048E8
:4006400022510040224300400048004004000840B043004008B501F095FF03680C2B00D1FEE7FEE708B5094B1A681044084BC31AB3F5407F02DC054B186005E001F082FF21
:400680000C2303604FF0FF32104608BDD480FF1F3882FF1F08B5104E104D16E029686B68AC68002204E051F8040B43F8040B0432A242F8D1E868002203E0002143F8041B92
:4006C00004328242F9D11035013E002EE6D101F05FFFFFF7B9FDFEE701000000182F000008B5104A104B1A60104A136843F40073136000230AE0032B03D80D4A52F82310DD
:4007000000E00C490C4A42F8231001332F2BF2D90A4B1A780A4B1A70074A0A4B1A60FFF70FFF08BD0004FA050CED00E014ED00E000000000550600000080FF1FBC76004091
:40074000C080FF1F08ED00E07222074B1A703E2204331A7006229E331A70472210331A7000224E331A7070478864004010B501F0C3FE04460A4A137843F02003137004323D
:40078000137843F010031370FC32137843F01003137000F00FFE204601F0B2FE10BD00BF9864004008B5054B1B7823B9FFF7CCFF0122024B1A70FFF7D9FF08BD7C81FF1FB2
:4007C000024A137843F08003137070477D640040024A137803F07F03137070477D640040014B1870704700BF0D640040024B1B78024B1878704700BF1D6400405D6400407A
:40080000014B1870704700BF4D640040014B1870704700BF2D640040014B1870704700BF8D640040014B1878704700BF6D640040014B1878704700BF7D640040014B18703D
:40084000704700BF7D640040014B1878704700BF5D64004008B501E0FFF7F6FFFFF7E2FF10F0100FF8D108BD10B5114A137803F0C00343F0090313700E4C237843F0010332
:400880002370FF20FFF7ACFFFF20FFF7B9FF7F20FFF7BCFF0020FFF7BFFF01F02DFE237843F01003237001F02BFEFFF7D3FF10BD7D6400409D64004008B5054B1B7823B9D7
:4008C000FFF7D2FF0122024B1A70FFF779FF08BD7E81FF1F014B1878704700BF4D64004010B5FFF7F7FF064CA070FFF77FFF6070044B1B78E370FFF79BFF207110BD00BF6B
:400900008081FF1F8D64004010B5074CA078FFF777FF6078FFF764FFE278044B1A702079FFF78CFF10BD00BF8081FF1F8D64004008B5084B1B7813F0800F03D00122064BF5
:400940001A7002E00022044B1A70FFF741FFFFF7C7FF08BD7D6400408081FF1F08B5FFF7D3FF034B1B780BB1FFF72AFF08BD00BF8081FF1F10B50B4C237803F09F03237056
:40098000237803F0F00323702378184340F010002070012000F0D2FF237803F0EF03237010BD00BF2051004038B505460E4C237843F020032370237803F0BF032370002012
:4009C00000F0BCFF237803F0F003237023781D4345F010052570012000F0B0FF237803F0EF03237038BD00BF2051004070B5354B1A7802F08002D2B21A7033490A7802F07D
:400A0000F00242F00F020A7001310A7802F0F0020A7001310A7802F0F0020A701A7802F0DF021A701A7842F040021A704FF4CA76002000F083FF234D2B7843F010032B705B
:400A4000012000F07BFF214B1C78E4B22B7803F0EF032B70002000F071FF04F00804E4B22B7843F010032B70012000F067FF2B7803F0EF032B7014B90A2000F05FFF013E7A
:400A80000CB1002ED4D10F4A137803F0BF031370137803F08003DBB213700232137803F0F00313700132137803F0F00343F00F0313700132137803F0F00343F00F03137079
:400AC00070BD00BF20510040225100402151004010B50446FFF78AFF2009FFF765FF04F00F00FFF761FF10BD38B505460078012404E0FFF7EDFF285D0134E4B20028F8D1E1
:400B000038BD00BF10B50446FFF770FF2009FFF731FF04F00F00FFF72DFF10BD08B5282000F0F6FE0320FFF725FF052000F0F0FE0320FFF71FFF0F2000F0EAFE0320FFF7CC
:400B400019FF012000F0E4FE0220FFF713FF052000F0DEFE0620FFF7D5FF0E20FFF7D2FF2C20FFF7CFFF0820FFF7CCFF0120FFF7C9FF0C20FFF7C6FF0320FFF7C3FF0520AB
:400B800000F0C6FE08BD00BF08B50C20FFF7BAFF0122014B1A7008BD8581FF1F08B5054B5B7823B9FFF7BAFF0122024B5A70FFF7EBFF08BD8581FF1F08B50820FFF7A2FF99
:400BC0000022014B1A7008BD8581FF1F08B5032819D8DFE800F002070D1381F08000FFF791FF08BDA1F14000C0B2FFF78BFF08BDA1F16C00C0B2FFF785FF08BDA1F12C0029
:400C0000C0B2FFF77FFF08BD08B5034B1A78034B1A70FFF7D1FF08BD8581FF1F8881FF1F08B5034B1B78012B01D1FFF7ADFF08BD8881FF1F024A137843F0800313707047CD
:400C400075650040024A137803F07F031370704775650040014B1870704700BF85650040014B1878704700BF65650040014B1878704700BF75650040014B1870704700BF34
:400C800075650040014B1880704700BF486A0040014B188880B27047886A0040014B1880704700BF086A0040024B1B78024B188880B2704704650040886A004008B501E08C
:400CC000FFF7E6FFFFF7CCFF10F0080FF8D108BD08B540F2F310FFF7D5FF40F2F310FFF7DDFF01F009FC064A137843F01003137001F006FCFFF7E2FF0120FFF7ABFF08BD06
:400D00009565004008B5054B1B7823B9FFF7E0FF0122024B1A70FFF78DFF08BD8981FF1F10B5FFF7C1FF044C6080044B1B782371FFF79CFF607110BD8C81FF1F856500401A
:400D400010B5054C6088FFF7A9FF2279034B1A706079FFF791FF10BD8C81FF1F8565004008B5084B1B7813F0800F03D00122064B1A7002E00022044B1A70FFF763FFFFF7B2
:400D8000CFFF08BD756500408C81FF1F08B5FFF7D7FF034B1B78012B01D1FFF74BFF08BD8C81FF1F014B1B685864704708ED00E04001C0B2014B1870704700BF01E400E0EA
:400DC0000222014B1A60704700E100E00222014B1A60704780E100E010B50446FFF7F6FF2046FFF7DFFF0720FFF7E2FFFFF7E8FF10BD00BF014B1B689864704708ED00E0BD
:400E00004001C0B2014B1870704700BF02E400E00422014B1A60704700E100E00422014B1A60704780E100E010B50446FFF7F6FF2046FFF7DFFF0720FFF7E2FFFFF7E8FF98
:400E400010BD00BF044A137803F07F03C001C0B218431070704700BF10510040024A137843F080031370704773640040024A137803F07F031370704773640040014B188014
:400E8000704700BF04680040024B1B78024B188880B2704712640040A4680040014B1880704700BF84680040014B1880704700BF44680040014B1870704700BF836400401B
:400EC000014B1878704700BF63640040014B1878704700BF73640040014B1870704700BF73640040014B188880B27047A468004008B501E0FFF7F6FFFFF7E2FF10F0100F2F
:400F0000F8D108BD10B5144A137803F0C00343F0090313701F32137843F0010313700F4C237843F0010323705220FFF7A7FF5220FFF7B4FF2920FFF7B7FF0020FFF7BAFFBA
:400F400001F0DAFA237843F01003237001F0D8FAFFF7CEFF10BD00BF736400409364004008B5054B1B7823B9FFF7CCFF0122024B1A70FFF773FF08BD9281FF1F014B188857
:400F800080B270478468004010B5FFF7F7FF064CA080FFF779FF6080044B1B78A371FFF795FFE07110BD00BF9481FF1F8364004010B5074CA088FFF771FF6088FFF75EFF13
:400FC000A279044B1A70E079FFF786FF10BD00BF9481FF1F8364004008B5084B1B7813F0800F03D00122064B1A7002E00022044B1A70FFF73BFFFFF7C7FF08BD7364004098
:401000009481FF1F08B5FFF7D3FF034B1B780BB1FFF724FF08BD00BF9481FF1F024A137843F08003137070477B640040024A137803F07F03137070477B640040014B18801C
:40104000704700BF14680040024B1B78024B188880B270471A640040B4680040014B1880704700BF94680040014B1880704700BF54680040014B1870704700BF8B64004009
:40108000014B1878704700BF6B640040014B1878704700BF7B640040014B1870704700BF7B640040014B188880B27047B468004008B501E0FFF7F6FFFFF7E2FF10F0100F45
:4010C000F8D108BD10B5144A137803F0C00343F0090313701F32137843F0010313700F4C237843F0010323701620FFF7A7FF1620FFF7B4FF0B20FFF7B7FF0020FFF7BAFF8F
:4011000001F0FAF9237843F01003237001F0F8F9FFF7CEFF10BD00BF7B6400409B64004008B5054B1B7823B9FFF7CCFF0122024B1A70FFF773FF08BD9C81FF1F014B18883D
:4011400080B270479468004010B5FFF7F7FF064CA080FFF779FF6080044B1B78A371FFF795FFE07110BD00BFA081FF1F8B64004010B5074CA088FFF771FF6088FFF75EFF2D
:40118000A279044B1A70E079FFF786FF10BD00BFA081FF1F8B64004008B5084B1B7813F0800F03D00122064B1A7002E00022044B1A70FFF73BFFFFF7C7FF08BD7B640040BA
:4011C000A081FF1F08B5FFF7D3FF034B1B780BB1FFF724FF08BD00BFA081FF1F024A137843F080031370704779650040024A137803F07F031370704779650040014B188045
:40120000704700BF10680040024B1B78024B188880B2704718640040B0680040014B1880704700BF90680040014B1880704700BF50680040014B1870704700BF896400405B
:40124000014B1878704700BF69640040014B1878704700BF79650040014B1870704700BF79650040014B188880B27047B068004008B501E0FFF7F6FFFFF7E2FF10F0100F8B
:40128000F8D108BD10B5144A137803F0C00343F009031370E13A137843F0010313700F4C237843F0010323701B20FFF7A7FF1B20FFF7B4FF0D20FFF7B7FF0020FFF7BAFFF7
:4012C00001F01AF9237843F01003237001F018F9FFF7CEFF10BD00BF796500409964004008B5054B1B7823B9FFF7CCFF0122024B1A70FFF773FF08BDA881FF1F014B188833
:4013000080B270479068004010B5FFF7F7FF064CA080FFF779FF6080044B1B78A371FFF795FFE07110BD00BFAC81FF1F8964004010B5074CA088FFF771FF6088FFF75EFF65
:40134000A279044B1A70E079FFF786FF10BD00BFAC81FF1F8964004008B5084B1B7813F0800F03D00122064B1A7002E00022044B1A70FFF73BFFFFF7C7FF08BD79650040EF
:40138000AC81FF1F08B5FFF7D3FF034B1B780BB1FFF724FF08BD00BFAC81FF1F044A137803F07F03C001C0B218431070704700BF20510040054A137843F010031370103270
:4013C000137843F010031370704700BFA24300400E4B1B7813F0070F04D10D4B1B7813F0010F0CD1094B1B7803F00703012B08D1084B1B7813F0010F05D100207047012099
:401400007047002070470120704700BF93430040A5430040B54300400C4A137803F0F003137000220A4B1A700A4A137843F080031370C2B2084B1A70000A01331870074A46
:40144000137843F001031370704700BF1440004010400040084000400240004001400040024A137803F0FE031370704720420040054A137803F0EF0313701032137803F059
:40148000EF031370704700BFA0430040024A137843F010031370704700420040024A137803F0EF031370704700420040044A137803F0FC0300F0030018431070704700BFBE
:4014C00005400040014B1870704700BF0440004070B5054601F010F80646164B1A78013B1B7843EA022305B1EBB9134B1C78E4B2062C02D80720FFF7E5FF45B90F4A1378FF
:4015000043F0400313702846FFF786FF07E02846FFF782FF094A137803F0BF0313702046FFF7D0FF02E02846FFF776FF304600F0E7FF70BD074000400440004008400040F5
:40154000024A137843F004031370704700430040024A137803F0FB031370704700430040F8B5194A137843F00103137048B3174B1C7804F00404E4B280331F78FFB2023310
:401580001E78F6B2182000F027FE09E0104B1B7813F0010F04D00E4B1B7813F0010F07D1012000F001FE10F0010FEFD0102500E000250CB9FFF7CCFF064B1F7002331E70C9
:4015C00000E000252846F8BD20420040004300402542004080430040144A137843F0100313701032137843F010031370E0B170B50F4B1C7804F00404E4B280331E78F6B285
:4016000002331D78EDB2002000F0E6FD012000F0CBFD10F0010FF9D00CB9FFF799FF054B1E7002331D7070BD704700BFA04300400043004080430040F0B583B08DF80700F9
:40164000254A137843F001031370002840D0234B1E78F6B280331D78EDB202331C78E4B2182000F0B9FD21E01B4B1B7804238DF806300BE0012000F097FD10F0010FF9D069
:401680009DF80630013BDBB28DF806309DF8063013F0FF0FEED1104B1B7813F0800F0CD09DF80730013BDBB28DF807309DF8073013F0FF0FD8D1102700E0002716F0040FB6
:4016C00001D1FFF745FF064B1D7002331C7000E00027384603B0F0BD104200400043004080430040024A137803F0FE03137070471042004001BE704710B50446FFF768FECA
:40170000012804D1254A137803F0FD031370082C3FD8DFE804F0050B11171D23293E2F001F4B1B78DBB21F4A137010BD1E4B1B78DBB21C4A137010BD1C4B1B78DBB2194ABB
:40174000137010BD1A4B1B78DBB2164A137010BD184B1B78DBB2134A137010BD164B1B78DBB2104A137010BD144B1B78DBB20D4A137010BD124B1B78DBB20A4A13700128E6
:401780000AD102F5CB520832137843F00203137010BD0020FFF7AEFF10BD00BF0960004008010049A1460040090100490A0100490B010049890100490C0100490D01004900
:4017C0000F01004970B506463A4B1C7804F00704082801D1032500E00546062C0BD8DFE804F0040D06080D0D0D00022406E0032404E0002402E00020FFF77CFFAC4202D826
:401800003046FFF779FF082E44D8DFE806F0050D151B232B33433B00264A137803F0B80343F00303137038E0224A137803F0B80343F00103137030E01E4A137803F0B803E7
:4018400013702AE01B4A137803F0B80343F00203137022E0174A137803F0B80343F0040313701AE0134A137803F0B80343F00503137012E00F4A137803F0B80343F006031B
:4018800013700AE00B4A137803F0B80343F04203137002E00020FFF72DFF082E02D1FFF7F5FD01E0FFF7FAFDAC4202D93046FFF723FF70BD0042004008B501280FD0D8B1FB
:4018C00002281FD14FF04022137803F0BF03137002F50072137843F02003137008BD4FF04022137843F04003137002F50072137843F02003137008BD044A137803F0DF0373
:40190000137008BD0020FFF7F5FE08BD0042004010B5044605E0084B186800F0E5FDA4F50044B4F5004FF6D8034B586800FB04F000F0DAFD10BD00BFD880FF1F08B5034B02
:401940001B7A00FB03F000F0CFFD08BDD880FF1F0E4B1A7802F0FC0200F00300104318701A7842F080021A701A7802F07F021A7049011A7801F0600102F09F021143197047
:401980001A7842F010021A70704700BF834300400122014B1A707047844300402DE9F04FDFF8BCA19AF80020554B9A72DFF8B49199F80020DA72534A12781A73524A1278BA
:4019C0005A73524A12789A73514A1278DA73514A12781A74504A12785A74504A12789A744F4A1278DA744F4A12781A754E4A12785A754E4A12789A754D4A1278DA754D4A52
:401A000012781A764C4A12785A764C4A12789A76DFF854B19BF80020DA76DFF8508198F800201A77DFF848C19CF800205A77DFF844E19EF800209A77414F3A78DA77414E5A
:401A4000327883F82020404D2A7883F821203F4C227883F822203E48027883F823203D490A7883F824203C4A127883F8252000238AF8003089F80030224A137001321370B4
:401A8000023213700232137002321370063213700232137001321370013213700232137002321370023213700632137002321370013213708BF8003088F800308CF80030BF
:401AC0008EF800303B7033702B70237003700B7017321370214B1B7813F0080F0AD00122074B83F82F201D4A137803F0F7031370BDE8F08F0022024B83F82F20BDE8F08FE5
:401B0000B481FF1F035A0040045A0040065A0040085A00400A5A0040105A0040125A0040135A0040145A0040165A0040185A00401A5A0040205A0040225A0040235A004037
:401B4000305A0040325A0040335A0040345A0040365A0040385A00403A5A004022430040005A0040025A0040245A0040265A0040285A00402A5A0040334B997A334A117050
:401B8000D97A02321170197B01321170597B01321170997B02321170D97B02321170197C02321170597C06321170997C02321170D97C01321170197D01321170597D02327C
:401BC0001170997D02321170D97D02321170197E06321170597E02321170997E01321170D97E01321170197F02321170597F02321170997F02321170D97F0632117093F899
:401C000020100232117093F821100132117093F822100132117093F823100232117093F824100232117093F825100232117093F82F30012B06D1A2F5B852183A137843F0E4
:401C400008031370704700BFB481FF1F005A004010B5784A1378784C03F00F0384F83030764B197884F83110117801F0F00111701A7800221A7003F25E431B7803F0C003A4
:401C800084F83530372000F03FFC6D4B1A7802F0070284F833201A7802F0400284F834201B7813F0100F03D0012284F8392003E00022614B83F83920624B1B7803F00303D9
:401CC0005D4A82F83230012B19D14FF040231B7803F00303012B07D013B1022B08D00BE00020FFF7E3FB0AE00220FFF7DFFB06E00320FFF7DBFB02E00020FFF7FBFC524B35
:401D00001B7813F0010F06D001224B4B83F83E20FFF7A6FB03E00022474B83F83E200420FFF750FD494B1B7813F0100F04D00122414B83F8362008E000203F4B83F8360047
:401D4000FFF74AFC0620FFF7F9FD3D4B1B7813F0200F0FD04FF040231B7813F0400F01D1022200E00122344B83F837200020FFF7A3FD03E00022304B83F837204FF040236E
:401D80001B7803F030032C4A82F838302BB14FF04022137803F0CF031370294B1B7813F0100F01D0FFF77AFB294B1B78DBB2224A82F83A3013B10020FFF784FB1E4B93F82C
:401DC000323013B10020FFF771FB224B1B781B02194A9387204909780B43938713B10020FFF776FB164B1B7803F007031B4AD05C00F08AFB1A4B1B7813F0010F06D0012209
:401E00000D4B83F83F20FFF76DFC03E000220A4B83F83F20134B1B7813F0040F04D00122054B83F8402010BD0022034B83F8402010BD00BFA1430040B481FF1FA243004074
:401E4000004200400540004020420040A0430040044000400740004006400040B02E0000104200400B40004010B582B0854B53F8080F00909A889B79ADF804208DF8063097
:401E8000814B93F84030012B10D1804B1B7803F007037C4AD05C00EB8000C0EB001000F023FB7B4A137843F004031370764B93F83F30012B1AD10020FFF7BEFB754B1B78CC
:401EC000052411E0714B1B7803F007036D4AD35CC82000FB03F000F007FB6E4B1B7813F0800F03D0013CA4B2002CEBD1372000F00BFB654B93F83230023BDBB2012B0ED8DC
:401F0000654B1B78DBB2604A92F83A00834201D0FFF7D8FA5C4B93F83200FFF7C7FA5A4B93F8343013F0400F0CD0574B93F8333002AA134413F8083C032B03D10820FFF726
:401F400041FC18E0504C94F8333002AA134413F8080CFFF737FC94F8343013F0400F05D04A4A137843F04003137004E0474A137803F0BF031370444B93F83630012B07D16B
:401F8000464B1B7813F0100F02D10020FFF724FB3D4C94F83700FFF78FFC94F83930012B01D1FFF773FA384B93F838304FF04022127802F030029A4206D04FF040210A7817
:401FC00002F0CF0213430B702F4B93F83E30012B1AD10020FFF7C4FA5020FFF7AFFC304B1B78AB240EE00120FFF7A8FC2C4B1B7813F0010F04D02A4B1B7813F0010F03D178
:40200000013CA4B2002CEED11F4B93F83230012B0ED8214B1B78DBB21B4A92F83A00834201D0FFF74FFA184B93F83200FFF73EFA154B93F8363033B9184B1B7813F0100F8C
:4020400001D0FFF715FA174B1A78013B1B7843EA02230D4A908F834201D0FFF739FA12480278094B93F8351002F03F020A43027093F830100D4A117093F831200C4B1A70F6
:4020800002B010BDB02E0000B481FF1F004200400B4000401042004004400040A0430040254200400740004000480040A1430040A243004070B506460C4600F01DFA054616
:4020C000334B1B7813F0080F06D1324A137803F01F03137036B102E000F012FA70BD0020FFF708FBFFF75AFC2B4A11782B4B1971C4F30711117001321178597104F00F0110
:402100001170013211789971C4F300341470244B1B7813F0070F04D10122204B83F82E200DE01E49002381F82E301D4B1A7802F0070281F82D201A7802F0F8021A70144A33
:40214000137803F0F80343F003031370137800BF00BF30BF114B93F82E30012B08D010490B780E4A92F82D2003F0F80313430B70FFF702FD094B1979074A1170597901326D
:4021800011709A79074B1A70284600F0B9F970BD934300408346004098430040B481FF1F004200409A43004038B5054600F0A4F9074B1978074A92F842300B4303F0070405
:4021C00023EA050382F8423000F09AF9204638BD90430040B481FF1F38B50546134C237803F0FD032370FFF7ABF9237813F0010F0FD00F4B1B78DBB2AB4216D0227802F0E2
:40220000FE0222700A4A1570227842F00102227038BD074B1B78DBB29D4201D0044B1D70024A137843F00103137038BD8243004080430040084A137843F001031370103278
:40224000137843F00103137002F64D32137843F001031370704700BFA3430040084A137803F0FE031370A2F65D32137803F0FE0313701032137803F0FE031370704700BF8A
:40228000004F0040014B1870704700BF034F0040014B1880704700BF044F0040014B1880704700BF064F004008B5164A137803F0010313700232137803F0FC031370124B24
:4022C0001A7802F0CF021A701A7842F030021A701A7802F0F0021A701A7842F00F021A700A4A137843F0010313704FF6FF70FFF7CFFF4FF6FF70FFF7D1FF0020FFF7C2FFBE
:4023000008BD00BF004F00400B4F0040014F004008B5054B1B7823B9FFF7C6FF0122024B1A70FFF787FF08BDF781FF1F08B5074B1B7813F0010F03D00122054B1A7002E0F1
:402340000022034B1A70FFF789FF08BD004F0040F881FF1F08B5034B1B78012B01D1FFF769FF08BDF881FF1F014B1B68D864704708ED00E04001C0B2014B1870704700BF10
:4023800003E400E00822014B1A60704700E100E00822014B1A60704780E100E010B50446FFF7F6FF2046FFF7DFFF0720FFF7E2FFFFF7E8FF10BD00BF014B1B681864704769
:4023C00008ED00E04001C0B2014B1870704700BF00E400E00122014B1A60704700E100E00122014B1A60704780E100E010B50446FFF7F6FF2046FFF7DFFF0720FFF7E2FFD3
:40240000FFF7E8FF10BD00BF08B50F4B1B7813F0020F0ED100F070F80B4A137843F0020313708232137843F00403137000F068F808BD00F061F8054A137843F004031370B2
:4024400000F05EF808BD00BF004300408243004008B500F051F8044A137803F0FB03137000F04EF808BD00BF8243004008B500F043F8044A137843F00803137000F040F85E
:4024800008BD00BF82430040064B1B7813F0040F07D1054A137803F0F00300F00F00184310707047824300408143004008B50C20FFF7EAFFFFF7DAFF08BD00BF08B5054B3F
:4024C0001B7823B9FFF7F2FF0122024B1A70FFF79BFF08BDF981FF1F08B50220FFF764FE08BD00BF000000000230800803D000BF01380046FCD17047EFF3108072B6704744
:4025000080F31088704700BF38B50446FFF7F4FF05460F2C07D81A4A137803F01F0343F04003137028E0202C07D8154A137803F01F0343F0800313701EE0312C07D8104A99
:40254000137803F01F0343F0C003137014E0422C05D80B4A137803F01F0313700CE0532C07D8074A137803F01F0343F02003137002E00020FFF7BEF82846FFF7C1FF38BDB0
:4025800000480040014B1868704700BF4881FF1F0E4B70B51E460E4C0025E41AA410A54204D056F8253098470135F8E700F0A2FC084B094C1E46E41AA4100025A54204D0D9
:4025C00056F8253098470135F8E770BD002F0000002F0000002F0000082F000010B5431E0A44914204D011F8014B03F8014FF8E710BD03460244934202D003F8011BFAE7BE
:40260000704700000EB400B54FF402719CB0ADF814106FF00041049107914FF6FF711DAB02900690084853F8042BADF81610006802A9019300F064F8029B00221A701CB092
:402640005DF804EB03B070474881FF1F2DE9F0478E6882469E420C46914698463ED88A8912F4906F3AD02568096902236F1A656905EB450595FBF3F57B1C43449D4238BF7A
:402680001D4653050FD5294600F040FB064698B13A462169FFF7A2FFA38923F4906343F08003A38113E02A4600F08EFB064670B92169504600F0DEFA0C23CAF80030A38915
:4026C0004FF0FF3043F04003A381BDE8F08726613E44266046466561ED1BA560464528BF464649463246206800F0A8FAA36800209B1BA36023681E442660BDE8F087000036
:402700002DE9F04F9DB003938B8980461C060D4616460DD50B695BB9402100F0F7FA2860286118B90C23C8F80030CDE040236B610023099320238DF82930DFF89CB13023D6
:402740008DF82A3037463C4614F8013B1BB9B7EB060910D003E0252BF9D02746F3E74B46324629464046FFF771FF013000F0A780099B4B4409933B78002B00F0A0800023FF
:402780004FF0FF3204930793059206938DF853301A930126052221784E4800F041FA671C049B38B14B4A3C46801A06FA00F018430490EFE7D90644BF20228DF853201A073D
:4027C00044BF2B228DF8532022782A2A03D0079A00210A200BE0039A111D12680391002A10DA524243F00200079204900BE027463B780134303B092B03D800FB023201210B
:40280000F5E701B107923B782E2B1ED17B782A2B0AD1039B02371A1D1B680392002BB8BF4FF0FF33059310E0002319460593781C0A2407463A780130303A092A03D804FB0F
:4028400001210123F5E703B1059103223978224800F0E6F940B14023CBEB000003FA00F0049B013718430490397806221B487E1C8DF8281000F0D4F988B1194B33B9039BA9
:40288000073323F007030833039314E003AB00932A46144B04A94046AFF3008007E003AB00932A460F4B04A9404600F093F8B0F1FF3F824603D0099B5344099342E7AB8949
:4028C0005B0601D4099801E04FF0FF301DB0BDE8F08F00BFC12E0000C72E0000CB2E0000000000004D2600002DE9F04791461F460A698B6806469342B8BF1346C9F80030E1
:4029000091F843200C46DDF8208012B10133C9F800302368990642BFD9F800300233C9F80030256815F0060510D104F1190A07E00123524639463046C04701301AD0013524
:40294000E368D9F800209B1A9D42F1DB94F843302268003318BF012392060FD5E118302081F843005A1C94F845102244023382F8431003E04FF0FF30BDE8F08704F143021D
:4029800039463046C0470130F4D02268D9F80050E36802F00602042A08BF5D1B2269A3680CBF25EAE57500259342C4BF9B1AED184FF000091A344D4509D0012322463946BC
:4029C0003046C0470130D5D009F10109F3E70020BDE8F0872DE9F04317460A7E85B06E2A984606460C460C9B01F1430E00F0AE8011D8632A22D009D8002A00F0BB80582ACB
:402A000040F0CA8081F84520834955E0642A1ED0692A1CD0C0E0732A00F0B08009D86F2A2ED0702A40F0B8800A6842F020020A603EE0752A24D0782A3AD0ADE01A6801F1DD
:402A40004205111D1960136884F84230A8E021681A6811F0800F02D0111D196008E011F0400F02F10401196002D0B2F9003000E01368002B3CDA2D225B4284F8432037E08F
:402A800021681A6811F0800F02D0111D196007E011F0400F02F10401196001D0138800E01368227E5C496F2A14BF0A2208221BE078225A4984F845202268186812F0800FD8
:402AC00000F104051D6003D1550601D5038800E00368D00744BF42F0200222601BB9226822F0200222601022002084F8430001E049490A226568002DA56008DB206820F096
:402B0000040020602BB9002D7DD175460CE0002B79D07546B3FBF2F002FB1033CB5C05F8013D03460028F5D1082A0BD12368DA0708D5236962689A42DEBF302305F8013CC0
:402B400005F1FF35C5EB0E0323612EE008681A6810F0800F496903D0101D1860136808E010F0400F02F104001860136801D0198000E0196000232361754616E01A68111DC6
:402B80001960156800216268284600F049F808B1401B6060636804E004F1420584F8422001232361002384F84330CDF800803B4603AA21463046FFF797FE013002D14FF020
:402BC000FF3026E023692A4639463046C0470130F5D023689B0710D5002504F1190907E001234A4639463046C0470130E7D00135E368039A9B1A9D42F2DBE068039B9842A6
:402C0000B8BF184605E00B7804F1420584F842308AE705B0BDE8F083D22E0000E32E000010B5C9B202449042034605D01C7801308C42F8D1184610BD002010BD884210B565
:402C400001EB020301D8421E0BE09842FBD28118D21AD34204D013F8014D01F8014DF8E710BD994204D011F8014B02F8014FF8E710BD000038B50546002944D051F8043CE6
:402C80000C1F002BB8BFE41800F0D4F81E4A1368114613B96360146030E0A3420DD92268A018834201BF18685B681218226063600C6023E0A24203D813465A68002AF9D1C1
:402CC00018681918A1420BD12168014458188242196013D110685268014419605A600DE002D90C232B6009E021686018824201BF106852680918216062605C602846BDE806
:402D0000384000F098B838BD0082FF1F70B5CD1C25F0030508350C2D38BF0C25002D064601DBA94202D90C23336046E000F082F8234B1C681A462146A1B10B685B1B0ED43A
:402D40000B2B03D90B60CC18CD501EE08C420BBF63684B681360636018BF0C4615E00C464968E9E7174C23681BB9304600F052F820602946304600F04DF8431C18D0C41C67
:402D800024F00304A0420DD12560304600F053F804F10B00231D20F00700C31A0ED05A42E25070BD211A304600F034F80130EBD10C233360304600F03EF8002070BD00BFD1
:402DC0000082FF1FFC81FF1FF8B5074615460E4621B91146BDE8F840FFF798BF1AB9FFF749FF2846F8BD00F027F885420ED929463846FFF78BFF044650B131462A46FFF70E
:402E0000EDFB31463846FFF735FF01E03046F8BD2046F8BD38B5064C0023054608462360FDF720FC431C02D1236803B12B6038BD3082FF1F7047704751F8040C0028BEBFA9
:402E4000091851F8043CC018043870470000000043726162733A20256400000020202020202020202020202020000000004F00400C00305100404000F05100401000000042
:402E80000140800A000B0140000500140140000800400140000A004C014000020050014020000000800A0140A4070048800000000C061803303E4A00020103000405064353
:402EC00000232D302B2000686C4C006566674546470030313233343536373839414243444546003031323334353637383961626364656600F8B500BFF8BC08BC9E46704760
:402F00004D000000E1060000F8B500BFF8BC08BC9E46704729000000282F0000C880FF1F88000000E80000000000000001000000020000003882FF1F0000E02EC05D000082
:402F40001800000000366E010000000000000000000000000000000000000000000000000000000000000000BF2E00000000000000000000000000000000000000000000A7
:402F800000000000000000000000000000000000000000000000000000000000000000000000000000000000E880FF1F00000000000000000000000000000000000000008B
:402FC00000000000000000000000000000000000000000000000000000000000000000000000000000000000000000000000000000000000000000000000000000000000D1
:403000000000000000000000000000000000000000000000000000000000000000000000000000000000000000000000000000000000000000000000000000000000000090
:403040000000000000000000000000000000000000000000000000000000000000000000000000000000000000000000000000000000000000000000000000000000000050
:403080000000000000000000000000000000000000000000000000000000000000000000000000000000000000000000000000000000000000000000000000000000000010
:020000040003F7
:0200000480007A
:40000000024F0040055200400664004002650040430201402103014001050140010701406208014046090140170A01403A0B01403B0C01402B0D01403614014019150140AE
:4000400052180140401901405F1A0140421B01400440014006410140054201400743014003460140044701400148014003490140074C01400A4D014009500140015101403D
:4000800001800A1B00040830096061806440830D8872890D8B0D8C388D0D850D880F16012E0134014060410249FF4AFF4BFF4DA04F04501858045A045C035D035F016040D7
:4000C00062C06440654066C068C06AC06CC06EC086028F019201A101A204AA02B004B202B401B701BE04C020C106C5D0C601C702C816C9FFCAFFCBFFCDAFCE0FCF04D01874
:40010000D280D405D804D904DA04DB04DC33DD33DF01E040E2C0E440E540E6C0E8C0EAC0ECC0EEC0000409020F20108012041580180419061B101F2022402902398040041A
:400140004604480849014F2050885140520459055A807102C004C228C48ACA01CE08D024D224D60BE602AB20E6080203040F0508080309060B010C010D0810031104120C06
:40018000140F15061701180219071C041F0120082102240C25062603280C29082D012F06300F3307350838203A023B083E104020410649FF4AFF4BFF4DA04F04501856027B
:4001C0005711580459045A045B045C445D425F01604062C06440654066C068C06AC06CC06EC091019A019F03AA01B102B201B701BE04C020C106C5D0C601C702C816C9FFD9
:40020000CAFFCBFFCDAFCE0FCF04D018D405D804D904DA04DB04DC20DD22DF01E040E2C0E440E540E6C0E8C0EAC0ECC0EEC0042005800680071009200C100D080E41120887
:400240001608170519041E401F2021022240241825082D182E482F4030803102348037153C103D403E04408041204280452049014A084E085080520859055A805E206D50AD
:400280006E04741075087701872088108A018B408C84940196409A409B149C809D8A9F01A418A620A704B001C0F0C2F2C472CAF0CCF9CE70D024D224D62B0B01230137014F
:4002C0004060410349FF4AFF4BFF4DA04F04501859045A045F01604062C06440654066C068C06AC06CC06EC00410050A07010C880D2214C01540162017101D421E081F0483
:400300002002240425202608271429402A402B802C482D88362837013B103C343D403E404220462048044B104F11562057805C405E085F01774088808B10904094019708F6
:400340009D409F40A004A784B404C0F0C2F0C4F0CAF1CCE0CE74D042D224D6D002040E021A02220123012C0130013101340436023E4054185604580459045B045D405F01FB
:400380008701880492019301A607AF02B004B102B202B301B401BF04C040C106C5D1C702C813C9FFCAFFCBFFCDA0CF04D018D280D405D804D904DA04DB04DC11DD11DF017D
:4003C000E040E2C0E440E540E6C0E8C0EAC0ECC0EEC000100540074009020F0810201501178018141A401C481F402102220427802A802D012F80310238083A403B8041025A
:4004000048284901500C59015A485C016640674872808740C092C248C494CA88CC01CE02D001D204D68BD8B01F0123013101405149FF4AFF4BFF4F01501859045A045C500B
:400440005D055F016040624064406540668068806A806C806E809201AE01B001BE01C015C5ECC602C807C9FFCAFFCBFFCD83CE03CF01D018D280D401D804DA04DB04DD55A8
:40048000DF01E040E240E440E540E680E880EA80EC80EE800F8017401E8021022B8033404380474048014D044F8157C05D045E805F01740177408102C210C480CA01CC082C
:4004C000D018D218D6D001C8033205380602080209380C020DC01004140417C019C01A021E021FC02001240425A0270C28042BC02D502F0D3002310632043338340135019E
:4005000037C03E153F01405641024204440145E0470C481249FF4AFF4BFF4C624DA04EF04F41500C5401580459045A045B045C405D445F016640670269106A306B106D10D9
:400540006E106F12840488068C0693019A01A201A602B001B406B501B820BE10D280D804D904DB04DC22DD20DF010044012003080444052009200C280D080E420F8210A0EE
:4005800015011714188019101EA821202421262027602C182D802F103101348037143D103E443F01464047504C044D024F8057045C105D015E8871018321900891109244F5
:4005C000942198809A409B149C109D82A080A108A408A520A630A704C0E7C2F2C47CCA70CC71CEF0D0B0D230D6F004E6050C061107030C600D010E8B0F0E111014801501F0
:400600001665170618A01B031E181F0820802202260128482A862F0C30073310350F36F83A023B203F044006454049FF4A074BFF4C404D204EF04F055008580459045A043B
:400640005C445D045F01604061A862406320822084018602870188288A108C0C8D018E10940C963098039C0C9E10A002A201A502A614A803A901B23CB303B403B908BA08D6
:40068000C032C104C5EBC7C0C823C9FFCAFFCBFFCEF0CF44D00CD804D904DA04DC44DD04DF01E6C0EA40EB02004404400660070809080A010B040D080E040F0210A01208FA
:4006C00015101610170218401A031D081F182004232826082A402C202F0830A03108320138443C4444804528488049104D014F0450205120521057015CC0864889808A20D8
:400700008B128F209110920494449501972099109D80A420A709A810AA01B440C0F5C2E7C47ECA68CC0FCE5AD0E0D204334436203708CCF0578086209F4CA620D440E640F5
:4007400013089F4CAB80C410EE202740600884089F44C880D840E6109A01B601EC0298409A01B040E8019F0483049F04E2805C016201644098409A01D601D8031101798083
:4007800089018D40B401C408DC01E408E601EC08001F08080C150E13103411011A201C141D0100BE00000100301C0002100800002007001800100100301F0C00380004045E
:4007C0000000020000000803001802003C1C00010C04300004000100021F380002000028000014006003000000D021000EFFFFFF00AF0F04180080000500000004040404CF
:40080000440000014000C0004040C000C000C000C000C00000000000000000000000000000000000004444000400000080004080800080000000000000F0F0007000000017
:4008400000FFFF0000000000010014010000000000000000000000000000000000000000000000000000000000000000000000000000000000000000000000000000000064
:400880000000000000000000000000000000000000000000000000000000000000000000000000000000000000000000000000000000000000000000000000000000000038
:4008C00000000000000000000000000000000000000000000000000000000000000000000000000000000000000000000000000000000000000000000000000000000000F8
:4009000000000000000000000000000000000000000000000000000000000000000000000000000000000000000000000000000000000000000000000000000000000000B7
:400940000000000000000000000000000000000000000000000000000000000000000000000000000000000000000000000000000000000000000000000000000000000077
:0200000490006A
:0400000000004007B5
:0200000490105A
:04000000BC90ACAF55
:0200000490303A
:020000005B8122
:0200000490402A
:4000000000000000000000000000000000000000000000000000000000000000000000000000000000000000000000000000000000000000000000000000000000000000C0
:400040000000000000000000000000000000000000000000000000000000000000000000000000000000000000000000000000000000000000000000000000000000000080
:400080000000000000000000000000000000000000000000000000000000000000000000000000000000000000000000000000000000000000000000000000000000000040
:4000C0000000000000000000000000000000000000000000000000000000000000000000000000000000000000000000000000000000000000000000000000000000000000
:0200000490501A
:0C00000000012E16106900012E2A6BEA88
:00000001FF